{
  "contractName": "CorgibStaking",
  "abi": [
    {
      "inputs": [
        {
          "internalType": "uint256",
          "name": "_startBlock",
          "type": "uint256"
        }
      ],
      "stateMutability": "nonpayable",
      "type": "constructor"
    },
    {
      "anonymous": false,
      "inputs": [
        {
          "indexed": true,
          "internalType": "address",
          "name": "user",
          "type": "address"
        },
        {
          "indexed": true,
          "internalType": "uint256",
          "name": "pid",
          "type": "uint256"
        },
        {
          "indexed": false,
          "internalType": "uint256",
          "name": "amount",
          "type": "uint256"
        }
      ],
      "name": "Deposit",
      "type": "event"
    },
    {
      "anonymous": false,
      "inputs": [
        {
          "indexed": true,
          "internalType": "address",
          "name": "user",
          "type": "address"
        },
        {
          "indexed": true,
          "internalType": "uint256",
          "name": "pid",
          "type": "uint256"
        },
        {
          "indexed": false,
          "internalType": "uint256",
          "name": "amount",
          "type": "uint256"
        }
      ],
      "name": "EmergencyWithdraw",
      "type": "event"
    },
    {
      "anonymous": false,
      "inputs": [
        {
          "indexed": true,
          "internalType": "address",
          "name": "previousOwner",
          "type": "address"
        },
        {
          "indexed": true,
          "internalType": "address",
          "name": "newOwner",
          "type": "address"
        }
      ],
      "name": "OwnershipTransferred",
      "type": "event"
    },
    {
      "anonymous": false,
      "inputs": [
        {
          "indexed": true,
          "internalType": "address",
          "name": "user",
          "type": "address"
        },
        {
          "indexed": true,
          "internalType": "uint256",
          "name": "pid",
          "type": "uint256"
        },
        {
          "indexed": false,
          "internalType": "uint256",
          "name": "amount",
          "type": "uint256"
        }
      ],
      "name": "Withdraw",
      "type": "event"
    },
    {
      "inputs": [],
      "name": "MinimumStakeAmount",
      "outputs": [
        {
          "internalType": "uint256",
          "name": "",
          "type": "uint256"
        }
      ],
      "stateMutability": "view",
      "type": "function"
    },
    {
      "inputs": [],
      "name": "isOwner",
      "outputs": [
        {
          "internalType": "bool",
          "name": "",
          "type": "bool"
        }
      ],
      "stateMutability": "view",
      "type": "function"
    },
    {
      "inputs": [],
      "name": "name",
      "outputs": [
        {
          "internalType": "string",
          "name": "",
          "type": "string"
        }
      ],
      "stateMutability": "view",
      "type": "function"
    },
    {
      "inputs": [],
      "name": "owner",
      "outputs": [
        {
          "internalType": "address",
          "name": "",
          "type": "address"
        }
      ],
      "stateMutability": "view",
      "type": "function"
    },
    {
      "inputs": [],
      "name": "renounceOwnership",
      "outputs": [],
      "stateMutability": "nonpayable",
      "type": "function"
    },
    {
      "inputs": [],
      "name": "startBlock",
      "outputs": [
        {
          "internalType": "uint256",
          "name": "",
          "type": "uint256"
        }
      ],
      "stateMutability": "view",
      "type": "function"
    },
    {
      "inputs": [],
      "name": "totalUser",
      "outputs": [
        {
          "internalType": "uint256",
          "name": "",
          "type": "uint256"
        }
      ],
      "stateMutability": "view",
      "type": "function"
    },
    {
      "inputs": [
        {
          "internalType": "address",
          "name": "newOwner",
          "type": "address"
        }
      ],
      "name": "transferOwnership",
      "outputs": [],
      "stateMutability": "nonpayable",
      "type": "function"
    },
    {
      "inputs": [
        {
          "internalType": "uint256",
          "name": "",
          "type": "uint256"
        },
        {
          "internalType": "address",
          "name": "",
          "type": "address"
        }
      ],
      "name": "userInfo",
      "outputs": [
        {
          "internalType": "uint256",
          "name": "amount",
          "type": "uint256"
        },
        {
          "internalType": "uint256",
          "name": "rewardDebt",
          "type": "uint256"
        },
        {
          "internalType": "uint256",
          "name": "rewardClaimed",
          "type": "uint256"
        },
        {
          "internalType": "uint256",
          "name": "lastBlock",
          "type": "uint256"
        },
        {
          "internalType": "uint256",
          "name": "beginTime",
          "type": "uint256"
        },
        {
          "internalType": "uint256",
          "name": "endTime",
          "type": "uint256"
        }
      ],
      "stateMutability": "view",
      "type": "function"
    },
    {
      "inputs": [
        {
          "internalType": "uint256",
          "name": "_amount",
          "type": "uint256"
        }
      ],
      "name": "changeMinimumStakeAmount",
      "outputs": [],
      "stateMutability": "nonpayable",
      "type": "function"
    },
    {
      "inputs": [],
      "name": "poolLength",
      "outputs": [
        {
          "internalType": "uint256",
          "name": "",
          "type": "uint256"
        }
      ],
      "stateMutability": "view",
      "type": "function"
    },
    {
      "inputs": [
        {
          "internalType": "uint256",
          "name": "_allocPoint",
          "type": "uint256"
        },
        {
          "internalType": "contract IERC20",
          "name": "_stakeToken",
          "type": "address"
        },
        {
          "internalType": "contract IERC20",
          "name": "_rewardToken",
          "type": "address"
        },
        {
          "internalType": "uint256",
          "name": "_rewardPerBlock",
          "type": "uint256"
        },
        {
          "internalType": "uint256",
          "name": "_endDate",
          "type": "uint256"
        },
        {
          "internalType": "bool",
          "name": "_withUpdate",
          "type": "bool"
        }
      ],
      "name": "addPool",
      "outputs": [],
      "stateMutability": "nonpayable",
      "type": "function"
    },
    {
      "inputs": [
        {
          "internalType": "uint256",
          "name": "_pid",
          "type": "uint256"
        },
        {
          "internalType": "uint256",
          "name": "_allocPoint",
          "type": "uint256"
        },
        {
          "internalType": "uint256",
          "name": "_rewardPerBlock",
          "type": "uint256"
        },
        {
          "internalType": "uint256",
          "name": "_endDate",
          "type": "uint256"
        },
        {
          "internalType": "bool",
          "name": "_withUpdate",
          "type": "bool"
        }
      ],
      "name": "setPool",
      "outputs": [],
      "stateMutability": "nonpayable",
      "type": "function"
    },
    {
      "inputs": [
        {
          "internalType": "uint256",
          "name": "_fromBlock",
          "type": "uint256"
        },
        {
          "internalType": "uint256",
          "name": "_toBlock",
          "type": "uint256"
        }
      ],
      "name": "getMultiplier",
      "outputs": [
        {
          "internalType": "uint256",
          "name": "",
          "type": "uint256"
        }
      ],
      "stateMutability": "view",
      "type": "function"
    },
    {
      "inputs": [
        {
          "internalType": "uint256",
          "name": "_pid",
          "type": "uint256"
        }
      ],
      "name": "getTotalTokenStaked",
      "outputs": [
        {
          "internalType": "uint256",
          "name": "",
          "type": "uint256"
        }
      ],
      "stateMutability": "view",
      "type": "function"
    },
    {
      "inputs": [
        {
          "internalType": "uint256",
          "name": "_pid",
          "type": "uint256"
        },
        {
          "internalType": "address",
          "name": "_user",
          "type": "address"
        }
      ],
      "name": "pendingReward",
      "outputs": [
        {
          "internalType": "uint256",
          "name": "",
          "type": "uint256"
        }
      ],
      "stateMutability": "view",
      "type": "function"
    },
    {
      "inputs": [],
      "name": "massUpdatePools",
      "outputs": [],
      "stateMutability": "nonpayable",
      "type": "function"
    },
    {
      "inputs": [
        {
          "internalType": "uint256",
          "name": "_pid",
          "type": "uint256"
        }
      ],
      "name": "updatePool",
      "outputs": [],
      "stateMutability": "nonpayable",
      "type": "function"
    },
    {
      "inputs": [
        {
          "internalType": "uint256",
          "name": "_pid",
          "type": "uint256"
        },
        {
          "internalType": "uint256",
          "name": "_amount",
          "type": "uint256"
        }
      ],
      "name": "deposit",
      "outputs": [],
      "stateMutability": "nonpayable",
      "type": "function"
    },
    {
      "inputs": [
        {
          "internalType": "uint256",
          "name": "_pid",
          "type": "uint256"
        },
        {
          "internalType": "uint256",
          "name": "_amount",
          "type": "uint256"
        }
      ],
      "name": "withdraw",
      "outputs": [],
      "stateMutability": "nonpayable",
      "type": "function"
    },
    {
      "inputs": [
        {
          "internalType": "uint256",
          "name": "_pid",
          "type": "uint256"
        }
      ],
      "name": "emergencyWithdraw",
      "outputs": [],
      "stateMutability": "nonpayable",
      "type": "function"
    },
    {
      "inputs": [
        {
          "internalType": "uint256",
          "name": "_pid",
          "type": "uint256"
        }
      ],
      "name": "getPoolInfo",
      "outputs": [
        {
          "internalType": "uint256",
          "name": "",
          "type": "uint256"
        },
        {
          "internalType": "uint256",
          "name": "",
          "type": "uint256"
        },
        {
          "internalType": "uint256",
          "name": "",
          "type": "uint256"
        },
        {
          "internalType": "uint256",
          "name": "",
          "type": "uint256"
        },
        {
          "internalType": "uint256",
          "name": "",
          "type": "uint256"
        }
      ],
      "stateMutability": "view",
      "type": "function"
    },
    {
      "inputs": [
        {
          "internalType": "address",
          "name": "user",
          "type": "address"
        },
        {
          "internalType": "uint256",
          "name": "pid",
          "type": "uint256"
        }
      ],
      "name": "getDiffBlock",
      "outputs": [
        {
          "internalType": "uint256",
          "name": "",
          "type": "uint256"
        }
      ],
      "stateMutability": "view",
      "type": "function"
    }
  ],
  "bytecode": "0x60806040526040518060400160405280601d81526020017f436f726769204f6620506f6c6b614272696467653a205374616b696e6700000081525060019080519060200190620000519291906200016e565b503480156200005f57600080fd5b50604051620027ce380380620027ce833981810160405260208110156200008557600080fd5b81019080805190602001909291905050506000620000a86200016660201b60201c565b9050806000806101000a81548173ffffffffffffffffffffffffffffffffffffffff021916908373ffffffffffffffffffffffffffffffffffffffff1602179055508073ffffffffffffffffffffffffffffffffffffffff16600073ffffffffffffffffffffffffffffffffffffffff167f8be0079c531659141344cd1fd0a4f28419497f9722a3daafe3b4186f6b6457e060405160405180910390a350806006819055506a52b7d2dcc80cd2e4000000600281905550506200021d565b600033905090565b828054600181600116156101000203166002900490600052602060002090601f016020900481019282601f10620001b157805160ff1916838001178555620001e2565b82800160010185558215620001e2579182015b82811115620001e1578251825591602001919060010190620001c4565b5b509050620001f19190620001f5565b5090565b6200021a91905b8082111562000216576000816000905550600101620001fc565b5090565b90565b6125a1806200022d6000396000f3fe608060405234801561001057600080fd5b506004361061014d5760003560e01c806370a341be116100c357806398969e821161007c57806398969e8214610544578063e1604b70146105a6578063e2bbb158146105c4578063ec11478b146105fc578063f2fde38b14610654578063fa66bb87146106985761014d565b806370a341be146103bb578063715018a6146103fd5780638da5cb5b146104075780638dbb1e3a146104515780638f32d59b1461049d57806393f1a40b146104bf5761014d565b80633d59fa44116101155780633d59fa441461029d578063441a3e70146102ff57806348cd4cb11461033757806351eb05a6146103555780635312ea8e14610383578063630b5ba1146103b15761014d565b806306fdde0314610152578063081e3eda146101d55780632eb19dbe146101f35780632f380b3514610211578063393149d71461026f575b600080fd5b61015a610726565b6040518080602001828103825283818151815260200191508051906020019080838360005b8381101561019a57808201518184015260208101905061017f565b50505050905090810190601f1680156101c75780820380516001836020036101000a031916815260200191505b509250505060405180910390f35b6101dd6107c4565b6040518082815260200191505060405180910390f35b6101fb6107d1565b6040518082815260200191505060405180910390f35b61023d6004803603602081101561022757600080fd5b81019080803590602001909291905050506107d7565b604051808681526020018581526020018481526020018381526020018281526020019550505050505060405180910390f35b61029b6004803603602081101561028557600080fd5b810190808035906020019092919050505061088d565b005b6102e9600480360360408110156102b357600080fd5b81019080803573ffffffffffffffffffffffffffffffffffffffff16906020019092919080359060200190929190505050610911565b6040518082815260200191505060405180910390f35b6103356004803603604081101561031557600080fd5b8101908080359060200190929190803590602001909291905050506109d4565b005b61033f610cb6565b6040518082815260200191505060405180910390f35b6103816004803603602081101561036b57600080fd5b8101908080359060200190929190505050610cbc565b005b6103af6004803603602081101561039957600080fd5b8101908080359060200190929190505050610daa565b005b6103b9610ede565b005b6103e7600480360360208110156103d157600080fd5b8101908080359060200190929190505050610f0e565b6040518082815260200191505060405180910390f35b610405610f3b565b005b61040f611074565b604051808273ffffffffffffffffffffffffffffffffffffffff1673ffffffffffffffffffffffffffffffffffffffff16815260200191505060405180910390f35b6104876004803603604081101561046757600080fd5b81019080803590602001909291908035906020019092919050505061109d565b6040518082815260200191505060405180910390f35b6104a56110ba565b604051808215151515815260200191505060405180910390f35b61050b600480360360408110156104d557600080fd5b8101908080359060200190929190803573ffffffffffffffffffffffffffffffffffffffff169060200190929190505050611118565b60405180878152602001868152602001858152602001848152602001838152602001828152602001965050505050505060405180910390f35b6105906004803603604081101561055a57600080fd5b8101908080359060200190929190803573ffffffffffffffffffffffffffffffffffffffff169060200190929190505050611161565b6040518082815260200191505060405180910390f35b6105ae6112c7565b6040518082815260200191505060405180910390f35b6105fa600480360360408110156105da57600080fd5b8101908080359060200190929190803590602001909291905050506112cd565b005b610652600480360360a081101561061257600080fd5b8101908080359060200190929190803590602001909291908035906020019092919080359060200190929190803515159060200190929190505050611653565b005b6106966004803603602081101561066a57600080fd5b81019080803573ffffffffffffffffffffffffffffffffffffffff16906020019092919050505061176a565b005b610724600480360360c08110156106ae57600080fd5b8101908080359060200190929190803573ffffffffffffffffffffffffffffffffffffffff169060200190929190803573ffffffffffffffffffffffffffffffffffffffff16906020019092919080359060200190929190803590602001909291908035151590602001909291905050506117f0565b005b60018054600181600116156101000203166002900480601f0160208091040260200160405190810160405280929190818152602001828054600181600116156101000203166002900480156107bc5780601f10610791576101008083540402835291602001916107bc565b820191906000526020600020905b81548152906001019060200180831161079f57829003601f168201915b505050505081565b6000600380549050905090565b60025481565b6000806000806000600386815481106107ec57fe5b9060005260206000209060090201600401546003878154811061080b57fe5b9060005260206000209060090201600301546003888154811061082a57fe5b9060005260206000209060090201600501546003898154811061084957fe5b90600052602060002090600902016006015460038a8154811061086857fe5b9060005260206000209060090201600701549450945094509450945091939590929450565b6108956110ba565b610907576040517f08c379a00000000000000000000000000000000000000000000000000000000081526004018080602001828103825260208152602001807f4f776e61626c653a2063616c6c6572206973206e6f7420746865206f776e657281525060200191505060405180910390fd5b8060028190555050565b600061091b6124c4565b6004600084815260200190815260200160002060008573ffffffffffffffffffffffffffffffffffffffff1673ffffffffffffffffffffffffffffffffffffffff1681526020019081526020016000206040518060c0016040529081600082015481526020016001820154815260200160028201548152602001600382015481526020016004820154815260200160058201548152505090506109cb816060015143611a0a90919063ffffffff16565b91505092915050565b6000600383815481106109e357fe5b9060005260206000209060090201905060006004600085815260200190815260200160002060003373ffffffffffffffffffffffffffffffffffffffff1673ffffffffffffffffffffffffffffffffffffffff16815260200190815260200160002090508281600001541015610ac1576040517f08c379a00000000000000000000000000000000000000000000000000000000081526004018080602001828103825260158152602001807f77697468647261773a206261642072657175657374000000000000000000000081525060200191505060405180910390fd5b610aca84610cbc565b6000610b178260010154610b09670de0b6b3a7640000610afb87600401548760000154611a5490919063ffffffff16565b611ada90919063ffffffff16565b611a0a90919063ffffffff16565b90506000811115610b6c57610b2d338287611b24565b610b44818460070154611d2f90919063ffffffff16565b8360070181905550610b63818360020154611d2f90919063ffffffff16565b82600201819055505b6000841115610c1a57610b8c848360000154611a0a90919063ffffffff16565b8260000181905550600082600001541415610bab574282600501819055505b610bc2848460060154611a0a90919063ffffffff16565b8360060181905550610c1933858560000160009054906101000a900473ffffffffffffffffffffffffffffffffffffffff1673ffffffffffffffffffffffffffffffffffffffff16611db79092919063ffffffff16565b5b610c4f670de0b6b3a7640000610c4185600401548560000154611a5490919063ffffffff16565b611ada90919063ffffffff16565b8260010181905550438260030181905550843373ffffffffffffffffffffffffffffffffffffffff167ff279e6a1f5e320cca91135676d9cb6e44ca8a08c0b88342bcdb1144f6511b568866040518082815260200191505060405180910390a35050505050565b60065481565b600060038281548110610ccb57fe5b9060005260206000209060090201905080600301544311610cec5750610da7565b6000610cf783610f0e565b90506000811480610d0c575060008260020154145b15610d21574382600301819055505050610da7565b6000610d3183600301544361109d565b90506000610d4c846005015483611a5490919063ffffffff16565b9050610d91610d7e84610d70670de0b6b3a764000085611a5490919063ffffffff16565b611ada90919063ffffffff16565b8560040154611d2f90919063ffffffff16565b8460040181905550438460030181905550505050505b50565b600060038281548110610db957fe5b9060005260206000209060090201905060006004600084815260200190815260200160002060003373ffffffffffffffffffffffffffffffffffffffff1673ffffffffffffffffffffffffffffffffffffffff16815260200190815260200160002090506000816000015490506000826000018190555060008260010181905550610e8933828560000160009054906101000a900473ffffffffffffffffffffffffffffffffffffffff1673ffffffffffffffffffffffffffffffffffffffff16611db79092919063ffffffff16565b833373ffffffffffffffffffffffffffffffffffffffff167fbb757047c2b5f3974fe26b7c10f732e7bce710b0952a71082702781e62ae0595836040518082815260200191505060405180910390a350505050565b6000600380549050905060008090505b81811015610f0a57610eff81610cbc565b806001019050610eee565b5050565b60008060038381548110610f1e57fe5b906000526020600020906009020190508060060154915050919050565b610f436110ba565b610fb5576040517f08c379a00000000000000000000000000000000000000000000000000000000081526004018080602001828103825260208152602001807f4f776e61626c653a2063616c6c6572206973206e6f7420746865206f776e657281525060200191505060405180910390fd5b600073ffffffffffffffffffffffffffffffffffffffff166000809054906101000a900473ffffffffffffffffffffffffffffffffffffffff1673ffffffffffffffffffffffffffffffffffffffff167f8be0079c531659141344cd1fd0a4f28419497f9722a3daafe3b4186f6b6457e060405160405180910390a360008060006101000a81548173ffffffffffffffffffffffffffffffffffffffff021916908373ffffffffffffffffffffffffffffffffffffffff160217905550565b60008060009054906101000a900473ffffffffffffffffffffffffffffffffffffffff16905090565b60006110b28383611a0a90919063ffffffff16565b905092915050565b60008060009054906101000a900473ffffffffffffffffffffffffffffffffffffffff1673ffffffffffffffffffffffffffffffffffffffff166110fc611e6f565b73ffffffffffffffffffffffffffffffffffffffff1614905090565b6004602052816000526040600020602052806000526040600020600091509150508060000154908060010154908060020154908060030154908060040154908060050154905086565b6000806003848154811061117157fe5b9060005260206000209060090201905060006004600086815260200190815260200160002060008573ffffffffffffffffffffffffffffffffffffffff1673ffffffffffffffffffffffffffffffffffffffff168152602001908152602001600020905060008260040154905060006111e987610f0e565b90508360030154431180156111fe5750600081115b1561127457600061121385600301544361109d565b9050600061122e866005015483611a5490919063ffffffff16565b905061126f61126084611252670de0b6b3a764000085611a5490919063ffffffff16565b611ada90919063ffffffff16565b85611d2f90919063ffffffff16565b935050505b6112bb83600101546112ad670de0b6b3a764000061129f868860000154611a5490919063ffffffff16565b611ada90919063ffffffff16565b611a0a90919063ffffffff16565b94505050505092915050565b60055481565b6000600383815481106112dc57fe5b9060005260206000209060090201905060006004600085815260200190815260200160002060003373ffffffffffffffffffffffffffffffffffffffff1673ffffffffffffffffffffffffffffffffffffffff1681526020019081526020016000209050816008015442106113b9576040517f08c379a000000000000000000000000000000000000000000000000000000000815260040180806020018281038252601b8152602001807f7374616b696e6720706f6f6c20616c726561647920636c6f736564000000000081525060200191505060405180910390fd5b600254831015611431576040517f08c379a00000000000000000000000000000000000000000000000000000000081526004018080602001828103825260208152602001807f646f6573206e6f74206d65657420746865206d696e696d756d20616d6f756e7481525060200191505060405180910390fd5b61143a84610cbc565b6000816000015411156114ef5760006114948260010154611486670de0b6b3a764000061147887600401548760000154611a5490919063ffffffff16565b611ada90919063ffffffff16565b611a0a90919063ffffffff16565b905060008111156114e9576114aa338287611b24565b6114c1818460070154611d2f90919063ffffffff16565b83600701819055506114e0818360020154611d2f90919063ffffffff16565b82600201819055505b5061151f565b6115056001600554611d2f90919063ffffffff16565b600581905550428160040181905550600081600501819055505b60008311156115b8576115793330858560000160009054906101000a900473ffffffffffffffffffffffffffffffffffffffff1673ffffffffffffffffffffffffffffffffffffffff16611e77909392919063ffffffff16565b611590838260000154611d2f90919063ffffffff16565b81600001819055506115af838360060154611d2f90919063ffffffff16565b82600601819055505b6115ed670de0b6b3a76400006115df84600401548460000154611a5490919063ffffffff16565b611ada90919063ffffffff16565b8160010181905550438160030181905550833373ffffffffffffffffffffffffffffffffffffffff167f90890809c654f11d6e72a28fa60149770a0d11ec6c92319d6ceb2bb0a4ea1a15856040518082815260200191505060405180910390a350505050565b61165b6110ba565b6116cd576040517f08c379a00000000000000000000000000000000000000000000000000000000081526004018080602001828103825260208152602001807f4f776e61626c653a2063616c6c6572206973206e6f7420746865206f776e657281525060200191505060405180910390fd5b80156116dc576116db610ede565b5b60008411156117095783600386815481106116f357fe5b9060005260206000209060090201600201819055505b600083111561173657826003868154811061172057fe5b9060005260206000209060090201600501819055505b600082111561176357816003868154811061174d57fe5b9060005260206000209060090201600801819055505b5050505050565b6117726110ba565b6117e4576040517f08c379a00000000000000000000000000000000000000000000000000000000081526004018080602001828103825260208152602001807f4f776e61626c653a2063616c6c6572206973206e6f7420746865206f776e657281525060200191505060405180910390fd5b6117ed81611f64565b50565b6117f86110ba565b61186a576040517f08c379a00000000000000000000000000000000000000000000000000000000081526004018080602001828103825260208152602001807f4f776e61626c653a2063616c6c6572206973206e6f7420746865206f776e657281525060200191505060405180910390fd5b801561187957611878610ede565b5b6000600654431161188c5760065461188e565b435b905060036040518061012001604052808873ffffffffffffffffffffffffffffffffffffffff1681526020018773ffffffffffffffffffffffffffffffffffffffff16815260200189815260200183815260200160008152602001868152602001600081526020016000815260200185815250908060018154018082558091505060019003906000526020600020906009020160009091909190915060008201518160000160006101000a81548173ffffffffffffffffffffffffffffffffffffffff021916908373ffffffffffffffffffffffffffffffffffffffff16021790555060208201518160010160006101000a81548173ffffffffffffffffffffffffffffffffffffffff021916908373ffffffffffffffffffffffffffffffffffffffff16021790555060408201518160020155606082015181600301556080820151816004015560a0820151816005015560c0820151816006015560e082015181600701556101008201518160080155505050505050505050565b6000611a4c83836040518060400160405280601e81526020017f536166654d6174683a207375627472616374696f6e206f766572666c6f7700008152506120a8565b905092915050565b600080831415611a675760009050611ad4565b6000828402905082848281611a7857fe5b0414611acf576040517f08c379a00000000000000000000000000000000000000000000000000000000081526004018080602001828103825260218152602001806125216021913960400191505060405180910390fd5b809150505b92915050565b6000611b1c83836040518060400160405280601a81526020017f536166654d6174683a206469766973696f6e206279207a65726f000000000000815250612168565b905092915050565b600060038281548110611b3357fe5b9060005260206000209060090201905060008160020154905080841115611c40578160010160009054906101000a900473ffffffffffffffffffffffffffffffffffffffff1673ffffffffffffffffffffffffffffffffffffffff1663a9059cbb86836040518363ffffffff1660e01b8152600401808373ffffffffffffffffffffffffffffffffffffffff1673ffffffffffffffffffffffffffffffffffffffff16815260200182815260200192505050602060405180830381600087803b158015611bff57600080fd5b505af1158015611c13573d6000803e3d6000fd5b505050506040513d6020811015611c2957600080fd5b810190808051906020019092919050505050611d28565b8160010160009054906101000a900473ffffffffffffffffffffffffffffffffffffffff1673ffffffffffffffffffffffffffffffffffffffff1663a9059cbb86866040518363ffffffff1660e01b8152600401808373ffffffffffffffffffffffffffffffffffffffff1673ffffffffffffffffffffffffffffffffffffffff16815260200182815260200192505050602060405180830381600087803b158015611ceb57600080fd5b505af1158015611cff573d6000803e3d6000fd5b505050506040513d6020811015611d1557600080fd5b8101908080519060200190929190505050505b5050505050565b600080828401905083811015611dad576040517f08c379a000000000000000000000000000000000000000000000000000000000815260040180806020018281038252601b8152602001807f536166654d6174683a206164646974696f6e206f766572666c6f77000000000081525060200191505060405180910390fd5b8091505092915050565b611e6a8363a9059cbb60e01b8484604051602401808373ffffffffffffffffffffffffffffffffffffffff1673ffffffffffffffffffffffffffffffffffffffff16815260200182815260200192505050604051602081830303815290604052907bffffffffffffffffffffffffffffffffffffffffffffffffffffffff19166020820180517bffffffffffffffffffffffffffffffffffffffffffffffffffffffff838183161783525050505061222e565b505050565b600033905090565b611f5e846323b872dd60e01b858585604051602401808473ffffffffffffffffffffffffffffffffffffffff1673ffffffffffffffffffffffffffffffffffffffff1681526020018373ffffffffffffffffffffffffffffffffffffffff1673ffffffffffffffffffffffffffffffffffffffff1681526020018281526020019350505050604051602081830303815290604052907bffffffffffffffffffffffffffffffffffffffffffffffffffffffff19166020820180517bffffffffffffffffffffffffffffffffffffffffffffffffffffffff838183161783525050505061222e565b50505050565b600073ffffffffffffffffffffffffffffffffffffffff168173ffffffffffffffffffffffffffffffffffffffff161415611fea576040517f08c379a00000000000000000000000000000000000000000000000000000000081526004018080602001828103825260268152602001806124fb6026913960400191505060405180910390fd5b8073ffffffffffffffffffffffffffffffffffffffff166000809054906101000a900473ffffffffffffffffffffffffffffffffffffffff1673ffffffffffffffffffffffffffffffffffffffff167f8be0079c531659141344cd1fd0a4f28419497f9722a3daafe3b4186f6b6457e060405160405180910390a3806000806101000a81548173ffffffffffffffffffffffffffffffffffffffff021916908373ffffffffffffffffffffffffffffffffffffffff16021790555050565b6000838311158290612155576040517f08c379a00000000000000000000000000000000000000000000000000000000081526004018080602001828103825283818151815260200191508051906020019080838360005b8381101561211a5780820151818401526020810190506120ff565b50505050905090810190601f1680156121475780820380516001836020036101000a031916815260200191505b509250505060405180910390fd5b5060008385039050809150509392505050565b60008083118290612214576040517f08c379a00000000000000000000000000000000000000000000000000000000081526004018080602001828103825283818151815260200191508051906020019080838360005b838110156121d95780820151818401526020810190506121be565b50505050905090810190601f1680156122065780820380516001836020036101000a031916815260200191505b509250505060405180910390fd5b50600083858161222057fe5b049050809150509392505050565b61224d8273ffffffffffffffffffffffffffffffffffffffff16612479565b6122bf576040517f08c379a000000000000000000000000000000000000000000000000000000000815260040180806020018281038252601f8152602001807f5361666545524332303a2063616c6c20746f206e6f6e2d636f6e74726163740081525060200191505060405180910390fd5b600060608373ffffffffffffffffffffffffffffffffffffffff16836040518082805190602001908083835b6020831061230e57805182526020820191506020810190506020830392506122eb565b6001836020036101000a0380198251168184511680821785525050505050509050019150506000604051808303816000865af19150503d8060008114612370576040519150601f19603f3d011682016040523d82523d6000602084013e612375565b606091505b5091509150816123ed576040517f08c379a00000000000000000000000000000000000000000000000000000000081526004018080602001828103825260208152602001807f5361666545524332303a206c6f772d6c6576656c2063616c6c206661696c656481525060200191505060405180910390fd5b6000815111156124735780806020019051602081101561240c57600080fd5b8101908080519060200190929190505050612472576040517f08c379a000000000000000000000000000000000000000000000000000000000815260040180806020018281038252602a815260200180612542602a913960400191505060405180910390fd5b5b50505050565b60008060007fc5d2460186f7233c927e7db2dcc703c0e500b653ca82273b7bfad8045d85a47060001b9050833f91508082141580156124bb57506000801b8214155b92505050919050565b6040518060c00160405280600081526020016000815260200160008152602001600081526020016000815260200160008152509056fe4f776e61626c653a206e6577206f776e657220697320746865207a65726f2061646472657373536166654d6174683a206d756c7469706c69636174696f6e206f766572666c6f775361666545524332303a204552433230206f7065726174696f6e20646964206e6f742073756363656564a2646970667358221220d05fadc111506a26bc6fb8b1c03f21d7f7e882fd5c8582a4dbe68495284dd9ba64736f6c63430006020033",
  "source": "pragma solidity >=0.6.0;\r\n\r\nimport \"@openzeppelin/contracts/token/ERC20/SafeERC20.sol\";\r\nimport \"@openzeppelin/contracts/math/SafeMath.sol\";\r\nimport \"@openzeppelin/contracts/ownership/Ownable.sol\";\r\n\r\ncontract CorgibStaking is Ownable {\r\n    string public name = \"Corgi Of PolkaBridge: Staking\";\r\n    using SafeMath for uint256;\r\n    using SafeERC20 for IERC20;\r\n    uint256 public MinimumStakeAmount;\r\n\r\n    struct UserInfo {\r\n        uint256 amount;\r\n        uint256 rewardDebt;\r\n        uint256 rewardClaimed;\r\n        uint256 lastBlock;\r\n        uint256 beginTime;\r\n        uint256 endTime;\r\n    }\r\n\r\n    // Info of each pool.\r\n    struct PoolInfo {\r\n        IERC20 stakeToken;\r\n        IERC20 rewardToken;\r\n        uint256 allocPoint;\r\n        uint256 lastRewardBlock;\r\n        uint256 accTokenPerShare;\r\n        uint256 rewardPerBlock;\r\n        uint256 totalTokenStaked;\r\n        uint256 totalTokenClaimed;\r\n        uint256 endDate;\r\n    }\r\n\r\n    // Info of each pool.\r\n    PoolInfo[] private poolInfo;\r\n\r\n    mapping(uint256 => mapping(address => UserInfo)) public userInfo;\r\n    uint256 public totalUser;\r\n\r\n    // The block number when staking  starts.\r\n    uint256 public startBlock;\r\n\r\n    event Deposit(address indexed user, uint256 indexed pid, uint256 amount);\r\n    event Withdraw(address indexed user, uint256 indexed pid, uint256 amount);\r\n    event EmergencyWithdraw(\r\n        address indexed user,\r\n        uint256 indexed pid,\r\n        uint256 amount\r\n    );\r\n\r\n    constructor(uint256 _startBlock) public {\r\n        startBlock = _startBlock;\r\n        MinimumStakeAmount = 100000000 * 1e18;\r\n    }\r\n\r\n    function changeMinimumStakeAmount(uint256 _amount) public onlyOwner {\r\n        MinimumStakeAmount = _amount;\r\n    }\r\n\r\n    function poolLength() external view returns (uint256) {\r\n        return poolInfo.length;\r\n    }\r\n\r\n    function addPool(\r\n        uint256 _allocPoint,\r\n        IERC20 _stakeToken,\r\n        IERC20 _rewardToken,\r\n        uint256 _rewardPerBlock,\r\n        uint256 _endDate,\r\n        bool _withUpdate\r\n    ) public onlyOwner {\r\n        if (_withUpdate) {\r\n            massUpdatePools();\r\n        }\r\n        uint256 _lastRewardBlock =\r\n            block.number > startBlock ? block.number : startBlock;\r\n\r\n        poolInfo.push(\r\n            PoolInfo({\r\n                stakeToken: _stakeToken,\r\n                rewardToken: _rewardToken,\r\n                allocPoint: _allocPoint,\r\n                lastRewardBlock: _lastRewardBlock,\r\n                accTokenPerShare: 0,\r\n                rewardPerBlock: _rewardPerBlock,\r\n                totalTokenStaked: 0,\r\n                totalTokenClaimed: 0,\r\n                endDate: _endDate\r\n            })\r\n        );\r\n    }\r\n\r\n    function setPool(\r\n        uint256 _pid,\r\n        uint256 _allocPoint,\r\n        uint256 _rewardPerBlock,\r\n        uint256 _endDate,\r\n        bool _withUpdate\r\n    ) public onlyOwner {\r\n        if (_withUpdate) {\r\n            massUpdatePools();\r\n        }\r\n        if (_allocPoint > 0) {\r\n            poolInfo[_pid].allocPoint = _allocPoint;\r\n        }\r\n        if (_rewardPerBlock > 0) {\r\n            poolInfo[_pid].rewardPerBlock = _rewardPerBlock;\r\n        }\r\n        if (_endDate > 0) {\r\n            poolInfo[_pid].endDate = _endDate;\r\n        }\r\n    }\r\n\r\n    // Return reward multiplier over the given _from to _to block.\r\n    function getMultiplier(uint256 _fromBlock, uint256 _toBlock)\r\n        public\r\n        view\r\n        returns (uint256)\r\n    {\r\n        return _toBlock.sub(_fromBlock);\r\n    }\r\n\r\n    function getTotalTokenStaked(uint256 _pid) public view returns (uint256) {\r\n        PoolInfo storage pool = poolInfo[_pid];\r\n        return pool.totalTokenStaked;\r\n    }\r\n\r\n    function pendingReward(uint256 _pid, address _user)\r\n        external\r\n        view\r\n        returns (uint256)\r\n    {\r\n        PoolInfo storage pool = poolInfo[_pid];\r\n        UserInfo storage user = userInfo[_pid][_user];\r\n        uint256 accTokenPerShare = pool.accTokenPerShare;\r\n        uint256 totalTokenStaked = getTotalTokenStaked(_pid);\r\n\r\n        if (block.number > pool.lastRewardBlock && totalTokenStaked > 0) {\r\n            uint256 multiplier =\r\n                getMultiplier(pool.lastRewardBlock, block.number); //number diff block\r\n            uint256 tokenReward = multiplier.mul(pool.rewardPerBlock);\r\n\r\n            accTokenPerShare = accTokenPerShare.add(\r\n                tokenReward.mul(1e18).div(totalTokenStaked)\r\n            );\r\n        }\r\n        return user.amount.mul(accTokenPerShare).div(1e18).sub(user.rewardDebt);\r\n    }\r\n\r\n    // Update reward variables for all pools. Be careful of gas spending!\r\n    function massUpdatePools() public {\r\n        uint256 length = poolInfo.length;\r\n        for (uint256 pid = 0; pid < length; ++pid) {\r\n            updatePool(pid);\r\n        }\r\n    }\r\n\r\n    // Update reward variables of the given pool to be up-to-date.\r\n    function updatePool(uint256 _pid) public {\r\n        PoolInfo storage pool = poolInfo[_pid];\r\n        if (block.number <= pool.lastRewardBlock) {\r\n            return;\r\n        }\r\n        uint256 totalTokenStaked = getTotalTokenStaked(_pid);\r\n\r\n        if (totalTokenStaked == 0 || pool.allocPoint == 0) {\r\n            pool.lastRewardBlock = block.number;\r\n            return;\r\n        }\r\n\r\n        uint256 multiplier = getMultiplier(pool.lastRewardBlock, block.number);\r\n        uint256 tokenReward = multiplier.mul(pool.rewardPerBlock);\r\n\r\n        pool.accTokenPerShare = pool.accTokenPerShare.add(\r\n            tokenReward.mul(1e18).div(totalTokenStaked)\r\n        );\r\n        pool.lastRewardBlock = block.number;\r\n    }\r\n\r\n    function deposit(uint256 _pid, uint256 _amount) public {\r\n        PoolInfo storage pool = poolInfo[_pid];\r\n        UserInfo storage user = userInfo[_pid][msg.sender];\r\n        require(block.timestamp < pool.endDate, \"staking pool already closed\");\r\n        require(\r\n            _amount >= MinimumStakeAmount,\r\n            \"does not meet the minimum amount\"\r\n        );\r\n\r\n        updatePool(_pid);\r\n\r\n        if (user.amount > 0) {\r\n            uint256 pending =\r\n                user.amount.mul(pool.accTokenPerShare).div(1e18).sub(\r\n                    user.rewardDebt\r\n                );\r\n            if (pending > 0) {\r\n                safeTokenTransfer(msg.sender, pending, _pid);\r\n                pool.totalTokenClaimed = pool.totalTokenClaimed.add(pending);\r\n                user.rewardClaimed = user.rewardClaimed.add(pending);\r\n            }\r\n        } else {\r\n            //new user, or old user unstake all before\r\n            totalUser = totalUser.add(1);\r\n            user.beginTime = block.timestamp;\r\n            user.endTime = 0; //reset endtime\r\n        }\r\n        if (_amount > 0) {\r\n            pool.stakeToken.safeTransferFrom(\r\n                address(msg.sender),\r\n                address(this),\r\n                _amount\r\n            );\r\n            user.amount = user.amount.add(_amount);\r\n            pool.totalTokenStaked = pool.totalTokenStaked.add(_amount);\r\n        }\r\n        user.rewardDebt = user.amount.mul(pool.accTokenPerShare).div(1e18);\r\n        user.lastBlock = block.number;\r\n        emit Deposit(msg.sender, _pid, _amount);\r\n    }\r\n\r\n    function withdraw(uint256 _pid, uint256 _amount) public {\r\n        PoolInfo storage pool = poolInfo[_pid];\r\n        UserInfo storage user = userInfo[_pid][msg.sender];\r\n        require(user.amount >= _amount, \"withdraw: bad request\");\r\n        updatePool(_pid);\r\n        uint256 pending =\r\n            user.amount.mul(pool.accTokenPerShare).div(1e18).sub(\r\n                user.rewardDebt\r\n            );\r\n        if (pending > 0) {\r\n            safeTokenTransfer(msg.sender, pending, _pid);\r\n            pool.totalTokenClaimed = pool.totalTokenClaimed.add(pending);\r\n            user.rewardClaimed = user.rewardClaimed.add(pending);\r\n        }\r\n        if (_amount > 0) {\r\n            user.amount = user.amount.sub(_amount);\r\n            if (user.amount == 0) {\r\n                user.endTime = block.timestamp;\r\n            }\r\n            pool.totalTokenStaked = pool.totalTokenStaked.sub(_amount);\r\n\r\n            pool.stakeToken.safeTransfer(address(msg.sender), _amount);\r\n        }\r\n        user.rewardDebt = user.amount.mul(pool.accTokenPerShare).div(1e18);\r\n        user.lastBlock = block.number;\r\n        emit Withdraw(msg.sender, _pid, _amount);\r\n    }\r\n\r\n    function emergencyWithdraw(uint256 _pid) public {\r\n        PoolInfo storage pool = poolInfo[_pid];\r\n        UserInfo storage user = userInfo[_pid][msg.sender];\r\n        uint256 amount = user.amount;\r\n        user.amount = 0;\r\n        user.rewardDebt = 0;\r\n        pool.stakeToken.safeTransfer(address(msg.sender), amount);\r\n        emit EmergencyWithdraw(msg.sender, _pid, amount);\r\n    }\r\n\r\n    function safeTokenTransfer(\r\n        address _to,\r\n        uint256 _amount,\r\n        uint256 _pid\r\n    ) internal {\r\n        PoolInfo storage pool = poolInfo[_pid];\r\n        uint256 totalPoolReward = pool.allocPoint;\r\n\r\n        if (_amount > totalPoolReward) {\r\n            pool.rewardToken.transfer(_to, totalPoolReward);\r\n        } else {\r\n            pool.rewardToken.transfer(_to, _amount);\r\n        }\r\n    }\r\n\r\n    function getPoolInfo(uint256 _pid)\r\n        public\r\n        view\r\n        returns (\r\n            uint256,\r\n            uint256,\r\n            uint256,\r\n            uint256,\r\n            uint256\r\n        )\r\n    {\r\n        return (\r\n            poolInfo[_pid].accTokenPerShare,\r\n            poolInfo[_pid].lastRewardBlock,\r\n            poolInfo[_pid].rewardPerBlock,\r\n            poolInfo[_pid].totalTokenStaked,\r\n            poolInfo[_pid].totalTokenClaimed\r\n        );\r\n    }\r\n\r\n    function getDiffBlock(address user, uint256 pid)\r\n        public\r\n        view\r\n        returns (uint256)\r\n    {\r\n        UserInfo memory user = userInfo[pid][user];\r\n        return block.number.sub(user.lastBlock);\r\n    }\r\n}\r\n",
  "sourcePath": "C:\\Users\\Thanh Phi\\Desktop\\PolkaBridgeSolution\\polkawar\\polkawar-contract\\contracts\\CorgibStaking.sol",
  "compiler": {
    "name": "solc",
    "version": "0.6.2+commit.bacdbe57.Emscripten.clang"
  },
  "schemaVersion": "3.4.3",
  "updatedAt": "2021-11-05T07:19:04.974Z",
  "devdoc": {
    "methods": {
      "isOwner()": {
        "details": "Returns true if the caller is the current owner."
      },
      "owner()": {
        "details": "Returns the address of the current owner."
      },
      "renounceOwnership()": {
        "details": "Leaves the contract without owner. It will not be possible to call `onlyOwner` functions anymore. Can only be called by the current owner.     * NOTE: Renouncing ownership will leave the contract without an owner, thereby removing any functionality that is only available to the owner."
      },
      "transferOwnership(address)": {
        "details": "Transfers ownership of the contract to a new account (`newOwner`). Can only be called by the current owner."
      }
    }
  },
  "userdoc": {
    "methods": {}
  }
}