{
  "contractName": "PolkaWarClaimXP",
  "abi": [
    {
      "inputs": [
        {
          "internalType": "contract PolkaWar",
          "name": "_polkaWar",
          "type": "address"
        },
        {
          "internalType": "contract CorgibStaking",
          "name": "_staking",
          "type": "address"
        },
        {
          "internalType": "address payable",
          "name": "_fundOwner",
          "type": "address"
        },
        {
          "internalType": "address payable",
          "name": "_marketingFund",
          "type": "address"
        }
      ],
      "stateMutability": "nonpayable",
      "type": "constructor"
    },
    {
      "anonymous": false,
      "inputs": [
        {
          "indexed": true,
          "internalType": "address",
          "name": "previousOwner",
          "type": "address"
        },
        {
          "indexed": true,
          "internalType": "address",
          "name": "newOwner",
          "type": "address"
        }
      ],
      "name": "OwnershipTransferred",
      "type": "event"
    },
    {
      "anonymous": false,
      "inputs": [
        {
          "indexed": false,
          "internalType": "address",
          "name": "_user",
          "type": "address"
        },
        {
          "indexed": false,
          "internalType": "uint256",
          "name": "_totalPWAR",
          "type": "uint256"
        },
        {
          "indexed": false,
          "internalType": "uint256",
          "name": "_numberClaim",
          "type": "uint256"
        },
        {
          "indexed": false,
          "internalType": "uint256",
          "name": "_timeStamp",
          "type": "uint256"
        }
      ],
      "name": "claimXPEvent",
      "type": "event"
    },
    {
      "inputs": [
        {
          "internalType": "uint256",
          "name": "",
          "type": "uint256"
        }
      ],
      "name": "arrParticipants",
      "outputs": [
        {
          "internalType": "address",
          "name": "",
          "type": "address"
        }
      ],
      "stateMutability": "view",
      "type": "function"
    },
    {
      "inputs": [],
      "name": "baseAmount",
      "outputs": [
        {
          "internalType": "uint256",
          "name": "",
          "type": "uint256"
        }
      ],
      "stateMutability": "view",
      "type": "function"
    },
    {
      "inputs": [],
      "name": "baseXP",
      "outputs": [
        {
          "internalType": "uint256",
          "name": "",
          "type": "uint256"
        }
      ],
      "stateMutability": "view",
      "type": "function"
    },
    {
      "inputs": [],
      "name": "burnPercent",
      "outputs": [
        {
          "internalType": "uint256",
          "name": "",
          "type": "uint256"
        }
      ],
      "stateMutability": "view",
      "type": "function"
    },
    {
      "inputs": [],
      "name": "devPercent",
      "outputs": [
        {
          "internalType": "uint256",
          "name": "",
          "type": "uint256"
        }
      ],
      "stateMutability": "view",
      "type": "function"
    },
    {
      "inputs": [],
      "name": "isOwner",
      "outputs": [
        {
          "internalType": "bool",
          "name": "",
          "type": "bool"
        }
      ],
      "stateMutability": "view",
      "type": "function"
    },
    {
      "inputs": [],
      "name": "marketingPercent",
      "outputs": [
        {
          "internalType": "uint256",
          "name": "",
          "type": "uint256"
        }
      ],
      "stateMutability": "view",
      "type": "function"
    },
    {
      "inputs": [],
      "name": "maxClaimNumber",
      "outputs": [
        {
          "internalType": "uint256",
          "name": "",
          "type": "uint256"
        }
      ],
      "stateMutability": "view",
      "type": "function"
    },
    {
      "inputs": [],
      "name": "minimumHolding",
      "outputs": [
        {
          "internalType": "uint256",
          "name": "",
          "type": "uint256"
        }
      ],
      "stateMutability": "view",
      "type": "function"
    },
    {
      "inputs": [],
      "name": "name",
      "outputs": [
        {
          "internalType": "string",
          "name": "",
          "type": "string"
        }
      ],
      "stateMutability": "view",
      "type": "function"
    },
    {
      "inputs": [],
      "name": "owner",
      "outputs": [
        {
          "internalType": "address",
          "name": "",
          "type": "address"
        }
      ],
      "stateMutability": "view",
      "type": "function"
    },
    {
      "inputs": [
        {
          "internalType": "address",
          "name": "",
          "type": "address"
        }
      ],
      "name": "participants",
      "outputs": [
        {
          "internalType": "uint256",
          "name": "numberClaimed",
          "type": "uint256"
        },
        {
          "internalType": "uint256",
          "name": "totalXPClaimed",
          "type": "uint256"
        },
        {
          "internalType": "uint256",
          "name": "lastClaimed",
          "type": "uint256"
        },
        {
          "internalType": "uint256",
          "name": "characterLevel",
          "type": "uint256"
        }
      ],
      "stateMutability": "view",
      "type": "function"
    },
    {
      "inputs": [],
      "name": "renounceOwnership",
      "outputs": [],
      "stateMutability": "nonpayable",
      "type": "function"
    },
    {
      "inputs": [
        {
          "internalType": "address",
          "name": "newOwner",
          "type": "address"
        }
      ],
      "name": "transferOwnership",
      "outputs": [],
      "stateMutability": "nonpayable",
      "type": "function"
    },
    {
      "stateMutability": "payable",
      "type": "receive"
    },
    {
      "inputs": [
        {
          "internalType": "uint256",
          "name": "_beginDate",
          "type": "uint256"
        },
        {
          "internalType": "uint256",
          "name": "_endDate",
          "type": "uint256"
        },
        {
          "internalType": "uint256",
          "name": "_minimumHolding",
          "type": "uint256"
        },
        {
          "internalType": "uint256",
          "name": "_baseAmount",
          "type": "uint256"
        },
        {
          "internalType": "uint256",
          "name": "_maxClaimNumber",
          "type": "uint256"
        },
        {
          "internalType": "uint256",
          "name": "_baseXP",
          "type": "uint256"
        },
        {
          "internalType": "uint256",
          "name": "_devPercent",
          "type": "uint256"
        },
        {
          "internalType": "uint256",
          "name": "_marketingPercent",
          "type": "uint256"
        },
        {
          "internalType": "uint256",
          "name": "_burnPercent",
          "type": "uint256"
        }
      ],
      "name": "changeConstant",
      "outputs": [],
      "stateMutability": "nonpayable",
      "type": "function"
    },
    {
      "inputs": [
        {
          "internalType": "uint256",
          "name": "characterLevel",
          "type": "uint256"
        }
      ],
      "name": "claimXP",
      "outputs": [],
      "stateMutability": "nonpayable",
      "type": "function"
    },
    {
      "inputs": [
        {
          "internalType": "address",
          "name": "_user",
          "type": "address"
        }
      ],
      "name": "getCycleTimeClaim",
      "outputs": [
        {
          "internalType": "uint256",
          "name": "",
          "type": "uint256"
        }
      ],
      "stateMutability": "view",
      "type": "function"
    },
    {
      "inputs": [
        {
          "internalType": "address",
          "name": "user",
          "type": "address"
        }
      ],
      "name": "getNumberClaim",
      "outputs": [
        {
          "internalType": "uint256",
          "name": "",
          "type": "uint256"
        }
      ],
      "stateMutability": "view",
      "type": "function"
    },
    {
      "inputs": [],
      "name": "getTotalParticipants",
      "outputs": [
        {
          "internalType": "uint256",
          "name": "",
          "type": "uint256"
        }
      ],
      "stateMutability": "view",
      "type": "function"
    },
    {
      "inputs": [
        {
          "internalType": "address",
          "name": "user",
          "type": "address"
        }
      ],
      "name": "getNumberHoldingOrStaking",
      "outputs": [
        {
          "internalType": "uint256",
          "name": "",
          "type": "uint256"
        }
      ],
      "stateMutability": "view",
      "type": "function"
    },
    {
      "inputs": [
        {
          "internalType": "address",
          "name": "user",
          "type": "address"
        },
        {
          "internalType": "uint256",
          "name": "poolId",
          "type": "uint256"
        }
      ],
      "name": "getUserStakingData",
      "outputs": [
        {
          "internalType": "uint256",
          "name": "amount",
          "type": "uint256"
        },
        {
          "internalType": "uint256",
          "name": "rewardDebt",
          "type": "uint256"
        },
        {
          "internalType": "uint256",
          "name": "rewardClaimed",
          "type": "uint256"
        },
        {
          "internalType": "uint256",
          "name": "lastBlock",
          "type": "uint256"
        },
        {
          "internalType": "uint256",
          "name": "beginTime",
          "type": "uint256"
        },
        {
          "internalType": "uint256",
          "name": "endTime",
          "type": "uint256"
        }
      ],
      "stateMutability": "view",
      "type": "function"
    },
    {
      "inputs": [
        {
          "internalType": "contract IERC20",
          "name": "token",
          "type": "address"
        }
      ],
      "name": "withdrawToken",
      "outputs": [],
      "stateMutability": "nonpayable",
      "type": "function"
    },
    {
      "inputs": [],
      "name": "withdrawPoolFund",
      "outputs": [],
      "stateMutability": "nonpayable",
      "type": "function"
    }
  ],
  "bytecode": "0x60806040526040518060400160405280601181526020017f506f6c6b615761723a20436c61696d58500000000000000000000000000000008152506002908051906020019062000051929190620002af565b503480156200005f57600080fd5b5060405162002713380380620027138339818101604052620000859190810190620003a3565b600062000097620002a760201b60201c565b9050806000806101000a81548173ffffffffffffffffffffffffffffffffffffffff021916908373ffffffffffffffffffffffffffffffffffffffff1602179055508073ffffffffffffffffffffffffffffffffffffffff16600073ffffffffffffffffffffffffffffffffffffffff167f8be0079c531659141344cd1fd0a4f28419497f9722a3daafe3b4186f6b6457e060405160405180910390a3506001808190555083600360006101000a81548173ffffffffffffffffffffffffffffffffffffffff021916908373ffffffffffffffffffffffffffffffffffffffff16021790555082600460006101000a81548173ffffffffffffffffffffffffffffffffffffffff021916908373ffffffffffffffffffffffffffffffffffffffff16021790555081600560006101000a81548173ffffffffffffffffffffffffffffffffffffffff021916908373ffffffffffffffffffffffffffffffffffffffff16021790555080600660006101000a81548173ffffffffffffffffffffffffffffffffffffffff021916908373ffffffffffffffffffffffffffffffffffffffff160217905550686c6b935b8bbd400000600981905550678ac7230489e80000600a81905550636124fb6060078190555063617f2e00600881905550603c600c81905550600a600b81905550600a600d819055506032600e819055506028600f8190555050505050620004cd565b600033905090565b828054600181600116156101000203166002900490600052602060002090601f016020900481019282601f10620002f257805160ff191683800117855562000323565b8280016001018555821562000323579182015b828111156200032257825182559160200191906001019062000305565b5b50905062000332919062000336565b5090565b6200035b91905b80821115620003575760008160009055506001016200033d565b5090565b90565b6000815190506200036f816200047f565b92915050565b600081519050620003868162000499565b92915050565b6000815190506200039d81620004b3565b92915050565b60008060008060808587031215620003ba57600080fd5b6000620003ca878288016200038c565b9450506020620003dd8782880162000375565b9350506040620003f0878288016200035e565b925050606062000403878288016200035e565b91505092959194509250565b60006200041c826200045f565b9050919050565b600062000430826200045f565b9050919050565b600062000444826200040f565b9050919050565b600062000458826200040f565b9050919050565b600073ffffffffffffffffffffffffffffffffffffffff82169050919050565b6200048a8162000423565b81146200049657600080fd5b50565b620004a48162000437565b8114620004b057600080fd5b50565b620004be816200044b565b8114620004ca57600080fd5b50565b61223680620004dd6000396000f3fe6080604052600436106101445760003560e01c80637e494877116100b6578063cd2c934a1161006f578063cd2c934a1461044d578063d8020a181461048a578063d8c67f9f146104b5578063e274a917146104e0578063f2fde38b1461051d578063fc3c28af146105465761014b565b80637e4948771461033b57806389476069146103785780638da5cb5b146103a15780638f32d59b146103cc57806398e08f44146103f7578063a90cc445146104225761014b565b80632234b7d7116101085780632234b7d71461023f5780634864d140146102685780636219ea51146102935780636250301c146102bc57806368130fd1146102f9578063715018a6146103245761014b565b806303807ee51461015057806306fdde031461017b57806309e69ede146101a65780630b17c673146101e65780631f4552cb146102285761014b565b3661014b57005b600080fd5b34801561015c57600080fd5b50610165610571565b6040516101729190611fbf565b60405180910390f35b34801561018757600080fd5b50610190610577565b60405161019d9190611e3b565b60405180910390f35b3480156101b257600080fd5b506101cd60048036036101c8919081019061174d565b610615565b6040516101dd9493929190612003565b60405180910390f35b3480156101f257600080fd5b5061020d60048036036102089190810190611776565b610645565b60405161021f96959493929190612048565b60405180910390f35b34801561023457600080fd5b5061023d610711565b005b34801561024b57600080fd5b5061026660048036036102619190810190611804565b61080c565b005b34801561027457600080fd5b5061027d610d45565b60405161028a9190611fbf565b60405180910390f35b34801561029f57600080fd5b506102ba60048036036102b591908101906118df565b610d4b565b005b3480156102c857600080fd5b506102e360048036036102de919081019061174d565b610e36565b6040516102f09190611fbf565b60405180910390f35b34801561030557600080fd5b5061030e610e82565b60405161031b9190611fbf565b60405180910390f35b34801561033057600080fd5b50610339610e88565b005b34801561034757600080fd5b50610362600480360361035d919081019061174d565b610f8e565b60405161036f9190611fbf565b60405180910390f35b34801561038457600080fd5b5061039f600480360361039a91908101906117db565b61107f565b005b3480156103ad57600080fd5b506103b66111e6565b6040516103c39190611d45565b60405180910390f35b3480156103d857600080fd5b506103e161120f565b6040516103ee9190611e20565b60405180910390f35b34801561040357600080fd5b5061040c61126d565b6040516104199190611fbf565b60405180910390f35b34801561042e57600080fd5b50610437611273565b6040516104449190611fbf565b60405180910390f35b34801561045957600080fd5b50610474600480360361046f9190810190611804565b611280565b6040516104819190611d45565b60405180910390f35b34801561049657600080fd5b5061049f6112bc565b6040516104ac9190611fbf565b60405180910390f35b3480156104c157600080fd5b506104ca6112c2565b6040516104d79190611fbf565b60405180910390f35b3480156104ec57600080fd5b506105076004803603610502919081019061174d565b6112c8565b6040516105149190611fbf565b60405180910390f35b34801561052957600080fd5b50610544600480360361053f919081019061174d565b611340565b005b34801561055257600080fd5b5061055b611393565b6040516105689190611fbf565b60405180910390f35b600f5481565b60028054600181600116156101000203166002900480601f01602080910402602001604051908101604052809291908181526020018280546001816001161561010002031660029004801561060d5780601f106105e25761010080835404028352916020019161060d565b820191906000526020600020905b8154815290600101906020018083116105f057829003601f168201915b505050505081565b60106020528060005260406000206000915090508060000154908060010154908060020154908060030154905084565b600080600080600080600460009054906101000a900473ffffffffffffffffffffffffffffffffffffffff1673ffffffffffffffffffffffffffffffffffffffff166393f1a40b888a6040518363ffffffff1660e01b81526004016106ab929190611fda565b60c06040518083038186803b1580156106c357600080fd5b505afa1580156106d7573d6000803e3d6000fd5b505050506040513d601f19601f820116820180604052506106fb9190810190611856565b9550955095509550955095509295509295509295565b61071961120f565b610758576040517f08c379a000000000000000000000000000000000000000000000000000000000815260040161074f90611f5f565b60405180910390fd5b6000479050600081116107a0576040517f08c379a000000000000000000000000000000000000000000000000000000000815260040161079790611e7f565b60405180910390fd5b600560009054906101000a900473ffffffffffffffffffffffffffffffffffffffff1673ffffffffffffffffffffffffffffffffffffffff166108fc829081150290604051600060405180830381858888f19350505050158015610808573d6000803e3d6000fd5b5050565b60026001541415610852576040517f08c379a000000000000000000000000000000000000000000000000000000000815260040161084990611f7f565b60405180910390fd5b60026001819055506000601060003373ffffffffffffffffffffffffffffffffffffffff1673ffffffffffffffffffffffffffffffffffffffff168152602001908152602001600020905060075442101580156108b157506008544211155b6108f0576040517f08c379a00000000000000000000000000000000000000000000000000000000081526004016108e790611f9f565b60405180910390fd5b60006108fb336112c8565b1161093b576040517f08c379a000000000000000000000000000000000000000000000000000000000815260040161093290611edf565b60405180910390fd5b600c54816000015410610983576040517f08c379a000000000000000000000000000000000000000000000000000000000815260040161097a90611f3f565b60405180910390fd5b600061098e33610f8e565b90506009548110156109d5576040517f08c379a00000000000000000000000000000000000000000000000000000000081526004016109cc90611eff565b60405180910390fd5b6109ed6001836000015461139990919063ffffffff16565b82600001819055506000610a108360000154600a546113ee90919063ffffffff16565b9050600360009054906101000a900473ffffffffffffffffffffffffffffffffffffffff1673ffffffffffffffffffffffffffffffffffffffff166323b872dd33600560009054906101000a900473ffffffffffffffffffffffffffffffffffffffff16610a9c6064610a8e600d54886113ee90919063ffffffff16565b61145e90919063ffffffff16565b6040518463ffffffff1660e01b8152600401610aba93929190611dc0565b602060405180830381600087803b158015610ad457600080fd5b505af1158015610ae8573d6000803e3d6000fd5b505050506040513d601f19601f82011682018060405250610b0c91908101906117b2565b50600360009054906101000a900473ffffffffffffffffffffffffffffffffffffffff1673ffffffffffffffffffffffffffffffffffffffff166323b872dd33600660009054906101000a900473ffffffffffffffffffffffffffffffffffffffff16610b976064610b89600e54886113ee90919063ffffffff16565b61145e90919063ffffffff16565b6040518463ffffffff1660e01b8152600401610bb593929190611dc0565b602060405180830381600087803b158015610bcf57600080fd5b505af1158015610be3573d6000803e3d6000fd5b505050506040513d601f19601f82011682018060405250610c0791908101906117b2565b50600360009054906101000a900473ffffffffffffffffffffffffffffffffffffffff1673ffffffffffffffffffffffffffffffffffffffff166379cc679033610c6f6064610c61600f54876113ee90919063ffffffff16565b61145e90919063ffffffff16565b6040518363ffffffff1660e01b8152600401610c8c929190611df7565b600060405180830381600087803b158015610ca657600080fd5b505af1158015610cba573d6000803e3d6000fd5b50505050428360020181905550838360030181905550610cef600b54846000015402846001015461139990919063ffffffff16565b83600101819055507ff902ec8e274bbc91ec7c661097eca75c43746d318dad070a7845710d50f0fe6d3382856000015442604051610d309493929190611d7b565b60405180910390a15050506001808190555050565b600a5481565b610d5361120f565b610d92576040517f08c379a0000000000000000000000000000000000000000000000000000000008152600401610d8990611f5f565b60405180910390fd5b6000891115610da357886007819055505b6000881115610db457876008819055505b6000871115610dc557866009819055505b6000861115610dd65785600a819055505b6000851115610de75784600c819055505b6000841115610df85783600b819055505b6000831115610e095782600d819055505b6000811115610e1a5780600f819055505b6000821115610e2b5781600e819055505b505050505050505050565b6000601060003373ffffffffffffffffffffffffffffffffffffffff1673ffffffffffffffffffffffffffffffffffffffff168152602001908152602001600020600001549050919050565b600b5481565b610e9061120f565b610ecf576040517f08c379a0000000000000000000000000000000000000000000000000000000008152600401610ec690611f5f565b60405180910390fd5b600073ffffffffffffffffffffffffffffffffffffffff166000809054906101000a900473ffffffffffffffffffffffffffffffffffffffff1673ffffffffffffffffffffffffffffffffffffffff167f8be0079c531659141344cd1fd0a4f28419497f9722a3daafe3b4186f6b6457e060405160405180910390a360008060006101000a81548173ffffffffffffffffffffffffffffffffffffffff021916908373ffffffffffffffffffffffffffffffffffffffff160217905550565b600080600360009054906101000a900473ffffffffffffffffffffffffffffffffffffffff1673ffffffffffffffffffffffffffffffffffffffff166370a08231846040518263ffffffff1660e01b8152600401610fec9190611d45565b60206040518083038186803b15801561100457600080fd5b505afa158015611018573d6000803e3d6000fd5b505050506040513d601f19601f8201168201806040525061103c919081019061182d565b9050600080600080600080611052896001610645565b955095509550955095509550611071868861139990919063ffffffff16565b975050505050505050919050565b61108761120f565b6110c6576040517f08c379a00000000000000000000000000000000000000000000000000000000081526004016110bd90611f5f565b60405180910390fd5b8073ffffffffffffffffffffffffffffffffffffffff1663a9059cbb6110ea6111e6565b8373ffffffffffffffffffffffffffffffffffffffff166370a08231306040518263ffffffff1660e01b81526004016111239190611d60565b60206040518083038186803b15801561113b57600080fd5b505afa15801561114f573d6000803e3d6000fd5b505050506040513d601f19601f82011682018060405250611173919081019061182d565b6040518363ffffffff1660e01b8152600401611190929190611df7565b602060405180830381600087803b1580156111aa57600080fd5b505af11580156111be573d6000803e3d6000fd5b505050506040513d601f19601f820116820180604052506111e291908101906117b2565b5050565b60008060009054906101000a900473ffffffffffffffffffffffffffffffffffffffff16905090565b60008060009054906101000a900473ffffffffffffffffffffffffffffffffffffffff1673ffffffffffffffffffffffffffffffffffffffff166112516114a8565b73ffffffffffffffffffffffffffffffffffffffff1614905090565b60095481565b6000601180549050905090565b6011818154811061128d57fe5b906000526020600020016000915054906101000a900473ffffffffffffffffffffffffffffffffffffffff1681565b600e5481565b600c5481565b600080601060003373ffffffffffffffffffffffffffffffffffffffff1673ffffffffffffffffffffffffffffffffffffffff16815260200190815260200160002090506113386201437061132a8360020154426114b090919063ffffffff16565b61145e90919063ffffffff16565b915050919050565b61134861120f565b611387576040517f08c379a000000000000000000000000000000000000000000000000000000000815260040161137e90611f5f565b60405180910390fd5b611390816114fa565b50565b600d5481565b6000808284019050838110156113e4576040517f08c379a00000000000000000000000000000000000000000000000000000000081526004016113db90611ebf565b60405180910390fd5b8091505092915050565b6000808314156114015760009050611458565b600082840290508284828161141257fe5b0414611453576040517f08c379a000000000000000000000000000000000000000000000000000000000815260040161144a90611f1f565b60405180910390fd5b809150505b92915050565b60006114a083836040518060400160405280601a81526020017f536166654d6174683a206469766973696f6e206279207a65726f000000000000815250611628565b905092915050565b600033905090565b60006114f283836040518060400160405280601e81526020017f536166654d6174683a207375627472616374696f6e206f766572666c6f770000815250611689565b905092915050565b600073ffffffffffffffffffffffffffffffffffffffff168173ffffffffffffffffffffffffffffffffffffffff16141561156a576040517f08c379a000000000000000000000000000000000000000000000000000000000815260040161156190611e9f565b60405180910390fd5b8073ffffffffffffffffffffffffffffffffffffffff166000809054906101000a900473ffffffffffffffffffffffffffffffffffffffff1673ffffffffffffffffffffffffffffffffffffffff167f8be0079c531659141344cd1fd0a4f28419497f9722a3daafe3b4186f6b6457e060405160405180910390a3806000806101000a81548173ffffffffffffffffffffffffffffffffffffffff021916908373ffffffffffffffffffffffffffffffffffffffff16021790555050565b6000808311829061166f576040517f08c379a00000000000000000000000000000000000000000000000000000000081526004016116669190611e5d565b60405180910390fd5b50600083858161167b57fe5b049050809150509392505050565b60008383111582906116d1576040517f08c379a00000000000000000000000000000000000000000000000000000000081526004016116c89190611e5d565b60405180910390fd5b5060008385039050809150509392505050565b6000813590506116f3816121a4565b92915050565b600081519050611708816121bb565b92915050565b60008135905061171d816121d2565b92915050565b600081359050611732816121e9565b92915050565b600081519050611747816121e9565b92915050565b60006020828403121561175f57600080fd5b600061176d848285016116e4565b91505092915050565b6000806040838503121561178957600080fd5b6000611797858286016116e4565b92505060206117a885828601611723565b9150509250929050565b6000602082840312156117c457600080fd5b60006117d2848285016116f9565b91505092915050565b6000602082840312156117ed57600080fd5b60006117fb8482850161170e565b91505092915050565b60006020828403121561181657600080fd5b600061182484828501611723565b91505092915050565b60006020828403121561183f57600080fd5b600061184d84828501611738565b91505092915050565b60008060008060008060c0878903121561186f57600080fd5b600061187d89828a01611738565b965050602061188e89828a01611738565b955050604061189f89828a01611738565b94505060606118b089828a01611738565b93505060806118c189828a01611738565b92505060a06118d289828a01611738565b9150509295509295509295565b60008060008060008060008060006101208a8c0312156118fe57600080fd5b600061190c8c828d01611723565b995050602061191d8c828d01611723565b985050604061192e8c828d01611723565b975050606061193f8c828d01611723565b96505060806119508c828d01611723565b95505060a06119618c828d01611723565b94505060c06119728c828d01611723565b93505060e06119838c828d01611723565b9250506101006119958c828d01611723565b9150509295985092959850929598565b6119ae8161212a565b82525050565b6119bd816120d0565b82525050565b6119cc816120e2565b82525050565b60006119dd826120b4565b6119e781856120bf565b93506119f7818560208601612160565b611a0081612193565b840191505092915050565b6000611a16826120a9565b611a2081856120bf565b9350611a30818560208601612160565b611a3981612193565b840191505092915050565b6000611a51600f836120bf565b91507f6e6f7420656e6f7567682066756e6400000000000000000000000000000000006000830152602082019050919050565b6000611a916026836120bf565b91507f4f776e61626c653a206e6577206f776e657220697320746865207a65726f206160008301527f64647265737300000000000000000000000000000000000000000000000000006020830152604082019050919050565b6000611af7601b836120bf565b91507f536166654d6174683a206164646974696f6e206f766572666c6f7700000000006000830152602082019050919050565b6000611b376019836120bf565b91507f6f6e6c7920636c61696d20312074696d652070657220646179000000000000006000830152602082019050919050565b6000611b77602e836120bf565b91507f496e73756666696369656e74206e756d626572206f662050574152207374616b60008301527f696e67206f7220686f6c64696e670000000000000000000000000000000000006020830152604082019050919050565b6000611bdd6021836120bf565b91507f536166654d6174683a206d756c7469706c69636174696f6e206f766572666c6f60008301527f77000000000000000000000000000000000000000000000000000000000000006020830152604082019050919050565b6000611c436013836120bf565b91507f7265616368206d6178696d756d20636c61696d000000000000000000000000006000830152602082019050919050565b6000611c836020836120bf565b91507f4f776e61626c653a2063616c6c6572206973206e6f7420746865206f776e65726000830152602082019050919050565b6000611cc3601f836120bf565b91507f5265656e7472616e637947756172643a207265656e7472616e742063616c6c006000830152602082019050919050565b6000611d03600c836120bf565b91507f696e76616c69642074696d6500000000000000000000000000000000000000006000830152602082019050919050565b611d3f81612120565b82525050565b6000602082019050611d5a60008301846119b4565b92915050565b6000602082019050611d7560008301846119a5565b92915050565b6000608082019050611d9060008301876119a5565b611d9d6020830186611d36565b611daa6040830185611d36565b611db76060830184611d36565b95945050505050565b6000606082019050611dd560008301866119b4565b611de260208301856119a5565b611def6040830184611d36565b949350505050565b6000604082019050611e0c60008301856119b4565b611e196020830184611d36565b9392505050565b6000602082019050611e3560008301846119c3565b92915050565b60006020820190508181036000830152611e558184611a0b565b905092915050565b60006020820190508181036000830152611e7781846119d2565b905092915050565b60006020820190508181036000830152611e9881611a44565b9050919050565b60006020820190508181036000830152611eb881611a84565b9050919050565b60006020820190508181036000830152611ed881611aea565b9050919050565b60006020820190508181036000830152611ef881611b2a565b9050919050565b60006020820190508181036000830152611f1881611b6a565b9050919050565b60006020820190508181036000830152611f3881611bd0565b9050919050565b60006020820190508181036000830152611f5881611c36565b9050919050565b60006020820190508181036000830152611f7881611c76565b9050919050565b60006020820190508181036000830152611f9881611cb6565b9050919050565b60006020820190508181036000830152611fb881611cf6565b9050919050565b6000602082019050611fd46000830184611d36565b92915050565b6000604082019050611fef6000830185611d36565b611ffc60208301846119b4565b9392505050565b60006080820190506120186000830187611d36565b6120256020830186611d36565b6120326040830185611d36565b61203f6060830184611d36565b95945050505050565b600060c08201905061205d6000830189611d36565b61206a6020830188611d36565b6120776040830187611d36565b6120846060830186611d36565b6120916080830185611d36565b61209e60a0830184611d36565b979650505050505050565b600081519050919050565b600081519050919050565b600082825260208201905092915050565b60006120db82612100565b9050919050565b60008115159050919050565b60006120f9826120d0565b9050919050565b600073ffffffffffffffffffffffffffffffffffffffff82169050919050565b6000819050919050565b60006121358261213c565b9050919050565b60006121478261214e565b9050919050565b600061215982612100565b9050919050565b60005b8381101561217e578082015181840152602081019050612163565b8381111561218d576000848401525b50505050565b6000601f19601f8301169050919050565b6121ad816120d0565b81146121b857600080fd5b50565b6121c4816120e2565b81146121cf57600080fd5b50565b6121db816120ee565b81146121e657600080fd5b50565b6121f281612120565b81146121fd57600080fd5b5056fea26469706673582212206fd3d82a7be6a1330012409721511877aefa9a6bd55a2ff47e5ad59a01a609ec64736f6c63430006020033",
  "source": "pragma solidity >=0.6.0;\r\npragma experimental ABIEncoderV2;\r\n\r\nimport \"@openzeppelin/contracts/ownership/Ownable.sol\";\r\nimport \"./ReentrancyGuard.sol\";\r\nimport \"./PolkaWarItemSystem.sol\";\r\nimport \"./PolkaWar.sol\";\r\nimport \"./CorgibStaking.sol\";\r\nimport \"@openzeppelin/contracts/math/SafeMath.sol\";\r\n\r\ncontract PolkaWarClaimXP is Ownable, ReentrancyGuard {\r\n    string public name = \"PolkaWar: ClaimXP\";\r\n    using SafeMath for uint256;\r\n\r\n    PolkaWar polkaWar;\r\n    CorgibStaking staking;\r\n    address payable private fundOwner;\r\n    address payable private marketingFund;\r\n\r\n    uint256 beginDate;\r\n    uint256 endDate;\r\n    uint256 public minimumHolding;\r\n    uint256 public baseAmount;\r\n    uint256 public baseXP;\r\n    uint256 public maxClaimNumber;\r\n\r\n    uint256 public devPercent;\r\n    uint256 public marketingPercent;\r\n    uint256 public burnPercent;\r\n\r\n    //list airdrop item\r\n    struct User {\r\n        uint256 numberClaimed;\r\n        uint256 totalXPClaimed;\r\n        uint256 lastClaimed;\r\n        uint256 characterLevel;\r\n    }\r\n\r\n    mapping(address => User) public participants;\r\n    address[] public arrParticipants; //user-tokenid\r\n\r\n    event claimXPEvent(\r\n        address _user,\r\n        uint256 _totalPWAR,\r\n        uint256 _numberClaim,\r\n        uint256 _timeStamp\r\n    );\r\n\r\n    constructor(\r\n        PolkaWar _polkaWar,\r\n        CorgibStaking _staking,\r\n        address payable _fundOwner,\r\n        address payable _marketingFund\r\n    ) public {\r\n        polkaWar = _polkaWar;\r\n        staking = _staking;\r\n        fundOwner = _fundOwner;\r\n        marketingFund = _marketingFund;\r\n        minimumHolding = 2000 * 1e18;\r\n        baseAmount = 10 * 1e18;\r\n        beginDate = 1629813600;\r\n        endDate = 1635724800;\r\n        maxClaimNumber = 60;\r\n        baseXP = 10;\r\n\r\n        devPercent = 10;\r\n        marketingPercent = 50;\r\n        burnPercent = 40;\r\n    }\r\n\r\n    function changeConstant(\r\n        uint256 _beginDate,\r\n        uint256 _endDate,\r\n        uint256 _minimumHolding,\r\n        uint256 _baseAmount,\r\n        uint256 _maxClaimNumber,\r\n        uint256 _baseXP,\r\n        uint256 _devPercent,\r\n        uint256 _marketingPercent,\r\n        uint256 _burnPercent\r\n    ) public onlyOwner {\r\n        if (_beginDate > 0) {\r\n            beginDate = _beginDate;\r\n        }\r\n        if (_endDate > 0) {\r\n            endDate = _endDate;\r\n        }\r\n\r\n        if (_minimumHolding > 0) {\r\n            minimumHolding = _minimumHolding;\r\n        }\r\n        if (_baseAmount > 0) {\r\n            baseAmount = _baseAmount;\r\n        }\r\n        if (_maxClaimNumber > 0) {\r\n            maxClaimNumber = _maxClaimNumber;\r\n        }\r\n        if (_baseXP > 0) {\r\n            baseXP = _baseXP;\r\n        }\r\n        if (_devPercent > 0) {\r\n            devPercent = _devPercent;\r\n        }\r\n        if (_burnPercent > 0) {\r\n            burnPercent = _burnPercent;\r\n        }\r\n        if (_marketingPercent > 0) {\r\n            marketingPercent = _marketingPercent;\r\n        }\r\n    }\r\n\r\n    function claimXP(uint256 characterLevel) public nonReentrant {\r\n        User storage user = participants[msg.sender];\r\n\r\n        require(\r\n            block.timestamp >= beginDate && block.timestamp <= endDate,\r\n            \"invalid time\"\r\n        );\r\n        //check numberclaimperday\r\n        require(getCycleTimeClaim(msg.sender) > 0, \"only claim 1 time per day\");\r\n\r\n        require(user.numberClaimed < maxClaimNumber, \"reach maximum claim\");\r\n        uint256 numberHoldingOrStaking = getNumberHoldingOrStaking(msg.sender);\r\n        require(\r\n            numberHoldingOrStaking >= minimumHolding,\r\n            \"Insufficient number of PWAR staking or holding\"\r\n        );\r\n\r\n        user.numberClaimed = user.numberClaimed.add(1);\r\n        uint256 pwarRequire = baseAmount.mul(user.numberClaimed);\r\n\r\n        polkaWar.transferFrom(\r\n            address(msg.sender),\r\n            fundOwner,\r\n            pwarRequire.mul(devPercent).div(100)\r\n        );\r\n        polkaWar.transferFrom(\r\n            address(msg.sender),\r\n            marketingFund,\r\n            pwarRequire.mul(marketingPercent).div(100)\r\n        );\r\n        polkaWar.burnFrom(\r\n            address(msg.sender),\r\n            pwarRequire.mul(burnPercent).div(100)\r\n        );\r\n\r\n        user.lastClaimed = block.timestamp;\r\n        user.characterLevel = characterLevel;\r\n        user.totalXPClaimed = user.totalXPClaimed.add(\r\n            user.numberClaimed * baseXP\r\n        );\r\n        emit claimXPEvent(\r\n            msg.sender,\r\n            pwarRequire,\r\n            user.numberClaimed,\r\n            block.timestamp\r\n        );\r\n    }\r\n\r\n    function getCycleTimeClaim(address _user) public view returns (uint256) {\r\n        User storage user = participants[msg.sender];\r\n        return (block.timestamp.sub(user.lastClaimed)).div(23 * 3600);\r\n    }\r\n\r\n    function getNumberClaim(address user) public view returns (uint256) {\r\n        return participants[msg.sender].numberClaimed;\r\n    }\r\n\r\n    function getTotalParticipants() public view returns (uint256) {\r\n        return arrParticipants.length;\r\n    }\r\n\r\n    function getNumberHoldingOrStaking(address user)\r\n        public\r\n        view\r\n        returns (uint256)\r\n    {\r\n        uint256 amountHolding = polkaWar.balanceOf(user);\r\n        (\r\n            uint256 amount,\r\n            uint256 rewardDebt,\r\n            uint256 rewardClaimed,\r\n            uint256 lastBlock,\r\n            uint256 beginTime,\r\n            uint256 endTime\r\n        ) = getUserStakingData(user, 1);\r\n        return amountHolding.add(amount);\r\n    }\r\n\r\n    function getUserStakingData(address user, uint256 poolId)\r\n        public\r\n        view\r\n        returns (\r\n            uint256 amount,\r\n            uint256 rewardDebt,\r\n            uint256 rewardClaimed,\r\n            uint256 lastBlock,\r\n            uint256 beginTime,\r\n            uint256 endTime\r\n        )\r\n    {\r\n        return (staking.userInfo(poolId, user));\r\n    }\r\n\r\n    function withdrawToken(IERC20 token) public onlyOwner {\r\n        token.transfer(owner(), token.balanceOf(address(this)));\r\n    }\r\n\r\n    function withdrawPoolFund() public onlyOwner {\r\n        uint256 balance = address(this).balance;\r\n        require(balance > 0, \"not enough fund\");\r\n        fundOwner.transfer(balance);\r\n    }\r\n\r\n    receive() external payable {}\r\n}\r\n",
  "sourcePath": "C:\\Users\\Thanh Phi\\Desktop\\PolkaBridgeSolution\\polkawar\\polkawar-contract\\contracts\\PolkaWarClaimXP.sol",
  "compiler": {
    "name": "solc",
    "version": "0.6.2+commit.bacdbe57.Emscripten.clang"
  },
  "schemaVersion": "3.4.3",
  "updatedAt": "2021-11-05T07:20:22.017Z",
  "networkType": "ethereum",
  "devdoc": {
    "methods": {
      "isOwner()": {
        "details": "Returns true if the caller is the current owner."
      },
      "owner()": {
        "details": "Returns the address of the current owner."
      },
      "renounceOwnership()": {
        "details": "Leaves the contract without owner. It will not be possible to call `onlyOwner` functions anymore. Can only be called by the current owner.     * NOTE: Renouncing ownership will leave the contract without an owner, thereby removing any functionality that is only available to the owner."
      },
      "transferOwnership(address)": {
        "details": "Transfers ownership of the contract to a new account (`newOwner`). Can only be called by the current owner."
      }
    }
  },
  "userdoc": {
    "methods": {}
  }
}