{
  "contractName": "PolkaWarNFTAuction",
  "abi": [
    {
      "inputs": [
        {
          "internalType": "contract PolkaWarItemSystem",
          "name": "_itemSystem",
          "type": "address"
        },
        {
          "internalType": "contract PolkaWar",
          "name": "_polkaWar",
          "type": "address"
        },
        {
          "internalType": "contract CorgibStaking",
          "name": "_staking",
          "type": "address"
        },
        {
          "internalType": "address payable",
          "name": "_fundOwner",
          "type": "address"
        }
      ],
      "stateMutability": "nonpayable",
      "type": "constructor"
    },
    {
      "anonymous": false,
      "inputs": [
        {
          "indexed": true,
          "internalType": "address",
          "name": "previousOwner",
          "type": "address"
        },
        {
          "indexed": true,
          "internalType": "address",
          "name": "newOwner",
          "type": "address"
        }
      ],
      "name": "OwnershipTransferred",
      "type": "event"
    },
    {
      "anonymous": false,
      "inputs": [
        {
          "indexed": false,
          "internalType": "uint256",
          "name": "_pid",
          "type": "uint256"
        },
        {
          "indexed": false,
          "internalType": "uint256",
          "name": "_bidPrice",
          "type": "uint256"
        },
        {
          "indexed": false,
          "internalType": "address",
          "name": "_user",
          "type": "address"
        }
      ],
      "name": "_bid",
      "type": "event"
    },
    {
      "anonymous": false,
      "inputs": [
        {
          "indexed": false,
          "internalType": "address",
          "name": "user",
          "type": "address"
        },
        {
          "indexed": false,
          "internalType": "uint256",
          "name": "_pid",
          "type": "uint256"
        }
      ],
      "name": "_cancelBid",
      "type": "event"
    },
    {
      "anonymous": false,
      "inputs": [
        {
          "indexed": false,
          "internalType": "address",
          "name": "user",
          "type": "address"
        },
        {
          "indexed": false,
          "internalType": "uint256",
          "name": "_pid",
          "type": "uint256"
        },
        {
          "indexed": false,
          "internalType": "uint256",
          "name": "_tokenid",
          "type": "uint256"
        }
      ],
      "name": "_claim",
      "type": "event"
    },
    {
      "anonymous": false,
      "inputs": [
        {
          "indexed": false,
          "internalType": "address",
          "name": "user",
          "type": "address"
        },
        {
          "indexed": false,
          "internalType": "uint256",
          "name": "_pid",
          "type": "uint256"
        },
        {
          "indexed": false,
          "internalType": "int256",
          "name": "_combo",
          "type": "int256"
        },
        {
          "indexed": false,
          "internalType": "uint256",
          "name": "_nftTokenId",
          "type": "uint256"
        }
      ],
      "name": "_open",
      "type": "event"
    },
    {
      "inputs": [],
      "name": "isOwner",
      "outputs": [
        {
          "internalType": "bool",
          "name": "",
          "type": "bool"
        }
      ],
      "stateMutability": "view",
      "type": "function"
    },
    {
      "inputs": [],
      "name": "name",
      "outputs": [
        {
          "internalType": "string",
          "name": "",
          "type": "string"
        }
      ],
      "stateMutability": "view",
      "type": "function"
    },
    {
      "inputs": [
        {
          "internalType": "uint256",
          "name": "",
          "type": "uint256"
        }
      ],
      "name": "nftItems",
      "outputs": [
        {
          "internalType": "string",
          "name": "",
          "type": "string"
        }
      ],
      "stateMutability": "view",
      "type": "function"
    },
    {
      "inputs": [],
      "name": "owner",
      "outputs": [
        {
          "internalType": "address",
          "name": "",
          "type": "address"
        }
      ],
      "stateMutability": "view",
      "type": "function"
    },
    {
      "inputs": [
        {
          "internalType": "uint256",
          "name": "",
          "type": "uint256"
        }
      ],
      "name": "programs",
      "outputs": [
        {
          "internalType": "string",
          "name": "urlHash",
          "type": "string"
        },
        {
          "internalType": "uint256",
          "name": "startPrice",
          "type": "uint256"
        },
        {
          "internalType": "bool",
          "name": "isActive",
          "type": "bool"
        },
        {
          "internalType": "uint256",
          "name": "beginDate",
          "type": "uint256"
        },
        {
          "internalType": "uint256",
          "name": "endDate",
          "type": "uint256"
        },
        {
          "internalType": "uint256",
          "name": "latestPrice",
          "type": "uint256"
        },
        {
          "internalType": "address payable",
          "name": "latestUser",
          "type": "address"
        },
        {
          "internalType": "uint256",
          "name": "minPWARHolding",
          "type": "uint256"
        },
        {
          "internalType": "bool",
          "name": "isClaimed",
          "type": "bool"
        },
        {
          "internalType": "int256",
          "name": "comboRewards",
          "type": "int256"
        },
        {
          "internalType": "uint256",
          "name": "tokenId",
          "type": "uint256"
        },
        {
          "internalType": "bool",
          "name": "isOpened",
          "type": "bool"
        }
      ],
      "stateMutability": "view",
      "type": "function"
    },
    {
      "inputs": [],
      "name": "renounceOwnership",
      "outputs": [],
      "stateMutability": "nonpayable",
      "type": "function"
    },
    {
      "inputs": [
        {
          "internalType": "uint256",
          "name": "",
          "type": "uint256"
        }
      ],
      "name": "rewards",
      "outputs": [
        {
          "internalType": "uint256",
          "name": "amountBNB",
          "type": "uint256"
        },
        {
          "internalType": "uint256",
          "name": "amountPWAR",
          "type": "uint256"
        },
        {
          "internalType": "uint256",
          "name": "itemIndex",
          "type": "uint256"
        }
      ],
      "stateMutability": "view",
      "type": "function"
    },
    {
      "inputs": [
        {
          "internalType": "address",
          "name": "newOwner",
          "type": "address"
        }
      ],
      "name": "transferOwnership",
      "outputs": [],
      "stateMutability": "nonpayable",
      "type": "function"
    },
    {
      "stateMutability": "payable",
      "type": "receive"
    },
    {
      "inputs": [
        {
          "internalType": "string",
          "name": "_urlHash",
          "type": "string"
        },
        {
          "internalType": "uint256",
          "name": "_startPrice",
          "type": "uint256"
        },
        {
          "internalType": "uint256",
          "name": "_beginDate",
          "type": "uint256"
        },
        {
          "internalType": "uint256",
          "name": "_endDate",
          "type": "uint256"
        }
      ],
      "name": "initProgram",
      "outputs": [],
      "stateMutability": "nonpayable",
      "type": "function"
    },
    {
      "inputs": [
        {
          "internalType": "uint256",
          "name": "_pid",
          "type": "uint256"
        },
        {
          "internalType": "uint256",
          "name": "_startPrice",
          "type": "uint256"
        },
        {
          "internalType": "uint256",
          "name": "_beginDate",
          "type": "uint256"
        },
        {
          "internalType": "uint256",
          "name": "_endDate",
          "type": "uint256"
        },
        {
          "internalType": "uint256",
          "name": "_minimumHolding",
          "type": "uint256"
        }
      ],
      "name": "updateProgram",
      "outputs": [],
      "stateMutability": "nonpayable",
      "type": "function"
    },
    {
      "inputs": [
        {
          "components": [
            {
              "internalType": "uint256",
              "name": "amountBNB",
              "type": "uint256"
            },
            {
              "internalType": "uint256",
              "name": "amountPWAR",
              "type": "uint256"
            },
            {
              "internalType": "uint256",
              "name": "itemIndex",
              "type": "uint256"
            }
          ],
          "internalType": "struct PolkaWarNFTAuction.Reward",
          "name": "_rewards",
          "type": "tuple"
        }
      ],
      "name": "initRewards",
      "outputs": [],
      "stateMutability": "nonpayable",
      "type": "function"
    },
    {
      "inputs": [
        {
          "internalType": "string[]",
          "name": "_items",
          "type": "string[]"
        }
      ],
      "name": "initNFTItems",
      "outputs": [],
      "stateMutability": "nonpayable",
      "type": "function"
    },
    {
      "inputs": [
        {
          "internalType": "uint256",
          "name": "_pid",
          "type": "uint256"
        },
        {
          "internalType": "uint8",
          "name": "v",
          "type": "uint8"
        },
        {
          "internalType": "bytes32",
          "name": "r",
          "type": "bytes32"
        },
        {
          "internalType": "bytes32",
          "name": "s",
          "type": "bytes32"
        },
        {
          "internalType": "bytes32",
          "name": "messageHash",
          "type": "bytes32"
        }
      ],
      "name": "bid",
      "outputs": [],
      "stateMutability": "payable",
      "type": "function"
    },
    {
      "inputs": [
        {
          "internalType": "uint256",
          "name": "_pid",
          "type": "uint256"
        }
      ],
      "name": "claim",
      "outputs": [
        {
          "internalType": "uint256",
          "name": "",
          "type": "uint256"
        }
      ],
      "stateMutability": "nonpayable",
      "type": "function"
    },
    {
      "inputs": [
        {
          "internalType": "uint256",
          "name": "_pid",
          "type": "uint256"
        }
      ],
      "name": "open",
      "outputs": [
        {
          "internalType": "int256",
          "name": "",
          "type": "int256"
        },
        {
          "internalType": "uint256",
          "name": "",
          "type": "uint256"
        }
      ],
      "stateMutability": "nonpayable",
      "type": "function"
    },
    {
      "inputs": [
        {
          "internalType": "contract IERC20",
          "name": "token",
          "type": "address"
        }
      ],
      "name": "withdrawToken",
      "outputs": [],
      "stateMutability": "nonpayable",
      "type": "function"
    },
    {
      "inputs": [],
      "name": "withdrawPoolFund",
      "outputs": [],
      "stateMutability": "nonpayable",
      "type": "function"
    },
    {
      "inputs": [
        {
          "internalType": "address",
          "name": "user",
          "type": "address"
        }
      ],
      "name": "getNumberHoldingOrStaking",
      "outputs": [
        {
          "internalType": "uint256",
          "name": "",
          "type": "uint256"
        }
      ],
      "stateMutability": "view",
      "type": "function"
    },
    {
      "inputs": [
        {
          "internalType": "address",
          "name": "user",
          "type": "address"
        },
        {
          "internalType": "uint256",
          "name": "poolId",
          "type": "uint256"
        }
      ],
      "name": "getUserStakingData",
      "outputs": [
        {
          "internalType": "uint256",
          "name": "amount",
          "type": "uint256"
        },
        {
          "internalType": "uint256",
          "name": "rewardDebt",
          "type": "uint256"
        },
        {
          "internalType": "uint256",
          "name": "rewardClaimed",
          "type": "uint256"
        },
        {
          "internalType": "uint256",
          "name": "lastBlock",
          "type": "uint256"
        },
        {
          "internalType": "uint256",
          "name": "beginTime",
          "type": "uint256"
        },
        {
          "internalType": "uint256",
          "name": "endTime",
          "type": "uint256"
        }
      ],
      "stateMutability": "view",
      "type": "function"
    },
    {
      "inputs": [
        {
          "internalType": "address",
          "name": "_user",
          "type": "address"
        },
        {
          "internalType": "uint256",
          "name": "_pid",
          "type": "uint256"
        }
      ],
      "name": "isUserBid",
      "outputs": [
        {
          "internalType": "bool",
          "name": "",
          "type": "bool"
        }
      ],
      "stateMutability": "view",
      "type": "function"
    },
    {
      "inputs": [
        {
          "internalType": "address",
          "name": "_user",
          "type": "address"
        },
        {
          "internalType": "uint256",
          "name": "_pid",
          "type": "uint256"
        }
      ],
      "name": "getUserInfo",
      "outputs": [
        {
          "internalType": "uint256",
          "name": "",
          "type": "uint256"
        },
        {
          "internalType": "uint256",
          "name": "",
          "type": "uint256"
        }
      ],
      "stateMutability": "view",
      "type": "function"
    },
    {
      "inputs": [],
      "name": "getNumberParticipants",
      "outputs": [
        {
          "internalType": "uint256",
          "name": "",
          "type": "uint256"
        }
      ],
      "stateMutability": "view",
      "type": "function"
    },
    {
      "inputs": [
        {
          "internalType": "uint256",
          "name": "_pid",
          "type": "uint256"
        },
        {
          "internalType": "int256",
          "name": "_combo",
          "type": "int256"
        }
      ],
      "name": "setRewards",
      "outputs": [],
      "stateMutability": "nonpayable",
      "type": "function"
    }
  ],
  "bytecode": "0x60806040526040518060400160405280601581526020017f506f6c6b615761723a204e46542041756374696f6e0000000000000000000000815250600290805190602001906200005192919062000252565b503480156200005f57600080fd5b5060405162003a8238038062003a8283398181016040526200008591908101906200035d565b6000620000976200024a60201b60201c565b9050806000806101000a81548173ffffffffffffffffffffffffffffffffffffffff021916908373ffffffffffffffffffffffffffffffffffffffff1602179055508073ffffffffffffffffffffffffffffffffffffffff16600073ffffffffffffffffffffffffffffffffffffffff167f8be0079c531659141344cd1fd0a4f28419497f9722a3daafe3b4186f6b6457e060405160405180910390a3506001808190555083600360006101000a81548173ffffffffffffffffffffffffffffffffffffffff021916908373ffffffffffffffffffffffffffffffffffffffff16021790555082600460006101000a81548173ffffffffffffffffffffffffffffffffffffffff021916908373ffffffffffffffffffffffffffffffffffffffff16021790555080600660006101000a81548173ffffffffffffffffffffffffffffffffffffffff021916908373ffffffffffffffffffffffffffffffffffffffff16021790555081600560006101000a81548173ffffffffffffffffffffffffffffffffffffffff021916908373ffffffffffffffffffffffffffffffffffffffff16021790555050505050620004b5565b600033905090565b828054600181600116156101000203166002900490600052602060002090601f016020900481019282601f106200029557805160ff1916838001178555620002c6565b82800160010185558215620002c6579182015b82811115620002c5578251825591602001919060010190620002a8565b5b509050620002d59190620002d9565b5090565b620002fe91905b80821115620002fa576000816000905550600101620002e0565b5090565b90565b60008151905062000312816200044d565b92915050565b600081519050620003298162000467565b92915050565b600081519050620003408162000481565b92915050565b60008151905062000357816200049b565b92915050565b600080600080608085870312156200037457600080fd5b600062000384878288016200032f565b9450506020620003978782880162000346565b9350506040620003aa8782880162000318565b9250506060620003bd8782880162000301565b91505092959194509250565b6000620003d6826200042d565b9050919050565b6000620003ea826200042d565b9050919050565b6000620003fe82620003c9565b9050919050565b60006200041282620003c9565b9050919050565b60006200042682620003c9565b9050919050565b600073ffffffffffffffffffffffffffffffffffffffff82169050919050565b6200045881620003dd565b81146200046457600080fd5b50565b6200047281620003f1565b81146200047e57600080fd5b50565b6200048c8162000405565b81146200049857600080fd5b50565b620004a68162000419565b8114620004b257600080fd5b50565b6135bd80620004c56000396000f3fe6080604052600436106101445760003560e01c806379b0e3ff116100b65780638f32d59b1161006f5780638f32d59b1461046f57806392db28161461049a578063d4923430146104e2578063eddb00831461050d578063f2fde38b14610536578063f301af421461055f5761014b565b806379b0e3ff146103705780637e44b2ee146103995780637e494877146103c257806386257be5146103ff578063894760691461041b5780638da5cb5b146104445761014b565b806344637d9d1161010857806344637d9d1461023a5780636282139614610263578063690e7c09146102a05780636ce1611f146102de578063715018a61461031b57806376e8424f146103325761014b565b806303a4b05f1461015057806306fdde03146101795780630b17c673146101a45780631f4552cb146101e6578063379607f5146101fd5761014b565b3661014b57005b600080fd5b34801561015c57600080fd5b5061017760048036036101729190810190612733565b61059e565b005b34801561018557600080fd5b5061018e610658565b60405161019b9190612f33565b60405180910390f35b3480156101b057600080fd5b506101cb60048036036101c69190810190612532565b6106f6565b6040516101dd96959493929190613291565b60405180910390f35b3480156101f257600080fd5b506101fb6107c2565b005b34801561020957600080fd5b50610224600480360361021f91908101906126a5565b6108bd565b60405161023191906131b6565b60405180910390f35b34801561024657600080fd5b50610261600480360361025c91908101906126f7565b610b42565b005b34801561026f57600080fd5b5061028a600480360361028591908101906126a5565b610bb6565b6040516102979190612f33565b60405180910390f35b3480156102ac57600080fd5b506102c760048036036102c291908101906126a5565b610c6f565b6040516102d5929190612f0a565b60405180910390f35b3480156102ea57600080fd5b5061030560048036036103009190810190612532565b611092565b6040516103129190612eaa565b60405180910390f35b34801561032757600080fd5b50610330611152565b005b34801561033e57600080fd5b5061035960048036036103549190810190612532565b611258565b6040516103679291906131fa565b60405180910390f35b34801561037c57600080fd5b506103976004803603610392919081019061267c565b6112e5565b005b3480156103a557600080fd5b506103c060048036036103bb9190810190612601565b61137b565b005b3480156103ce57600080fd5b506103e960048036036103e49190810190612509565b6115c0565b6040516103f691906131b6565b60405180910390f35b61041960048036036104149190810190612833565b6116b1565b005b34801561042757600080fd5b50610442600480360361043d91908101906125d8565b611bae565b005b34801561045057600080fd5b50610459611d15565b6040516104669190612d76565b60405180910390f35b34801561047b57600080fd5b50610484611d3e565b6040516104919190612eaa565b60405180910390f35b3480156104a657600080fd5b506104c160048036036104bc91908101906126a5565b611d9c565b6040516104d99c9b9a99989796959493929190612f55565b60405180910390f35b3480156104ee57600080fd5b506104f7611ee8565b60405161050491906131b6565b60405180910390f35b34801561051957600080fd5b50610534600480360361052f919081019061256e565b611ef5565b005b34801561054257600080fd5b5061055d60048036036105589190810190612509565b611fab565b005b34801561056b57600080fd5b50610586600480360361058191908101906126a5565b611ffe565b6040516105959392919061325a565b60405180910390f35b6105a6611d3e565b6105e5576040517f08c379a00000000000000000000000000000000000000000000000000000000081526004016105dc90613116565b60405180910390fd5b6000600786815481106105f457fe5b90600052602060002090600c020190506000851115610617578481600101819055505b600084111561062a578381600301819055505b600083111561063d578281600401819055505b6000821115610650578181600701819055505b505050505050565b60028054600181600116156101000203166002900480601f0160208091040260200160405190810160405280929190818152602001828054600181600116156101000203166002900480156106ee5780601f106106c3576101008083540402835291602001916106ee565b820191906000526020600020905b8154815290600101906020018083116106d157829003601f168201915b505050505081565b600080600080600080600560009054906101000a900473ffffffffffffffffffffffffffffffffffffffff1673ffffffffffffffffffffffffffffffffffffffff166393f1a40b888a6040518363ffffffff1660e01b815260040161075c9291906131d1565b60c06040518083038186803b15801561077457600080fd5b505afa158015610788573d6000803e3d6000fd5b505050506040513d601f19601f820116820180604052506107ac91908101906127aa565b9550955095509550955095509295509295509295565b6107ca611d3e565b610809576040517f08c379a000000000000000000000000000000000000000000000000000000000815260040161080090613116565b60405180910390fd5b600047905060008111610851576040517f08c379a000000000000000000000000000000000000000000000000000000000815260040161084890613016565b60405180910390fd5b600660009054906101000a900473ffffffffffffffffffffffffffffffffffffffff1673ffffffffffffffffffffffffffffffffffffffff166108fc829081150290604051600060405180830381858888f193505050501580156108b9573d6000803e3d6000fd5b5050565b600080600783815481106108cd57fe5b90600052602060002090600c020190508060020160009054906101000a900460ff1680156108fe5750806004015442115b61093d576040517f08c379a000000000000000000000000000000000000000000000000000000000815260040161093490613096565b60405180910390fd5b8060080160009054906101000a900460ff161561098f576040517f08c379a000000000000000000000000000000000000000000000000000000000815260040161098690613036565b60405180910390fd5b3373ffffffffffffffffffffffffffffffffffffffff168160060160009054906101000a900473ffffffffffffffffffffffffffffffffffffffff1673ffffffffffffffffffffffffffffffffffffffff1614610a21576040517f08c379a0000000000000000000000000000000000000000000000000000000008152600401610a18906130d6565b60405180910390fd5b6000600360009054906101000a900473ffffffffffffffffffffffffffffffffffffffff1673ffffffffffffffffffffffffffffffffffffffff166326fb76c233846000016040518363ffffffff1660e01b8152600401610a83929190612dac565b602060405180830381600087803b158015610a9d57600080fd5b505af1158015610ab1573d6000803e3d6000fd5b505050506040513d601f19601f82011682018060405250610ad591908101906126ce565b905060018260080160006101000a81548160ff0219169083151502179055508082600a01819055507fc25b6b0147a5b034bce910d0a44be673e40163c2452a178ff46510925d40242a338583604051610b3093929190612e4a565b60405180910390a18092505050919050565b610b4a611d3e565b610b89576040517f08c379a0000000000000000000000000000000000000000000000000000000008152600401610b8090613116565b60405180910390fd5b600060078381548110610b9857fe5b90600052602060002090600c02019050818160090181905550505050565b60098181548110610bc357fe5b906000526020600020016000915090508054600181600116156101000203166002900480601f016020809104026020016040519081016040528092919081815260200182805460018160011615610100020316600290048015610c675780601f10610c3c57610100808354040283529160200191610c67565b820191906000526020600020905b815481529060010190602001808311610c4a57829003601f168201915b505050505081565b600080600060078481548110610c8157fe5b90600052602060002090600c02019050600081600a0154118015610caa57506000816009015412155b610ce9576040517f08c379a0000000000000000000000000000000000000000000000000000000008152600401610ce090613136565b60405180910390fd5b8060020160009054906101000a900460ff168015610d0a5750806004015442115b610d49576040517f08c379a0000000000000000000000000000000000000000000000000000000008152600401610d4090613096565b60405180910390fd5b80600b0160009054906101000a900460ff1615610d9b576040517f08c379a0000000000000000000000000000000000000000000000000000000008152600401610d92906130b6565b60405180910390fd5b3373ffffffffffffffffffffffffffffffffffffffff168160060160009054906101000a900473ffffffffffffffffffffffffffffffffffffffff1673ffffffffffffffffffffffffffffffffffffffff1614610e2d576040517f08c379a0000000000000000000000000000000000000000000000000000000008152600401610e24906130d6565b60405180910390fd5b600081600901549050600060088281548110610e4557fe5b90600052602060002090600302019050600460009054906101000a900473ffffffffffffffffffffffffffffffffffffffff1673ffffffffffffffffffffffffffffffffffffffff1663a9059cbb3383600101546040518363ffffffff1660e01b8152600401610eb6929190612ddc565b602060405180830381600087803b158015610ed057600080fd5b505af1158015610ee4573d6000803e3d6000fd5b505050506040513d601f19601f82011682018060405250610f0891908101906125af565b503373ffffffffffffffffffffffffffffffffffffffff166108fc82600001549081150290604051600060405180830381858888f19350505050158015610f53573d6000803e3d6000fd5b506000600360009054906101000a900473ffffffffffffffffffffffffffffffffffffffff1673ffffffffffffffffffffffffffffffffffffffff166326fb76c2336009856002015481548110610fa657fe5b906000526020600020016040518363ffffffff1660e01b8152600401610fcd929190612dac565b602060405180830381600087803b158015610fe757600080fd5b505af1158015610ffb573d6000803e3d6000fd5b505050506040513d601f19601f8201168201806040525061101f91908101906126ce565b9050600184600b0160006101000a81548160ff0219169083151502179055507f981e10b064e9492c6c4a9898072b3804647189d46aa517d6f58c2658ddf3adc633888660090154846040516110779493929190612e05565b60405180910390a18360090154819550955050505050915091565b600080600a600084815260200190815260200160002060008573ffffffffffffffffffffffffffffffffffffffff1673ffffffffffffffffffffffffffffffffffffffff16815260200190815260200160002090506000600784815481106110f657fe5b90600052602060002090600c020190506000826001015411801561112257508060030154826000015410155b8015611135575080600401548260000154105b156111455760019250505061114c565b6000925050505b92915050565b61115a611d3e565b611199576040517f08c379a000000000000000000000000000000000000000000000000000000000815260040161119090613116565b60405180910390fd5b600073ffffffffffffffffffffffffffffffffffffffff166000809054906101000a900473ffffffffffffffffffffffffffffffffffffffff1673ffffffffffffffffffffffffffffffffffffffff167f8be0079c531659141344cd1fd0a4f28419497f9722a3daafe3b4186f6b6457e060405160405180910390a360008060006101000a81548173ffffffffffffffffffffffffffffffffffffffff021916908373ffffffffffffffffffffffffffffffffffffffff160217905550565b6000806000600a600085815260200190815260200160002060008673ffffffffffffffffffffffffffffffffffffffff1673ffffffffffffffffffffffffffffffffffffffff16815260200190815260200160002090506000600785815481106112be57fe5b90600052602060002090600c02019050816000015482600101549350935050509250929050565b6112ed611d3e565b61132c576040517f08c379a000000000000000000000000000000000000000000000000000000000815260040161132390613116565b60405180910390fd5b6008819080600181540180825580915050600190039060005260206000209060030201600090919091909150600082015181600001556020820151816001015560408201518160020155505050565b611383611d3e565b6113c2576040517f08c379a00000000000000000000000000000000000000000000000000000000081526004016113b990613116565b60405180910390fd5b6007604051806101800160405280868152602001858152602001600115158152602001848152602001838152602001858152602001600660009054906101000a900473ffffffffffffffffffffffffffffffffffffffff1673ffffffffffffffffffffffffffffffffffffffff168152602001686c6b935b8bbd40000081526020016000151581526020017fffffffffffffffffffffffffffffffffffffffffffffffffffffffffffffffff8152602001600081526020016000151581525090806001815401808255809150506001900390600052602060002090600c020160009091909190915060008201518160000190805190602001906114c69291906121c0565b506020820151816001015560408201518160020160006101000a81548160ff021916908315150217905550606082015181600301556080820151816004015560a0820151816005015560c08201518160060160006101000a81548173ffffffffffffffffffffffffffffffffffffffff021916908373ffffffffffffffffffffffffffffffffffffffff16021790555060e082015181600701556101008201518160080160006101000a81548160ff021916908315150217905550610120820151816009015561014082015181600a015561016082015181600b0160006101000a81548160ff021916908315150217905550505050505050565b600080600460009054906101000a900473ffffffffffffffffffffffffffffffffffffffff1673ffffffffffffffffffffffffffffffffffffffff166370a08231846040518263ffffffff1660e01b815260040161161e9190612d76565b60206040518083038186803b15801561163657600080fd5b505afa15801561164a573d6000803e3d6000fd5b505050506040513d601f19601f8201168201806040525061166e91908101906126ce565b90506000806000806000806116848960016106f6565b9550955095509550955095506116a3868861203590919063ffffffff16565b975050505050505050919050565b600260015414156116f7576040517f08c379a00000000000000000000000000000000000000000000000000000000081526004016116ee90613196565b60405180910390fd5b6002600181905550600181858585604051600081526020016040526040516117229493929190612ec5565b6020604051602081039080840390855afa158015611744573d6000803e3d6000fd5b5050506020604051035173ffffffffffffffffffffffffffffffffffffffff1661176c611d15565b73ffffffffffffffffffffffffffffffffffffffff16146117c2576040517f08c379a00000000000000000000000000000000000000000000000000000000081526004016117b990613156565b60405180910390fd5b6000600786815481106117d157fe5b90600052602060002090600c020190506000600a600088815260200190815260200160002060003373ffffffffffffffffffffffffffffffffffffffff1673ffffffffffffffffffffffffffffffffffffffff16815260200190815260200160002090508160020160009054906101000a900460ff168015611857575081600301544210155b80156118665750816004015442105b6118a5576040517f08c379a000000000000000000000000000000000000000000000000000000000815260040161189c90613096565b60405180910390fd5b60006118b0336115c0565b905082600701548110156118f9576040517f08c379a00000000000000000000000000000000000000000000000000000000081526004016118f0906130f6565b60405180910390fd5b8260050154341161193f576040517f08c379a000000000000000000000000000000000000000000000000000000000815260040161193690613176565b60405180910390fd5b4282600001819055503482600101819055506000600a60008a815260200190815260200160002060008560060160009054906101000a900473ffffffffffffffffffffffffffffffffffffffff1673ffffffffffffffffffffffffffffffffffffffff1673ffffffffffffffffffffffffffffffffffffffff1681526020019081526020016000209050600660009054906101000a900473ffffffffffffffffffffffffffffffffffffffff1673ffffffffffffffffffffffffffffffffffffffff168460060160009054906101000a900473ffffffffffffffffffffffffffffffffffffffff1673ffffffffffffffffffffffffffffffffffffffff1614611ab2578360060160009054906101000a900473ffffffffffffffffffffffffffffffffffffffff1673ffffffffffffffffffffffffffffffffffffffff166108fc82600101549081150290604051600060405180830381858888f19350505050158015611ab0573d6000803e3d6000fd5b505b348460050181905550338460060160006101000a81548173ffffffffffffffffffffffffffffffffffffffff021916908373ffffffffffffffffffffffffffffffffffffffff160217905550600b339080600181540180825580915050600190039060005260206000200160009091909190916101000a81548173ffffffffffffffffffffffffffffffffffffffff021916908373ffffffffffffffffffffffffffffffffffffffff1602179055507f445045ccafa05a4a7d59c10b1fb4a99ead13463e268bdfb5ca26c987177b1c67893433604051611b9493929190613223565b60405180910390a150505050600180819055505050505050565b611bb6611d3e565b611bf5576040517f08c379a0000000000000000000000000000000000000000000000000000000008152600401611bec90613116565b60405180910390fd5b8073ffffffffffffffffffffffffffffffffffffffff1663a9059cbb611c19611d15565b8373ffffffffffffffffffffffffffffffffffffffff166370a08231306040518263ffffffff1660e01b8152600401611c529190612d91565b60206040518083038186803b158015611c6a57600080fd5b505afa158015611c7e573d6000803e3d6000fd5b505050506040513d601f19601f82011682018060405250611ca291908101906126ce565b6040518363ffffffff1660e01b8152600401611cbf929190612e81565b602060405180830381600087803b158015611cd957600080fd5b505af1158015611ced573d6000803e3d6000fd5b505050506040513d601f19601f82011682018060405250611d1191908101906125af565b5050565b60008060009054906101000a900473ffffffffffffffffffffffffffffffffffffffff16905090565b60008060009054906101000a900473ffffffffffffffffffffffffffffffffffffffff1673ffffffffffffffffffffffffffffffffffffffff16611d8061208a565b73ffffffffffffffffffffffffffffffffffffffff1614905090565b60078181548110611da957fe5b90600052602060002090600c0201600091509050806000018054600181600116156101000203166002900480601f016020809104026020016040519081016040528092919081815260200182805460018160011615610100020316600290048015611e555780601f10611e2a57610100808354040283529160200191611e55565b820191906000526020600020905b815481529060010190602001808311611e3857829003601f168201915b5050505050908060010154908060020160009054906101000a900460ff16908060030154908060040154908060050154908060060160009054906101000a900473ffffffffffffffffffffffffffffffffffffffff16908060070154908060080160009054906101000a900460ff169080600901549080600a01549080600b0160009054906101000a900460ff1690508c565b6000600b80549050905090565b611efd611d3e565b611f3c576040517f08c379a0000000000000000000000000000000000000000000000000000000008152600401611f3390613116565b60405180910390fd5b60008090505b8151811015611fa7576009828281518110611f5957fe5b6020026020010151908060018154018082558091505060019003906000526020600020016000909190919091509080519060200190611f99929190612240565b508080600101915050611f42565b5050565b611fb3611d3e565b611ff2576040517f08c379a0000000000000000000000000000000000000000000000000000000008152600401611fe990613116565b60405180910390fd5b611ffb81612092565b50565b6008818154811061200b57fe5b90600052602060002090600302016000915090508060000154908060010154908060020154905083565b600080828401905083811015612080576040517f08c379a000000000000000000000000000000000000000000000000000000000815260040161207790613076565b60405180910390fd5b8091505092915050565b600033905090565b600073ffffffffffffffffffffffffffffffffffffffff168173ffffffffffffffffffffffffffffffffffffffff161415612102576040517f08c379a00000000000000000000000000000000000000000000000000000000081526004016120f990613056565b60405180910390fd5b8073ffffffffffffffffffffffffffffffffffffffff166000809054906101000a900473ffffffffffffffffffffffffffffffffffffffff1673ffffffffffffffffffffffffffffffffffffffff167f8be0079c531659141344cd1fd0a4f28419497f9722a3daafe3b4186f6b6457e060405160405180910390a3806000806101000a81548173ffffffffffffffffffffffffffffffffffffffff021916908373ffffffffffffffffffffffffffffffffffffffff16021790555050565b828054600181600116156101000203166002900490600052602060002090601f016020900481019282601f1061220157805160ff191683800117855561222f565b8280016001018555821561222f579182015b8281111561222e578251825591602001919060010190612213565b5b50905061223c91906122c0565b5090565b828054600181600116156101000203166002900490600052602060002090601f016020900481019282601f1061228157805160ff19168380011785556122af565b828001600101855582156122af579182015b828111156122ae578251825591602001919060010190612293565b5b5090506122bc91906122c0565b5090565b6122e291905b808211156122de5760008160009055506001016122c6565b5090565b90565b6000813590506122f4816134e6565b92915050565b600082601f83011261230b57600080fd5b813561231e6123198261331f565b6132f2565b9150818183526020840193506020810190508360005b83811015612364578135860161234a88826123c2565b845260208401935060208301925050600181019050612334565b5050505092915050565b60008151905061237d816134fd565b92915050565b60008135905061239281613514565b92915050565b6000813590506123a78161352b565b92915050565b6000813590506123bc81613542565b92915050565b600082601f8301126123d357600080fd5b81356123e66123e182613347565b6132f2565b9150808252602083016020830185838301111561240257600080fd5b61240d838284613493565b50505092915050565b600082601f83011261242757600080fd5b813561243a61243582613373565b6132f2565b9150808252602083016020830185838301111561245657600080fd5b612461838284613493565b50505092915050565b60006060828403121561247c57600080fd5b61248660606132f2565b90506000612496848285016124ca565b60008301525060206124aa848285016124ca565b60208301525060406124be848285016124ca565b60408301525092915050565b6000813590506124d981613559565b92915050565b6000815190506124ee81613559565b92915050565b60008135905061250381613570565b92915050565b60006020828403121561251b57600080fd5b6000612529848285016122e5565b91505092915050565b6000806040838503121561254557600080fd5b6000612553858286016122e5565b9250506020612564858286016124ca565b9150509250929050565b60006020828403121561258057600080fd5b600082013567ffffffffffffffff81111561259a57600080fd5b6125a6848285016122fa565b91505092915050565b6000602082840312156125c157600080fd5b60006125cf8482850161236e565b91505092915050565b6000602082840312156125ea57600080fd5b60006125f884828501612398565b91505092915050565b6000806000806080858703121561261757600080fd5b600085013567ffffffffffffffff81111561263157600080fd5b61263d87828801612416565b945050602061264e878288016124ca565b935050604061265f878288016124ca565b9250506060612670878288016124ca565b91505092959194509250565b60006060828403121561268e57600080fd5b600061269c8482850161246a565b91505092915050565b6000602082840312156126b757600080fd5b60006126c5848285016124ca565b91505092915050565b6000602082840312156126e057600080fd5b60006126ee848285016124df565b91505092915050565b6000806040838503121561270a57600080fd5b6000612718858286016124ca565b9250506020612729858286016123ad565b9150509250929050565b600080600080600060a0868803121561274b57600080fd5b6000612759888289016124ca565b955050602061276a888289016124ca565b945050604061277b888289016124ca565b935050606061278c888289016124ca565b925050608061279d888289016124ca565b9150509295509295909350565b60008060008060008060c087890312156127c357600080fd5b60006127d189828a016124df565b96505060206127e289828a016124df565b95505060406127f389828a016124df565b945050606061280489828a016124df565b935050608061281589828a016124df565b92505060a061282689828a016124df565b9150509295509295509295565b600080600080600060a0868803121561284b57600080fd5b6000612859888289016124ca565b955050602061286a888289016124f4565b945050604061287b88828901612383565b935050606061288c88828901612383565b925050608061289d88828901612383565b9150509295509295909350565b6128b38161345d565b82525050565b6128c2816133e2565b82525050565b6128d1816133d0565b82525050565b6128e0816133f4565b82525050565b6128ef81613400565b82525050565b6128fe8161341c565b82525050565b600061290f826133b4565b61291981856133bf565b93506129298185602086016134a2565b612932816134d5565b840191505092915050565b60008154600181166000811461295a5760018114612980576129c4565b607f600283041661296b81876133bf565b955060ff1983168652602086019350506129c4565b6002820461298e81876133bf565b95506129998561339f565b60005b828110156129bb5781548189015260018201915060208101905061299c565b80880195505050505b505092915050565b60006129d9600f836133bf565b91507f6e6f7420656e6f7567682066756e6400000000000000000000000000000000006000830152602082019050919050565b6000612a196010836133bf565b91507f416c726561647920636c61696d656421000000000000000000000000000000006000830152602082019050919050565b6000612a596026836133bf565b91507f4f776e61626c653a206e6577206f776e657220697320746865207a65726f206160008301527f64647265737300000000000000000000000000000000000000000000000000006020830152604082019050919050565b6000612abf601b836133bf565b91507f536166654d6174683a206164646974696f6e206f766572666c6f7700000000006000830152602082019050919050565b6000612aff600c836133bf565b91507f496e76616c69642074696d6500000000000000000000000000000000000000006000830152602082019050919050565b6000612b3f600f836133bf565b91507f416c7265616479206f70656e65642100000000000000000000000000000000006000830152602082019050919050565b6000612b7f6017836133bf565b91507f596f7520617265206e6f74207468652077696e6e6572210000000000000000006000830152602082019050919050565b6000612bbf602e836133bf565b91507f496e73756666696369656e74206e756d626572206f662050574152207374616b60008301527f696e67206f7220686f6c64696e670000000000000000000000000000000000006020830152604082019050919050565b6000612c256020836133bf565b91507f4f776e61626c653a2063616c6c6572206973206e6f7420746865206f776e65726000830152602082019050919050565b6000612c65600d836133bf565b91507f4e6f7420617661696c61626c65000000000000000000000000000000000000006000830152602082019050919050565b6000612ca5601a836133bf565b91507f4f776e65722073686f756c64207369676e2062696420696e666f0000000000006000830152602082019050919050565b6000612ce5600d836133bf565b91507f496e76616c6964207072696365000000000000000000000000000000000000006000830152602082019050919050565b6000612d25601f836133bf565b91507f5265656e7472616e637947756172643a207265656e7472616e742063616c6c006000830152602082019050919050565b612d6181613446565b82525050565b612d7081613450565b82525050565b6000602082019050612d8b60008301846128c8565b92915050565b6000602082019050612da660008301846128aa565b92915050565b6000604082019050612dc160008301856128aa565b8181036020830152612dd3818461293d565b90509392505050565b6000604082019050612df160008301856128aa565b612dfe6020830184612d58565b9392505050565b6000608082019050612e1a60008301876128aa565b612e276020830186612d58565b612e3460408301856128f5565b612e416060830184612d58565b95945050505050565b6000606082019050612e5f60008301866128aa565b612e6c6020830185612d58565b612e796040830184612d58565b949350505050565b6000604082019050612e9660008301856128c8565b612ea36020830184612d58565b9392505050565b6000602082019050612ebf60008301846128d7565b92915050565b6000608082019050612eda60008301876128e6565b612ee76020830186612d67565b612ef460408301856128e6565b612f0160608301846128e6565b95945050505050565b6000604082019050612f1f60008301856128f5565b612f2c6020830184612d58565b9392505050565b60006020820190508181036000830152612f4d8184612904565b905092915050565b6000610180820190508181036000830152612f70818f612904565b9050612f7f602083018e612d58565b612f8c604083018d6128d7565b612f99606083018c612d58565b612fa6608083018b612d58565b612fb360a083018a612d58565b612fc060c08301896128b9565b612fcd60e0830188612d58565b612fdb6101008301876128d7565b612fe96101208301866128f5565b612ff7610140830185612d58565b6130056101608301846128d7565b9d9c50505050505050505050505050565b6000602082019050818103600083015261302f816129cc565b9050919050565b6000602082019050818103600083015261304f81612a0c565b9050919050565b6000602082019050818103600083015261306f81612a4c565b9050919050565b6000602082019050818103600083015261308f81612ab2565b9050919050565b600060208201905081810360008301526130af81612af2565b9050919050565b600060208201905081810360008301526130cf81612b32565b9050919050565b600060208201905081810360008301526130ef81612b72565b9050919050565b6000602082019050818103600083015261310f81612bb2565b9050919050565b6000602082019050818103600083015261312f81612c18565b9050919050565b6000602082019050818103600083015261314f81612c58565b9050919050565b6000602082019050818103600083015261316f81612c98565b9050919050565b6000602082019050818103600083015261318f81612cd8565b9050919050565b600060208201905081810360008301526131af81612d18565b9050919050565b60006020820190506131cb6000830184612d58565b92915050565b60006040820190506131e66000830185612d58565b6131f360208301846128c8565b9392505050565b600060408201905061320f6000830185612d58565b61321c6020830184612d58565b9392505050565b60006060820190506132386000830186612d58565b6132456020830185612d58565b61325260408301846128aa565b949350505050565b600060608201905061326f6000830186612d58565b61327c6020830185612d58565b6132896040830184612d58565b949350505050565b600060c0820190506132a66000830189612d58565b6132b36020830188612d58565b6132c06040830187612d58565b6132cd6060830186612d58565b6132da6080830185612d58565b6132e760a0830184612d58565b979650505050505050565b6000604051905081810181811067ffffffffffffffff8211171561331557600080fd5b8060405250919050565b600067ffffffffffffffff82111561333657600080fd5b602082029050602081019050919050565b600067ffffffffffffffff82111561335e57600080fd5b601f19601f8301169050602081019050919050565b600067ffffffffffffffff82111561338a57600080fd5b601f19601f8301169050602081019050919050565b60008190508160005260206000209050919050565b600081519050919050565b600082825260208201905092915050565b60006133db82613426565b9050919050565b60006133ed82613426565b9050919050565b60008115159050919050565b6000819050919050565b6000613415826133d0565b9050919050565b6000819050919050565b600073ffffffffffffffffffffffffffffffffffffffff82169050919050565b6000819050919050565b600060ff82169050919050565b60006134688261346f565b9050919050565b600061347a82613481565b9050919050565b600061348c82613426565b9050919050565b82818337600083830152505050565b60005b838110156134c05780820151818401526020810190506134a5565b838111156134cf576000848401525b50505050565b6000601f19601f8301169050919050565b6134ef816133d0565b81146134fa57600080fd5b50565b613506816133f4565b811461351157600080fd5b50565b61351d81613400565b811461352857600080fd5b50565b6135348161340a565b811461353f57600080fd5b50565b61354b8161341c565b811461355657600080fd5b50565b61356281613446565b811461356d57600080fd5b50565b61357981613450565b811461358457600080fd5b5056fea2646970667358221220eb30364076ea9b9d8f72884df115aa23ce2a770fac3a718195021d34509ec56f64736f6c63430006020033",
  "source": "pragma solidity >=0.6.0;\r\npragma experimental ABIEncoderV2;\r\n\r\nimport \"@openzeppelin/contracts/ownership/Ownable.sol\";\r\nimport \"./ReentrancyGuard.sol\";\r\nimport \"./PolkaWarItemSystem.sol\";\r\nimport \"./PolkaWar.sol\";\r\nimport \"./CorgibStaking.sol\";\r\nimport \"@openzeppelin/contracts/math/SafeMath.sol\";\r\nimport \"@openzeppelin/contracts/token/ERC20/SafeERC20.sol\";\r\n\r\ncontract PolkaWarNFTAuction is Ownable, ReentrancyGuard {\r\n    string public name = \"PolkaWar: NFT Auction\";\r\n    using SafeMath for uint256;\r\n    using SafeERC20 for IERC20;\r\n\r\n    PolkaWarItemSystem itemSystem;\r\n    PolkaWar polkaWar;\r\n    CorgibStaking staking;\r\n\r\n    address payable private fundOwner;\r\n\r\n    struct Program {\r\n        string urlHash;\r\n        uint256 startPrice;\r\n        bool isActive;\r\n        uint256 beginDate;\r\n        uint256 endDate;\r\n        uint256 latestPrice;\r\n        address payable latestUser;\r\n        uint256 minPWARHolding;\r\n        bool isClaimed;\r\n        int256 comboRewards;\r\n        uint256 tokenId;\r\n        bool isOpened;\r\n    }\r\n    struct Participant {\r\n        uint256 bidTime;\r\n        uint256 bidPrice;\r\n    }\r\n\r\n    struct Reward {\r\n        uint256 amountBNB;\r\n        uint256 amountPWAR;\r\n        uint256 itemIndex;\r\n    }\r\n\r\n    //list airdrop item\r\n\r\n    Program[] public programs;\r\n    Reward[] public rewards;\r\n    string[] public nftItems;\r\n\r\n    mapping(uint256 => mapping(address => Participant)) internal participants;\r\n    address[] internal arrParticipants;\r\n\r\n    event _bid(uint256 _pid, uint256 _bidPrice, address _user);\r\n\r\n    event _cancelBid(address user, uint256 _pid);\r\n\r\n    event _claim(address user, uint256 _pid, uint256 _tokenid);\r\n\r\n    event _open(address user, uint256 _pid, int256 _combo, uint256 _nftTokenId);\r\n\r\n    constructor(\r\n        PolkaWarItemSystem _itemSystem,\r\n        PolkaWar _polkaWar,\r\n        CorgibStaking _staking,\r\n        address payable _fundOwner\r\n    ) public {\r\n        itemSystem = _itemSystem;\r\n        polkaWar = _polkaWar;\r\n        fundOwner = _fundOwner;\r\n        staking = _staking;\r\n    }\r\n\r\n    function initProgram(\r\n        string memory _urlHash,\r\n        uint256 _startPrice,\r\n        uint256 _beginDate,\r\n        uint256 _endDate\r\n    ) public onlyOwner {\r\n        programs.push(\r\n            Program({\r\n                urlHash: _urlHash,\r\n                startPrice: _startPrice,\r\n                isActive: true,\r\n                beginDate: _beginDate,\r\n                endDate: _endDate,\r\n                latestPrice: _startPrice,\r\n                latestUser: fundOwner,\r\n                minPWARHolding: 2000000000000000000000,\r\n                isClaimed: false,\r\n                comboRewards: -1,\r\n                tokenId: 0,\r\n                isOpened: false\r\n            })\r\n        );\r\n    }\r\n\r\n    function updateProgram(\r\n        uint256 _pid,\r\n        uint256 _startPrice,\r\n        uint256 _beginDate,\r\n        uint256 _endDate,\r\n        uint256 _minimumHolding\r\n    ) public onlyOwner {\r\n        Program storage programInfo = programs[_pid];\r\n        if (_startPrice > 0) {\r\n            programInfo.startPrice = _startPrice;\r\n        }\r\n        if (_beginDate > 0) {\r\n            programInfo.beginDate = _beginDate;\r\n        }\r\n        if (_endDate > 0) {\r\n            programInfo.endDate = _endDate;\r\n        }\r\n        if (_minimumHolding > 0) {\r\n            programInfo.minPWARHolding = _minimumHolding;\r\n        }\r\n    }\r\n\r\n    function initRewards(Reward memory _rewards) public onlyOwner {\r\n        rewards.push(_rewards);\r\n    }\r\n\r\n    function initNFTItems(string[] memory _items) public onlyOwner {\r\n        for (uint256 i = 0; i < _items.length; i++) {\r\n            nftItems.push(_items[i]);\r\n        }\r\n    }\r\n\r\n    function bid(\r\n        uint256 _pid,\r\n        uint8 v,\r\n        bytes32 r,\r\n        bytes32 s,\r\n        bytes32 messageHash\r\n    ) public payable nonReentrant {\r\n        require(\r\n            owner() == ecrecover(messageHash, v, r, s),\r\n            \"Owner should sign bid info\"\r\n        );\r\n        Program storage programInfo = programs[_pid];\r\n        Participant storage user = participants[_pid][msg.sender];\r\n        require(\r\n            programInfo.isActive &&\r\n                block.timestamp >= programInfo.beginDate &&\r\n                block.timestamp < programInfo.endDate,\r\n            \"Invalid time\"\r\n        );\r\n\r\n        uint256 numberHoldingOrStaking = getNumberHoldingOrStaking(msg.sender);\r\n        require(\r\n            numberHoldingOrStaking >= programInfo.minPWARHolding,\r\n            \"Insufficient number of PWAR staking or holding\"\r\n        );\r\n        require(msg.value > programInfo.latestPrice, \"Invalid price\");\r\n\r\n        //-----update user bid info\r\n        user.bidTime = block.timestamp;\r\n        user.bidPrice = msg.value;\r\n\r\n        //-----refund previous user\r\n        //previous user infomation\r\n        Participant storage preUser = participants[_pid][\r\n            programInfo.latestUser\r\n        ];\r\n        if (programInfo.latestUser != fundOwner) {\r\n            programInfo.latestUser.transfer(preUser.bidPrice);\r\n        }\r\n\r\n        //-----updade auction info\r\n        programInfo.latestPrice = msg.value;\r\n        programInfo.latestUser = msg.sender;\r\n\r\n        arrParticipants.push(msg.sender);\r\n\r\n        emit _bid(_pid, msg.value, msg.sender);\r\n    }\r\n\r\n    function claim(uint256 _pid) public returns (uint256) {\r\n        Program storage programInfo = programs[_pid];\r\n        require(\r\n            programInfo.isActive && block.timestamp > programInfo.endDate,\r\n            \"Invalid time\"\r\n        );\r\n\r\n        require(!programInfo.isClaimed, \"Already claimed!\");\r\n\r\n        require(\r\n            programInfo.latestUser == msg.sender,\r\n            \"You are not the winner!\"\r\n        );\r\n        uint256 tokenId = itemSystem.createItem(\r\n            msg.sender,\r\n            programInfo.urlHash\r\n        );\r\n\r\n        programInfo.isClaimed = true;\r\n        programInfo.tokenId = tokenId;\r\n\r\n        emit _claim(msg.sender, _pid, tokenId);\r\n\r\n        return tokenId;\r\n    }\r\n\r\n    function open(uint256 _pid) public returns (int256, uint256) {\r\n        Program storage programInfo = programs[_pid];\r\n\r\n        require(\r\n            programInfo.tokenId > 0 && programInfo.comboRewards >= 0,\r\n            \"Not available\"\r\n        );\r\n\r\n        require(\r\n            programInfo.isActive && block.timestamp > programInfo.endDate,\r\n            \"Invalid time\"\r\n        );\r\n\r\n        require(!programInfo.isOpened, \"Already opened!\");\r\n\r\n        require(\r\n            programInfo.latestUser == msg.sender,\r\n            \"You are not the winner!\"\r\n        );\r\n\r\n        //logic and rewards\r\n        uint256 rewardIndex = uint256(programInfo.comboRewards);\r\n        Reward storage rewardOpen = rewards[rewardIndex];\r\n\r\n        polkaWar.transfer(msg.sender, rewardOpen.amountPWAR);\r\n        msg.sender.transfer(rewardOpen.amountBNB);\r\n        uint256 nftTokenId = itemSystem.createItem(\r\n            msg.sender,\r\n            nftItems[rewardOpen.itemIndex]\r\n        );\r\n\r\n        programInfo.isOpened = true;\r\n        emit _open(msg.sender, _pid, programInfo.comboRewards, nftTokenId);\r\n\r\n        return (programInfo.comboRewards, nftTokenId);\r\n    }\r\n\r\n    function withdrawToken(IERC20 token) public onlyOwner {\r\n        token.transfer(owner(), token.balanceOf(address(this)));\r\n    }\r\n\r\n    function withdrawPoolFund() public onlyOwner {\r\n        uint256 balance = address(this).balance;\r\n        require(balance > 0, \"not enough fund\");\r\n        fundOwner.transfer(balance);\r\n    }\r\n\r\n    function getNumberHoldingOrStaking(address user)\r\n        public\r\n        view\r\n        returns (uint256)\r\n    {\r\n        uint256 amountHolding = polkaWar.balanceOf(user);\r\n        (\r\n            uint256 amount,\r\n            uint256 rewardDebt,\r\n            uint256 rewardClaimed,\r\n            uint256 lastBlock,\r\n            uint256 beginTime,\r\n            uint256 endTime\r\n        ) = getUserStakingData(user, 1);\r\n        return amountHolding.add(amount);\r\n    }\r\n\r\n    function getUserStakingData(address user, uint256 poolId)\r\n        public\r\n        view\r\n        returns (\r\n            uint256 amount,\r\n            uint256 rewardDebt,\r\n            uint256 rewardClaimed,\r\n            uint256 lastBlock,\r\n            uint256 beginTime,\r\n            uint256 endTime\r\n        )\r\n    {\r\n        return (staking.userInfo(poolId, user));\r\n    }\r\n\r\n    function isUserBid(address _user, uint256 _pid) public view returns (bool) {\r\n        Participant storage user = participants[_pid][_user];\r\n        Program storage programInfo = programs[_pid];\r\n\r\n        if (\r\n            user.bidPrice > 0 &&\r\n            user.bidTime >= programInfo.beginDate &&\r\n            user.bidTime < programInfo.endDate\r\n        ) {\r\n            return true;\r\n        }\r\n        return false;\r\n    }\r\n\r\n    function getUserInfo(address _user, uint256 _pid)\r\n        public\r\n        view\r\n        returns (uint256, uint256)\r\n    {\r\n        Participant storage user = participants[_pid][_user];\r\n        Program storage programInfo = programs[_pid];\r\n        return (user.bidTime, user.bidPrice);\r\n    }\r\n\r\n    function getNumberParticipants() public view returns (uint256) {\r\n        return arrParticipants.length;\r\n    }\r\n\r\n    function setRewards(uint256 _pid, int256 _combo) public onlyOwner {\r\n        Program storage programInfo = programs[_pid];\r\n        programInfo.comboRewards = _combo;\r\n    }\r\n\r\n    receive() external payable {}\r\n}\r\n",
  "sourcePath": "C:\\Users\\Thanh Phi\\Desktop\\PolkaBridgeSolution\\polkawar\\polkawar-contract\\contracts\\PolkaWarNFTAuction.sol",
  "compiler": {
    "name": "solc",
    "version": "0.6.2+commit.bacdbe57.Emscripten.clang"
  },
  "schemaVersion": "3.4.3",
  "updatedAt": "2021-11-05T07:20:21.999Z",
  "networkType": "ethereum",
  "devdoc": {
    "methods": {
      "isOwner()": {
        "details": "Returns true if the caller is the current owner."
      },
      "owner()": {
        "details": "Returns the address of the current owner."
      },
      "renounceOwnership()": {
        "details": "Leaves the contract without owner. It will not be possible to call `onlyOwner` functions anymore. Can only be called by the current owner.     * NOTE: Renouncing ownership will leave the contract without an owner, thereby removing any functionality that is only available to the owner."
      },
      "transferOwnership(address)": {
        "details": "Transfers ownership of the contract to a new account (`newOwner`). Can only be called by the current owner."
      }
    }
  },
  "userdoc": {
    "methods": {}
  }
}