{
  "contractName": "PolkaWarFlashSale",
  "abi": [
    {
      "inputs": [
        {
          "internalType": "contract PolkaWarItemSystem",
          "name": "_itemSystem",
          "type": "address"
        },
        {
          "internalType": "contract PolkaWar",
          "name": "_polkaWar",
          "type": "address"
        },
        {
          "internalType": "contract CorgibStaking",
          "name": "_staking",
          "type": "address"
        },
        {
          "internalType": "address payable",
          "name": "_fundOwner",
          "type": "address"
        }
      ],
      "stateMutability": "nonpayable",
      "type": "constructor"
    },
    {
      "anonymous": false,
      "inputs": [
        {
          "indexed": true,
          "internalType": "address",
          "name": "previousOwner",
          "type": "address"
        },
        {
          "indexed": true,
          "internalType": "address",
          "name": "newOwner",
          "type": "address"
        }
      ],
      "name": "OwnershipTransferred",
      "type": "event"
    },
    {
      "anonymous": false,
      "inputs": [
        {
          "indexed": false,
          "internalType": "address",
          "name": "user",
          "type": "address"
        },
        {
          "indexed": false,
          "internalType": "uint256",
          "name": "tokenId",
          "type": "uint256"
        },
        {
          "indexed": false,
          "internalType": "string",
          "name": "itemInfoHash",
          "type": "string"
        }
      ],
      "name": "purchaseEvent",
      "type": "event"
    },
    {
      "anonymous": false,
      "inputs": [
        {
          "indexed": false,
          "internalType": "address",
          "name": "user",
          "type": "address"
        },
        {
          "indexed": false,
          "internalType": "uint256",
          "name": "tokenId",
          "type": "uint256"
        }
      ],
      "name": "resellEvent",
      "type": "event"
    },
    {
      "inputs": [],
      "name": "isOwner",
      "outputs": [
        {
          "internalType": "bool",
          "name": "",
          "type": "bool"
        }
      ],
      "stateMutability": "view",
      "type": "function",
      "constant": true
    },
    {
      "inputs": [
        {
          "internalType": "uint256",
          "name": "",
          "type": "uint256"
        }
      ],
      "name": "listItem",
      "outputs": [
        {
          "internalType": "uint256",
          "name": "countSlot",
          "type": "uint256"
        },
        {
          "internalType": "bool",
          "name": "isValid",
          "type": "bool"
        }
      ],
      "stateMutability": "view",
      "type": "function",
      "constant": true
    },
    {
      "inputs": [],
      "name": "maximumPerItem",
      "outputs": [
        {
          "internalType": "uint256",
          "name": "",
          "type": "uint256"
        }
      ],
      "stateMutability": "view",
      "type": "function",
      "constant": true
    },
    {
      "inputs": [],
      "name": "maximumSoldCount",
      "outputs": [
        {
          "internalType": "uint256",
          "name": "",
          "type": "uint256"
        }
      ],
      "stateMutability": "view",
      "type": "function",
      "constant": true
    },
    {
      "inputs": [],
      "name": "minimumHolding",
      "outputs": [
        {
          "internalType": "uint256",
          "name": "",
          "type": "uint256"
        }
      ],
      "stateMutability": "view",
      "type": "function",
      "constant": true
    },
    {
      "inputs": [],
      "name": "name",
      "outputs": [
        {
          "internalType": "string",
          "name": "",
          "type": "string"
        }
      ],
      "stateMutability": "view",
      "type": "function",
      "constant": true
    },
    {
      "inputs": [],
      "name": "owner",
      "outputs": [
        {
          "internalType": "address",
          "name": "",
          "type": "address"
        }
      ],
      "stateMutability": "view",
      "type": "function",
      "constant": true
    },
    {
      "inputs": [],
      "name": "renounceOwnership",
      "outputs": [],
      "stateMutability": "nonpayable",
      "type": "function"
    },
    {
      "inputs": [
        {
          "internalType": "address",
          "name": "newOwner",
          "type": "address"
        }
      ],
      "name": "transferOwnership",
      "outputs": [],
      "stateMutability": "nonpayable",
      "type": "function"
    },
    {
      "stateMutability": "payable",
      "type": "receive",
      "payable": true
    },
    {
      "inputs": [
        {
          "internalType": "uint256[]",
          "name": "_lstItem",
          "type": "uint256[]"
        }
      ],
      "name": "initItem",
      "outputs": [],
      "stateMutability": "nonpayable",
      "type": "function"
    },
    {
      "inputs": [
        {
          "internalType": "uint256",
          "name": "_beginDate",
          "type": "uint256"
        },
        {
          "internalType": "uint256",
          "name": "_endDate",
          "type": "uint256"
        },
        {
          "internalType": "uint256",
          "name": "_maximumSoldCount",
          "type": "uint256"
        },
        {
          "internalType": "uint256",
          "name": "_maximumPerItem",
          "type": "uint256"
        },
        {
          "internalType": "uint256",
          "name": "_price",
          "type": "uint256"
        },
        {
          "internalType": "uint256",
          "name": "_buybackprice",
          "type": "uint256"
        },
        {
          "internalType": "uint256",
          "name": "_resellBeginDate",
          "type": "uint256"
        },
        {
          "internalType": "uint256",
          "name": "_resellEndDate",
          "type": "uint256"
        },
        {
          "internalType": "uint256",
          "name": "_minimumHolding",
          "type": "uint256"
        }
      ],
      "name": "changeConstant",
      "outputs": [],
      "stateMutability": "nonpayable",
      "type": "function"
    },
    {
      "inputs": [
        {
          "internalType": "uint256",
          "name": "itemId",
          "type": "uint256"
        },
        {
          "internalType": "string",
          "name": "itemInfoHash",
          "type": "string"
        },
        {
          "internalType": "uint8",
          "name": "v",
          "type": "uint8"
        },
        {
          "internalType": "bytes32",
          "name": "r",
          "type": "bytes32"
        },
        {
          "internalType": "bytes32",
          "name": "s",
          "type": "bytes32"
        },
        {
          "internalType": "bytes32",
          "name": "messageHash",
          "type": "bytes32"
        }
      ],
      "name": "purchaseItem",
      "outputs": [
        {
          "internalType": "uint256",
          "name": "",
          "type": "uint256"
        }
      ],
      "stateMutability": "payable",
      "type": "function",
      "payable": true
    },
    {
      "inputs": [],
      "name": "resellItemForSystem",
      "outputs": [],
      "stateMutability": "nonpayable",
      "type": "function"
    },
    {
      "inputs": [
        {
          "internalType": "address",
          "name": "user",
          "type": "address"
        }
      ],
      "name": "isPurchased",
      "outputs": [
        {
          "internalType": "bool",
          "name": "",
          "type": "bool"
        }
      ],
      "stateMutability": "view",
      "type": "function",
      "constant": true
    },
    {
      "inputs": [],
      "name": "getTotalParticipants",
      "outputs": [
        {
          "internalType": "uint256",
          "name": "",
          "type": "uint256"
        }
      ],
      "stateMutability": "view",
      "type": "function",
      "constant": true
    },
    {
      "inputs": [
        {
          "internalType": "address",
          "name": "user",
          "type": "address"
        }
      ],
      "name": "getNumberHoldingOrStaking",
      "outputs": [
        {
          "internalType": "uint256",
          "name": "",
          "type": "uint256"
        }
      ],
      "stateMutability": "view",
      "type": "function",
      "constant": true
    },
    {
      "inputs": [
        {
          "internalType": "address",
          "name": "user",
          "type": "address"
        },
        {
          "internalType": "uint256",
          "name": "poolId",
          "type": "uint256"
        }
      ],
      "name": "getUserStakingData",
      "outputs": [
        {
          "internalType": "uint256",
          "name": "amount",
          "type": "uint256"
        },
        {
          "internalType": "uint256",
          "name": "rewardDebt",
          "type": "uint256"
        },
        {
          "internalType": "uint256",
          "name": "rewardClaimed",
          "type": "uint256"
        },
        {
          "internalType": "uint256",
          "name": "lastBlock",
          "type": "uint256"
        },
        {
          "internalType": "uint256",
          "name": "beginTime",
          "type": "uint256"
        },
        {
          "internalType": "uint256",
          "name": "endTime",
          "type": "uint256"
        }
      ],
      "stateMutability": "view",
      "type": "function",
      "constant": true
    },
    {
      "inputs": [
        {
          "internalType": "contract IERC20",
          "name": "token",
          "type": "address"
        }
      ],
      "name": "withdrawToken",
      "outputs": [],
      "stateMutability": "nonpayable",
      "type": "function"
    },
    {
      "inputs": [],
      "name": "withdrawPoolFund",
      "outputs": [],
      "stateMutability": "nonpayable",
      "type": "function"
    }
  ],
  "bytecode": "0x60806040526040518060400160405280601781526020017f506f6c6b615761723a204e465420466c61736853616c650000000000000000008152506002908051906020019062000051929190620002bc565b503480156200005f57600080fd5b5060405162002cd138038062002cd18339818101604052620000859190810190620003c7565b600062000097620002b460201b60201c565b9050806000806101000a81548173ffffffffffffffffffffffffffffffffffffffff021916908373ffffffffffffffffffffffffffffffffffffffff1602179055508073ffffffffffffffffffffffffffffffffffffffff16600073ffffffffffffffffffffffffffffffffffffffff167f8be0079c531659141344cd1fd0a4f28419497f9722a3daafe3b4186f6b6457e060405160405180910390a3506001808190555083600360006101000a81548173ffffffffffffffffffffffffffffffffffffffff021916908373ffffffffffffffffffffffffffffffffffffffff16021790555082600460006101000a81548173ffffffffffffffffffffffffffffffffffffffff021916908373ffffffffffffffffffffffffffffffffffffffff16021790555081600560006101000a81548173ffffffffffffffffffffffffffffffffffffffff021916908373ffffffffffffffffffffffffffffffffffffffff16021790555080600660006101000a81548173ffffffffffffffffffffffffffffffffffffffff021916908373ffffffffffffffffffffffffffffffffffffffff160217905550608c6009819055506014600a819055506361868a606007819055506361869870600881905550636186a680600e81905550636186b490600f81905550670de0b6b3a7640000600b81905550686c6b935b8bbd400000600c81905550670f43fc2c04ee0000600d81905550505050506200051f565b600033905090565b828054600181600116156101000203166002900490600052602060002090601f016020900481019282601f10620002ff57805160ff191683800117855562000330565b8280016001018555821562000330579182015b828111156200032f57825182559160200191906001019062000312565b5b5090506200033f919062000343565b5090565b6200036891905b80821115620003645760008160009055506001016200034a565b5090565b90565b6000815190506200037c81620004b7565b92915050565b6000815190506200039381620004d1565b92915050565b600081519050620003aa81620004eb565b92915050565b600081519050620003c18162000505565b92915050565b60008060008060808587031215620003de57600080fd5b6000620003ee8782880162000399565b94505060206200040187828801620003b0565b9350506040620004148782880162000382565b925050606062000427878288016200036b565b91505092959194509250565b6000620004408262000497565b9050919050565b6000620004548262000497565b9050919050565b6000620004688262000433565b9050919050565b60006200047c8262000433565b9050919050565b6000620004908262000433565b9050919050565b600073ffffffffffffffffffffffffffffffffffffffff82169050919050565b620004c28162000447565b8114620004ce57600080fd5b50565b620004dc816200045b565b8114620004e857600080fd5b50565b620004f6816200046f565b81146200050257600080fd5b50565b620005108162000483565b81146200051c57600080fd5b50565b6127a2806200052f6000396000f3fe6080604052600436106101185760003560e01c8063715018a6116100a05780638f32d59b116100645780638f32d59b1461039157806398e08f44146103bc578063a90cc445146103e7578063f2fde38b14610412578063f507ef4a1461043b5761011f565b8063715018a6146102be57806375d1f57c146102d55780637e49487714610300578063894760691461033d5780638da5cb5b146103665761011f565b80631f4552cb116100e75780631f4552cb146101e55780632ce38190146101fc57806346b96be91461023a5780636219ea5114610265578063643c93941461028e5761011f565b806306fdde03146101245780630b17c6731461014f57806312ff08fd1461019157806316236fda146101a85761011f565b3661011f57005b600080fd5b34801561013057600080fd5b50610139610464565b6040516101469190612250565b60405180910390f35b34801561015b57600080fd5b506101766004803603610171919081019061189a565b610502565b604051610188969594939291906124df565b60405180910390f35b34801561019d57600080fd5b506101a66105ce565b005b3480156101b457600080fd5b506101cf60048036036101ca9190810190611871565b61089c565b6040516101dc91906121f0565b60405180910390f35b3480156101f157600080fd5b506101fa6108f8565b005b34801561020857600080fd5b50610223600480360361021e9190810190611969565b6109f3565b6040516102319291906124b6565b60405180910390f35b34801561024657600080fd5b5061024f610a24565b60405161025c9190612472565b60405180910390f35b34801561027157600080fd5b5061028c60048036036102879190810190611ae5565b610a2a565b005b6102a860048036036102a391908101906119bb565b610b15565b6040516102b59190612472565b60405180910390f35b3480156102ca57600080fd5b506102d3611053565b005b3480156102e157600080fd5b506102ea611159565b6040516102f79190612472565b60405180910390f35b34801561030c57600080fd5b5061032760048036036103229190810190611871565b61115f565b6040516103349190612472565b60405180910390f35b34801561034957600080fd5b50610364600480360361035f9190810190611940565b611250565b005b34801561037257600080fd5b5061037b6113b7565b60405161038891906120c3565b60405180910390f35b34801561039d57600080fd5b506103a66113e0565b6040516103b391906121f0565b60405180910390f35b3480156103c857600080fd5b506103d161143e565b6040516103de9190612472565b60405180910390f35b3480156103f357600080fd5b506103fc611444565b6040516104099190612472565b60405180910390f35b34801561041e57600080fd5b5061043960048036036104349190810190611871565b611451565b005b34801561044757600080fd5b50610462600480360361045d91908101906118d6565b6114a4565b005b60028054600181600116156101000203166002900480601f0160208091040260200160405190810160405280929190818152602001828054600181600116156101000203166002900480156104fa5780601f106104cf576101008083540402835291602001916104fa565b820191906000526020600020905b8154815290600101906020018083116104dd57829003601f168201915b505050505081565b600080600080600080600560009054906101000a900473ffffffffffffffffffffffffffffffffffffffff1673ffffffffffffffffffffffffffffffffffffffff166393f1a40b888a6040518363ffffffff1660e01b815260040161056892919061248d565b60c06040518083038186803b15801561058057600080fd5b505afa158015610594573d6000803e3d6000fd5b505050506040513d601f19601f820116820180604052506105b89190810190611a5c565b9550955095509550955095509295509295509295565b60026001541415610614576040517f08c379a000000000000000000000000000000000000000000000000000000000815260040161060b90612452565b60405180910390fd5b60026001819055506000339050600e54421015610666576040517f08c379a000000000000000000000000000000000000000000000000000000000815260040161065d90612432565b60405180910390fd5b600f544211156106ab576040517f08c379a00000000000000000000000000000000000000000000000000000000081526004016106a2906122b2565b60405180910390fd5b600d544710156106f0576040517f08c379a00000000000000000000000000000000000000000000000000000000081526004016106e790612272565b60405180910390fd5b6000601060008373ffffffffffffffffffffffffffffffffffffffff1673ffffffffffffffffffffffffffffffffffffffff16815260200190815260200160002054905060008111610777576040517f08c379a000000000000000000000000000000000000000000000000000000000815260040161076e906123d2565b60405180910390fd5b600360009054906101000a900473ffffffffffffffffffffffffffffffffffffffff1673ffffffffffffffffffffffffffffffffffffffff166342842e0e836107be6113b7565b846040518463ffffffff1660e01b81526004016107dd939291906120f9565b600060405180830381600087803b1580156107f757600080fd5b505af115801561080b573d6000803e3d6000fd5b505050508173ffffffffffffffffffffffffffffffffffffffff166108fc600d549081150290604051600060405180830381858888f19350505050158015610857573d6000803e3d6000fd5b507f3282c5728f94ad74316c6ef27bed5a1753666478212cf8d64f9787baeff1c3a08282604051610889929190612160565b60405180910390a1505060018081905550565b600080601060008473ffffffffffffffffffffffffffffffffffffffff1673ffffffffffffffffffffffffffffffffffffffff1681526020019081526020016000205411156108ee57600190506108f3565b600090505b919050565b6109006113e0565b61093f576040517f08c379a000000000000000000000000000000000000000000000000000000000815260040161093690612412565b60405180910390fd5b600047905060008111610987576040517f08c379a000000000000000000000000000000000000000000000000000000000815260040161097e90612272565b60405180910390fd5b600660009054906101000a900473ffffffffffffffffffffffffffffffffffffffff1673ffffffffffffffffffffffffffffffffffffffff166108fc829081150290604051600060405180830381858888f193505050501580156109ef573d6000803e3d6000fd5b5050565b60126020528060005260406000206000915090508060000154908060010160009054906101000a900460ff16905082565b600a5481565b610a326113e0565b610a71576040517f08c379a0000000000000000000000000000000000000000000000000000000008152600401610a6890612412565b60405180910390fd5b6000891115610a8257886007819055505b6000881115610a9357876008819055505b6000871115610aa457866009819055505b6000851115610ab55784600b819055505b6000841115610ac65783600d819055505b6000831115610ad75782600e819055505b6000821115610ae85781600f819055505b6000861115610af95785600a819055505b6000811115610b0a5780600c819055505b505050505050505050565b600060026001541415610b5d576040517f08c379a0000000000000000000000000000000000000000000000000000000008152600401610b5490612452565b60405180910390fd5b600260018190555060018286868660405160008152602001604052604051610b88949392919061220b565b6020604051602081039080840390855afa158015610baa573d6000803e3d6000fd5b5050506020604051035173ffffffffffffffffffffffffffffffffffffffff16610bd26113b7565b73ffffffffffffffffffffffffffffffffffffffff1614610c28576040517f08c379a0000000000000000000000000000000000000000000000000000000008152600401610c1f90612372565b60405180910390fd5b6007544210158015610c3c57506008544211155b610c7b576040517f08c379a0000000000000000000000000000000000000000000000000000000008152600401610c72906123b2565b60405180910390fd5b600954610c86611444565b1115610cc7576040517f08c379a0000000000000000000000000000000000000000000000000000000008152600401610cbe90612292565b60405180910390fd5b6012600088815260200190815260200160002060010160009054906101000a900460ff16610d2a576040517f08c379a0000000000000000000000000000000000000000000000000000000008152600401610d2190612312565b60405180910390fd5b600a54601260008981526020019081526020016000206000015410610d84576040517f08c379a0000000000000000000000000000000000000000000000000000000008152600401610d7b906122d2565b60405180910390fd5b600b54341015610dc9576040517f08c379a0000000000000000000000000000000000000000000000000000000008152600401610dc090612392565b60405180910390fd5b610dd23361089c565b15610e12576040517f08c379a0000000000000000000000000000000000000000000000000000000008152600401610e0990612332565b60405180910390fd5b6000610e1d3361115f565b9050600c54811015610e64576040517f08c379a0000000000000000000000000000000000000000000000000000000008152600401610e5b906123f2565b60405180910390fd5b6000600360009054906101000a900473ffffffffffffffffffffffffffffffffffffffff1673ffffffffffffffffffffffffffffffffffffffff166326fb76c2338a6040518363ffffffff1660e01b8152600401610ec3929190612130565b602060405180830381600087803b158015610edd57600080fd5b505af1158015610ef1573d6000803e3d6000fd5b505050506040513d601f19601f82011682018060405250610f159190810190611992565b905080601060003373ffffffffffffffffffffffffffffffffffffffff1673ffffffffffffffffffffffffffffffffffffffff168152602001908152602001600020819055506011339080600181540180825580915050600190039060005260206000200160009091909190916101000a81548173ffffffffffffffffffffffffffffffffffffffff021916908373ffffffffffffffffffffffffffffffffffffffff160217905550610fe86001601260008c81526020019081526020016000206000015461157c90919063ffffffff16565b601260008b8152602001908152602001600020600001819055507f4d0bbb7346d6e6d241e24d929f2a7ff4b7cb04b43be6853dcbf869e00de4e71633828a60405161103593929190612189565b60405180910390a18092505050600180819055509695505050505050565b61105b6113e0565b61109a576040517f08c379a000000000000000000000000000000000000000000000000000000000815260040161109190612412565b60405180910390fd5b600073ffffffffffffffffffffffffffffffffffffffff166000809054906101000a900473ffffffffffffffffffffffffffffffffffffffff1673ffffffffffffffffffffffffffffffffffffffff167f8be0079c531659141344cd1fd0a4f28419497f9722a3daafe3b4186f6b6457e060405160405180910390a360008060006101000a81548173ffffffffffffffffffffffffffffffffffffffff021916908373ffffffffffffffffffffffffffffffffffffffff160217905550565b60095481565b600080600460009054906101000a900473ffffffffffffffffffffffffffffffffffffffff1673ffffffffffffffffffffffffffffffffffffffff166370a08231846040518263ffffffff1660e01b81526004016111bd91906120c3565b60206040518083038186803b1580156111d557600080fd5b505afa1580156111e9573d6000803e3d6000fd5b505050506040513d601f19601f8201168201806040525061120d9190810190611992565b9050600080600080600080611223896001610502565b955095509550955095509550611242868861157c90919063ffffffff16565b975050505050505050919050565b6112586113e0565b611297576040517f08c379a000000000000000000000000000000000000000000000000000000000815260040161128e90612412565b60405180910390fd5b8073ffffffffffffffffffffffffffffffffffffffff1663a9059cbb6112bb6113b7565b8373ffffffffffffffffffffffffffffffffffffffff166370a08231306040518263ffffffff1660e01b81526004016112f491906120de565b60206040518083038186803b15801561130c57600080fd5b505afa158015611320573d6000803e3d6000fd5b505050506040513d601f19601f820116820180604052506113449190810190611992565b6040518363ffffffff1660e01b81526004016113619291906121c7565b602060405180830381600087803b15801561137b57600080fd5b505af115801561138f573d6000803e3d6000fd5b505050506040513d601f19601f820116820180604052506113b39190810190611917565b5050565b60008060009054906101000a900473ffffffffffffffffffffffffffffffffffffffff16905090565b60008060009054906101000a900473ffffffffffffffffffffffffffffffffffffffff1673ffffffffffffffffffffffffffffffffffffffff166114226115d1565b73ffffffffffffffffffffffffffffffffffffffff1614905090565b600c5481565b6000601180549050905090565b6114596113e0565b611498576040517f08c379a000000000000000000000000000000000000000000000000000000000815260040161148f90612412565b60405180910390fd5b6114a1816115d9565b50565b6114ac6113e0565b6114eb576040517f08c379a00000000000000000000000000000000000000000000000000000000081526004016114e290612412565b60405180910390fd5b60008090505b81518110156115785760016012600084848151811061150c57fe5b6020026020010151815260200190815260200160002060010160006101000a81548160ff02191690831515021790555060006012600084848151811061154e57fe5b602002602001015181526020019081526020016000206000018190555080806001019150506114f1565b5050565b6000808284019050838110156115c7576040517f08c379a00000000000000000000000000000000000000000000000000000000081526004016115be90612352565b60405180910390fd5b8091505092915050565b600033905090565b600073ffffffffffffffffffffffffffffffffffffffff168173ffffffffffffffffffffffffffffffffffffffff161415611649576040517f08c379a0000000000000000000000000000000000000000000000000000000008152600401611640906122f2565b60405180910390fd5b8073ffffffffffffffffffffffffffffffffffffffff166000809054906101000a900473ffffffffffffffffffffffffffffffffffffffff1673ffffffffffffffffffffffffffffffffffffffff167f8be0079c531659141344cd1fd0a4f28419497f9722a3daafe3b4186f6b6457e060405160405180910390a3806000806101000a81548173ffffffffffffffffffffffffffffffffffffffff021916908373ffffffffffffffffffffffffffffffffffffffff16021790555050565b600081359050611716816126e2565b92915050565b600082601f83011261172d57600080fd5b813561174061173b8261256d565b612540565b9150818183526020840193506020810190508385602084028201111561176557600080fd5b60005b83811015611795578161177b8882611832565b845260208401935060208301925050600181019050611768565b5050505092915050565b6000815190506117ae816126f9565b92915050565b6000813590506117c381612710565b92915050565b6000813590506117d881612727565b92915050565b600082601f8301126117ef57600080fd5b81356118026117fd82612595565b612540565b9150808252602083016020830185838301111561181e57600080fd5b61182983828461268f565b50505092915050565b6000813590506118418161273e565b92915050565b6000815190506118568161273e565b92915050565b60008135905061186b81612755565b92915050565b60006020828403121561188357600080fd5b600061189184828501611707565b91505092915050565b600080604083850312156118ad57600080fd5b60006118bb85828601611707565b92505060206118cc85828601611832565b9150509250929050565b6000602082840312156118e857600080fd5b600082013567ffffffffffffffff81111561190257600080fd5b61190e8482850161171c565b91505092915050565b60006020828403121561192957600080fd5b60006119378482850161179f565b91505092915050565b60006020828403121561195257600080fd5b6000611960848285016117c9565b91505092915050565b60006020828403121561197b57600080fd5b600061198984828501611832565b91505092915050565b6000602082840312156119a457600080fd5b60006119b284828501611847565b91505092915050565b60008060008060008060c087890312156119d457600080fd5b60006119e289828a01611832565b965050602087013567ffffffffffffffff8111156119ff57600080fd5b611a0b89828a016117de565b9550506040611a1c89828a0161185c565b9450506060611a2d89828a016117b4565b9350506080611a3e89828a016117b4565b92505060a0611a4f89828a016117b4565b9150509295509295509295565b60008060008060008060c08789031215611a7557600080fd5b6000611a8389828a01611847565b9650506020611a9489828a01611847565b9550506040611aa589828a01611847565b9450506060611ab689828a01611847565b9350506080611ac789828a01611847565b92505060a0611ad889828a01611847565b9150509295509295509295565b60008060008060008060008060006101208a8c031215611b0457600080fd5b6000611b128c828d01611832565b9950506020611b238c828d01611832565b9850506040611b348c828d01611832565b9750506060611b458c828d01611832565b9650506080611b568c828d01611832565b95505060a0611b678c828d01611832565b94505060c0611b788c828d01611832565b93505060e0611b898c828d01611832565b925050610100611b9b8c828d01611832565b9150509295985092959850929598565b611bb481612659565b82525050565b611bc3816125e8565b82525050565b611bd2816125fa565b82525050565b611be181612606565b82525050565b6000611bf2826125cc565b611bfc81856125d7565b9350611c0c81856020860161269e565b611c15816126d1565b840191505092915050565b6000611c2b826125c1565b611c3581856125d7565b9350611c4581856020860161269e565b611c4e816126d1565b840191505092915050565b6000611c66600f836125d7565b91507f6e6f7420656e6f7567682066756e6400000000000000000000000000000000006000830152602082019050919050565b6000611ca66015836125d7565b91507f72656163686564206d6178696d756d20736c6f747300000000000000000000006000830152602082019050919050565b6000611ce66015836125d7565b91507f6275796261636b2070726f6772616d20656e64656400000000000000000000006000830152602082019050919050565b6000611d266015836125d7565b91507f54686973206974656d20697320736f6c64206f757400000000000000000000006000830152602082019050919050565b6000611d666026836125d7565b91507f4f776e61626c653a206e6577206f776e657220697320746865207a65726f206160008301527f64647265737300000000000000000000000000000000000000000000000000006020830152604082019050919050565b6000611dcc600e836125d7565b91507f6e6f742076616c6964206974656d0000000000000000000000000000000000006000830152602082019050919050565b6000611e0c6011836125d7565b91507f616c7265616479207075726368617365640000000000000000000000000000006000830152602082019050919050565b6000611e4c601b836125d7565b91507f536166654d6174683a206164646974696f6e206f766572666c6f7700000000006000830152602082019050919050565b6000611e8c601f836125d7565b91507f6f776e65722073686f756c64207369676e20707572636861736520696e666f006000830152602082019050919050565b6000611ecc600d836125d7565b91507f696e76616c6964207072696365000000000000000000000000000000000000006000830152602082019050919050565b6000611f0c6012836125d7565b91507f666c61736873616c652066696e697368656400000000000000000000000000006000830152602082019050919050565b6000611f4c600c836125d7565b91507f696e76616c6964206974656d00000000000000000000000000000000000000006000830152602082019050919050565b6000611f8c602e836125d7565b91507f496e73756666696369656e74206e756d626572206f662050574152207374616b60008301527f696e67206f7220686f6c64696e670000000000000000000000000000000000006020830152604082019050919050565b6000611ff26020836125d7565b91507f4f776e61626c653a2063616c6c6572206973206e6f7420746865206f776e65726000830152602082019050919050565b6000612032601f836125d7565b91507f6275796261636b2070726f6772616d206e6f74207374617274656420796574006000830152602082019050919050565b6000612072601f836125d7565b91507f5265656e7472616e637947756172643a207265656e7472616e742063616c6c006000830152602082019050919050565b6120ae81612642565b82525050565b6120bd8161264c565b82525050565b60006020820190506120d86000830184611bba565b92915050565b60006020820190506120f36000830184611bab565b92915050565b600060608201905061210e6000830186611bab565b61211b6020830185611bba565b61212860408301846120a5565b949350505050565b60006040820190506121456000830185611bab565b81810360208301526121578184611be7565b90509392505050565b60006040820190506121756000830185611bab565b61218260208301846120a5565b9392505050565b600060608201905061219e6000830186611bab565b6121ab60208301856120a5565b81810360408301526121bd8184611be7565b9050949350505050565b60006040820190506121dc6000830185611bba565b6121e960208301846120a5565b9392505050565b60006020820190506122056000830184611bc9565b92915050565b60006080820190506122206000830187611bd8565b61222d60208301866120b4565b61223a6040830185611bd8565b6122476060830184611bd8565b95945050505050565b6000602082019050818103600083015261226a8184611c20565b905092915050565b6000602082019050818103600083015261228b81611c59565b9050919050565b600060208201905081810360008301526122ab81611c99565b9050919050565b600060208201905081810360008301526122cb81611cd9565b9050919050565b600060208201905081810360008301526122eb81611d19565b9050919050565b6000602082019050818103600083015261230b81611d59565b9050919050565b6000602082019050818103600083015261232b81611dbf565b9050919050565b6000602082019050818103600083015261234b81611dff565b9050919050565b6000602082019050818103600083015261236b81611e3f565b9050919050565b6000602082019050818103600083015261238b81611e7f565b9050919050565b600060208201905081810360008301526123ab81611ebf565b9050919050565b600060208201905081810360008301526123cb81611eff565b9050919050565b600060208201905081810360008301526123eb81611f3f565b9050919050565b6000602082019050818103600083015261240b81611f7f565b9050919050565b6000602082019050818103600083015261242b81611fe5565b9050919050565b6000602082019050818103600083015261244b81612025565b9050919050565b6000602082019050818103600083015261246b81612065565b9050919050565b600060208201905061248760008301846120a5565b92915050565b60006040820190506124a260008301856120a5565b6124af6020830184611bba565b9392505050565b60006040820190506124cb60008301856120a5565b6124d86020830184611bc9565b9392505050565b600060c0820190506124f460008301896120a5565b61250160208301886120a5565b61250e60408301876120a5565b61251b60608301866120a5565b61252860808301856120a5565b61253560a08301846120a5565b979650505050505050565b6000604051905081810181811067ffffffffffffffff8211171561256357600080fd5b8060405250919050565b600067ffffffffffffffff82111561258457600080fd5b602082029050602081019050919050565b600067ffffffffffffffff8211156125ac57600080fd5b601f19601f8301169050602081019050919050565b600081519050919050565b600081519050919050565b600082825260208201905092915050565b60006125f382612622565b9050919050565b60008115159050919050565b6000819050919050565b600061261b826125e8565b9050919050565b600073ffffffffffffffffffffffffffffffffffffffff82169050919050565b6000819050919050565b600060ff82169050919050565b60006126648261266b565b9050919050565b60006126768261267d565b9050919050565b600061268882612622565b9050919050565b82818337600083830152505050565b60005b838110156126bc5780820151818401526020810190506126a1565b838111156126cb576000848401525b50505050565b6000601f19601f8301169050919050565b6126eb816125e8565b81146126f657600080fd5b50565b612702816125fa565b811461270d57600080fd5b50565b61271981612606565b811461272457600080fd5b50565b61273081612610565b811461273b57600080fd5b50565b61274781612642565b811461275257600080fd5b50565b61275e8161264c565b811461276957600080fd5b5056fea264697066735822122048d182f87964a6431513f339ceea0e7a25247ed0c5e9552628612b2619f5bc9c64736f6c63430006020033",
  "source": "pragma solidity >=0.6.0;\r\npragma experimental ABIEncoderV2;\r\n\r\nimport \"@openzeppelin/contracts/ownership/Ownable.sol\";\r\nimport \"./ReentrancyGuard.sol\";\r\nimport \"./PolkaWarItemSystem.sol\";\r\nimport \"./PolkaWar.sol\";\r\nimport \"./CorgibStaking.sol\";\r\nimport \"@openzeppelin/contracts/math/SafeMath.sol\";\r\nimport \"@openzeppelin/contracts/token/ERC20/SafeERC20.sol\";\r\n\r\ncontract PolkaWarFlashSale is Ownable, ReentrancyGuard {\r\n    string public name = \"PolkaWar: NFT FlashSale\";\r\n    using SafeMath for uint256;\r\n    using SafeERC20 for IERC20;\r\n\r\n    PolkaWarItemSystem itemSystem;\r\n    PolkaWar polkaWar;\r\n    CorgibStaking staking;\r\n    address payable private fundOwner;\r\n\r\n    uint256 beginDate;\r\n    uint256 endDate;\r\n    uint256 public maximumSoldCount;\r\n    uint256 public maximumPerItem;\r\n    uint256 price;\r\n    uint256 public minimumHolding;\r\n    uint256 buybackPrice;\r\n    uint256 resellBeginDate;\r\n    uint256 resellEndDate;\r\n\r\n    struct Item {\r\n        uint256 countSlot;\r\n        bool isValid;\r\n    }\r\n\r\n    //list airdrop item\r\n\r\n    mapping(address => uint256) internal participants; //user-tokenid (1user can only buy 1 NFT in flashsale)\r\n    address[] internal arrParticipants; //user-tokenid\r\n\r\n    mapping(uint256 => Item) public listItem;\r\n\r\n    event purchaseEvent(address user, uint256 tokenId, string itemInfoHash);\r\n\r\n    event resellEvent(address user, uint256 tokenId);\r\n\r\n    constructor(\r\n        PolkaWarItemSystem _itemSystem,\r\n        PolkaWar _polkaWar,\r\n        CorgibStaking _staking,\r\n        address payable _fundOwner\r\n    ) public {\r\n        itemSystem = _itemSystem;\r\n        polkaWar = _polkaWar;\r\n        staking = _staking;\r\n        fundOwner = _fundOwner;\r\n        maximumSoldCount = 140;\r\n        maximumPerItem = 20;\r\n\r\n        beginDate = 1636207200;\r\n        endDate = 1636210800;\r\n        resellBeginDate = 1636214400;\r\n        resellEndDate = 1636218000;\r\n\r\n        price = 1000000000000000000;\r\n        minimumHolding = 2000000000000000000000;\r\n        buybackPrice = 1100000000000000000;\r\n    }\r\n\r\n    function initItem(uint256[] memory _lstItem) public onlyOwner {\r\n        for (uint256 i = 0; i < _lstItem.length; i++) {\r\n            listItem[_lstItem[i]].isValid = true;\r\n            listItem[_lstItem[i]].countSlot = 0;\r\n        }\r\n    }\r\n\r\n    function changeConstant(\r\n        uint256 _beginDate,\r\n        uint256 _endDate,\r\n        uint256 _maximumSoldCount,\r\n        uint256 _maximumPerItem,\r\n        uint256 _price,\r\n        uint256 _buybackprice,\r\n        uint256 _resellBeginDate,\r\n        uint256 _resellEndDate,\r\n        uint256 _minimumHolding\r\n    ) public onlyOwner {\r\n        if (_beginDate > 0) {\r\n            beginDate = _beginDate;\r\n        }\r\n        if (_endDate > 0) {\r\n            endDate = _endDate;\r\n        }\r\n        if (_maximumSoldCount > 0) {\r\n            maximumSoldCount = _maximumSoldCount;\r\n        }\r\n        if (_price > 0) {\r\n            price = _price;\r\n        }\r\n        if (_buybackprice > 0) {\r\n            buybackPrice = _buybackprice;\r\n        }\r\n        if (_resellBeginDate > 0) {\r\n            resellBeginDate = _resellBeginDate;\r\n        }\r\n        if (_resellEndDate > 0) {\r\n            resellEndDate = _resellEndDate;\r\n        }\r\n        if (_maximumPerItem > 0) {\r\n            maximumPerItem = _maximumPerItem;\r\n        }\r\n        if (_minimumHolding > 0) {\r\n            minimumHolding = _minimumHolding;\r\n        }\r\n    }\r\n\r\n    function purchaseItem(\r\n        uint256 itemId,\r\n        string memory itemInfoHash,\r\n        uint8 v,\r\n        bytes32 r,\r\n        bytes32 s,\r\n        bytes32 messageHash\r\n    ) public payable nonReentrant returns (uint256) {\r\n        require(\r\n            owner() == ecrecover(messageHash, v, r, s),\r\n            \"owner should sign purchase info\"\r\n        );\r\n\r\n        require(\r\n            block.timestamp >= beginDate && block.timestamp <= endDate,\r\n            \"flashsale finished\"\r\n        );\r\n        require(\r\n            getTotalParticipants() <= maximumSoldCount,\r\n            \"reached maximum slots\"\r\n        );\r\n        require(listItem[itemId].isValid, \"not valid item\");\r\n        require(\r\n            listItem[itemId].countSlot < maximumPerItem,\r\n            \"This item is sold out\"\r\n        );\r\n        require(msg.value >= price, \"invalid price\");\r\n        require(!isPurchased(msg.sender), \"already purchased\");\r\n\r\n        uint256 numberHoldingOrStaking = getNumberHoldingOrStaking(msg.sender);\r\n        require(\r\n            numberHoldingOrStaking >= minimumHolding,\r\n            \"Insufficient number of PWAR staking or holding\"\r\n        );\r\n\r\n        uint256 tokenId = itemSystem.createItem(msg.sender, itemInfoHash);\r\n        participants[msg.sender] = tokenId;\r\n        arrParticipants.push(msg.sender);\r\n        listItem[itemId].countSlot = listItem[itemId].countSlot.add(1);\r\n\r\n        emit purchaseEvent(msg.sender, tokenId, itemInfoHash);\r\n\r\n        return tokenId;\r\n    }\r\n\r\n    //resell flashsale item for system\r\n    function resellItemForSystem() public nonReentrant {\r\n        address payable user = msg.sender;\r\n\r\n        require(\r\n            block.timestamp >= resellBeginDate,\r\n            \"buyback program not started yet\"\r\n        );\r\n        require(block.timestamp <= resellEndDate, \"buyback program ended\");\r\n        require(address(this).balance >= buybackPrice, \"not enough fund\");\r\n\r\n        uint256 ownTokenId = participants[user];\r\n        require(ownTokenId > 0, \"invalid item\");\r\n\r\n        itemSystem.safeTransferFrom(user, owner(), ownTokenId);\r\n\r\n        user.transfer(buybackPrice);\r\n\r\n        emit resellEvent(user, ownTokenId);\r\n    }\r\n\r\n    function isPurchased(address user) public view returns (bool) {\r\n        if (participants[user] > 0) return true;\r\n        return false;\r\n    }\r\n\r\n    function getTotalParticipants() public view returns (uint256) {\r\n        return arrParticipants.length;\r\n    }\r\n\r\n    function getNumberHoldingOrStaking(address user)\r\n        public\r\n        view\r\n        returns (uint256)\r\n    {\r\n        uint256 amountHolding = polkaWar.balanceOf(user);\r\n        (\r\n            uint256 amount,\r\n            uint256 rewardDebt,\r\n            uint256 rewardClaimed,\r\n            uint256 lastBlock,\r\n            uint256 beginTime,\r\n            uint256 endTime\r\n        ) = getUserStakingData(user, 1);\r\n        return amountHolding.add(amount);\r\n    }\r\n\r\n    function getUserStakingData(address user, uint256 poolId)\r\n        public\r\n        view\r\n        returns (\r\n            uint256 amount,\r\n            uint256 rewardDebt,\r\n            uint256 rewardClaimed,\r\n            uint256 lastBlock,\r\n            uint256 beginTime,\r\n            uint256 endTime\r\n        )\r\n    {\r\n        return (staking.userInfo(poolId, user));\r\n    }\r\n\r\n    function withdrawToken(IERC20 token) public onlyOwner {\r\n        token.transfer(owner(), token.balanceOf(address(this)));\r\n    }\r\n\r\n    function withdrawPoolFund() public onlyOwner {\r\n        uint256 balance = address(this).balance;\r\n        require(balance > 0, \"not enough fund\");\r\n        fundOwner.transfer(balance);\r\n    }\r\n\r\n    receive() external payable {}\r\n}\r\n",
  "sourcePath": "C:\\Users\\Thanh Phi\\Desktop\\PolkaBridgeSolution\\polkawar\\polkawar-contract\\contracts\\PolkaWarFlashSale.sol",
  "compiler": {
    "name": "solc",
    "version": "0.6.2+commit.bacdbe57.Emscripten.clang"
  },
  "schemaVersion": "3.4.3",
  "updatedAt": "2021-11-05T07:20:21.982Z",
  "networkType": "ethereum",
  "devdoc": {
    "methods": {
      "isOwner()": {
        "details": "Returns true if the caller is the current owner."
      },
      "owner()": {
        "details": "Returns the address of the current owner."
      },
      "renounceOwnership()": {
        "details": "Leaves the contract without owner. It will not be possible to call `onlyOwner` functions anymore. Can only be called by the current owner.     * NOTE: Renouncing ownership will leave the contract without an owner, thereby removing any functionality that is only available to the owner."
      },
      "transferOwnership(address)": {
        "details": "Transfers ownership of the contract to a new account (`newOwner`). Can only be called by the current owner."
      }
    }
  },
  "userdoc": {
    "methods": {}
  }
}