{
  "contractName": "PolkaWarNFTAirdrop",
  "abi": [
    {
      "inputs": [
        {
          "internalType": "address",
          "name": "_VRFCoordinator",
          "type": "address"
        },
        {
          "internalType": "address",
          "name": "_LinkToken",
          "type": "address"
        },
        {
          "internalType": "bytes32",
          "name": "_keyhash",
          "type": "bytes32"
        },
        {
          "internalType": "contract PolkaWarItemSystem",
          "name": "_itemSystem",
          "type": "address"
        },
        {
          "internalType": "contract PolkaWar",
          "name": "_polkaWar",
          "type": "address"
        }
      ],
      "stateMutability": "nonpayable",
      "type": "constructor"
    },
    {
      "anonymous": false,
      "inputs": [
        {
          "indexed": true,
          "internalType": "address",
          "name": "previousOwner",
          "type": "address"
        },
        {
          "indexed": true,
          "internalType": "address",
          "name": "newOwner",
          "type": "address"
        }
      ],
      "name": "OwnershipTransferred",
      "type": "event"
    },
    {
      "anonymous": false,
      "inputs": [
        {
          "indexed": true,
          "internalType": "bytes32",
          "name": "requestId",
          "type": "bytes32"
        }
      ],
      "name": "requestedGetAirdrop",
      "type": "event"
    },
    {
      "inputs": [],
      "name": "isOwner",
      "outputs": [
        {
          "internalType": "bool",
          "name": "",
          "type": "bool"
        }
      ],
      "stateMutability": "view",
      "type": "function"
    },
    {
      "inputs": [],
      "name": "itemIndexCounter",
      "outputs": [
        {
          "internalType": "uint256",
          "name": "",
          "type": "uint256"
        }
      ],
      "stateMutability": "view",
      "type": "function"
    },
    {
      "inputs": [],
      "name": "name",
      "outputs": [
        {
          "internalType": "string",
          "name": "",
          "type": "string"
        }
      ],
      "stateMutability": "view",
      "type": "function"
    },
    {
      "inputs": [],
      "name": "owner",
      "outputs": [
        {
          "internalType": "address",
          "name": "",
          "type": "address"
        }
      ],
      "stateMutability": "view",
      "type": "function"
    },
    {
      "inputs": [
        {
          "internalType": "bytes32",
          "name": "requestId",
          "type": "bytes32"
        },
        {
          "internalType": "uint256",
          "name": "randomness",
          "type": "uint256"
        }
      ],
      "name": "rawFulfillRandomness",
      "outputs": [],
      "stateMutability": "nonpayable",
      "type": "function"
    },
    {
      "inputs": [],
      "name": "renounceOwnership",
      "outputs": [],
      "stateMutability": "nonpayable",
      "type": "function"
    },
    {
      "inputs": [
        {
          "internalType": "address",
          "name": "newOwner",
          "type": "address"
        }
      ],
      "name": "transferOwnership",
      "outputs": [],
      "stateMutability": "nonpayable",
      "type": "function"
    },
    {
      "inputs": [
        {
          "internalType": "uint256",
          "name": "_endDate",
          "type": "uint256"
        }
      ],
      "name": "changeEndDate",
      "outputs": [],
      "stateMutability": "nonpayable",
      "type": "function"
    },
    {
      "inputs": [
        {
          "internalType": "uint256",
          "name": "_acceptCount",
          "type": "uint256"
        }
      ],
      "name": "changeAcceptCount",
      "outputs": [],
      "stateMutability": "nonpayable",
      "type": "function"
    },
    {
      "inputs": [
        {
          "internalType": "uint256",
          "name": "_claimDate",
          "type": "uint256"
        }
      ],
      "name": "chageClaimDate",
      "outputs": [],
      "stateMutability": "nonpayable",
      "type": "function"
    },
    {
      "inputs": [
        {
          "internalType": "uint256",
          "name": "_amountToken",
          "type": "uint256"
        }
      ],
      "name": "chageAmountToken",
      "outputs": [],
      "stateMutability": "nonpayable",
      "type": "function"
    },
    {
      "inputs": [
        {
          "internalType": "string",
          "name": "uriHash",
          "type": "string"
        }
      ],
      "name": "initItems",
      "outputs": [],
      "stateMutability": "nonpayable",
      "type": "function"
    },
    {
      "inputs": [
        {
          "internalType": "uint256",
          "name": "index",
          "type": "uint256"
        }
      ],
      "name": "getItemURI",
      "outputs": [
        {
          "internalType": "string",
          "name": "",
          "type": "string"
        }
      ],
      "stateMutability": "view",
      "type": "function"
    },
    {
      "inputs": [],
      "name": "getTotalPaticipants",
      "outputs": [
        {
          "internalType": "uint256",
          "name": "",
          "type": "uint256"
        }
      ],
      "stateMutability": "view",
      "type": "function"
    },
    {
      "inputs": [
        {
          "internalType": "address",
          "name": "user",
          "type": "address"
        }
      ],
      "name": "isJoinAirdrop",
      "outputs": [
        {
          "internalType": "uint256",
          "name": "",
          "type": "uint256"
        }
      ],
      "stateMutability": "view",
      "type": "function"
    },
    {
      "inputs": [],
      "name": "claimAirdrop",
      "outputs": [],
      "stateMutability": "nonpayable",
      "type": "function"
    },
    {
      "inputs": [
        {
          "internalType": "string",
          "name": "userProvidedSeed",
          "type": "string"
        }
      ],
      "name": "getAirdrop",
      "outputs": [
        {
          "internalType": "bytes32",
          "name": "",
          "type": "bytes32"
        }
      ],
      "stateMutability": "nonpayable",
      "type": "function"
    },
    {
      "inputs": [],
      "name": "withdrawLinkBalance",
      "outputs": [],
      "stateMutability": "nonpayable",
      "type": "function"
    }
  ],
  "bytecode": "0x60806040526040518060400160405280601c81526020017f506f6c6b615761723a20506f6c6b615761724e465441697264726f70000000008152506005908051906020019062000051929190620002dd565b503480156200005f57600080fd5b506040516200210538038062002105833981810160405260a08110156200008557600080fd5b81019080805190602001909291908051906020019092919080519060200190929190805190602001909291908051906020019092919050505084846000620000d2620002d560201b60201c565b9050806000806101000a81548173ffffffffffffffffffffffffffffffffffffffff021916908373ffffffffffffffffffffffffffffffffffffffff1602179055508073ffffffffffffffffffffffffffffffffffffffff16600073ffffffffffffffffffffffffffffffffffffffff167f8be0079c531659141344cd1fd0a4f28419497f9722a3daafe3b4186f6b6457e060405160405180910390a3506001808190555081600360006101000a81548173ffffffffffffffffffffffffffffffffffffffff021916908373ffffffffffffffffffffffffffffffffffffffff16021790555080600260006101000a81548173ffffffffffffffffffffffffffffffffffffffff021916908373ffffffffffffffffffffffffffffffffffffffff16021790555050506000600681905550826011819055506702c68af0bb14000060128190555081600760006101000a81548173ffffffffffffffffffffffffffffffffffffffff021916908373ffffffffffffffffffffffffffffffffffffffff16021790555080600860006101000a81548173ffffffffffffffffffffffffffffffffffffffff021916908373ffffffffffffffffffffffffffffffffffffffff1602179055506360dd058060098190555068015af1d78b58c40000600a81905550610bb8600b819055506360c7ed80600c8190555050505050506200038c565b600033905090565b828054600181600116156101000203166002900490600052602060002090601f016020900481019282601f106200032057805160ff191683800117855562000351565b8280016001018555821562000351579182015b828111156200035057825182559160200191906001019062000333565b5b50905062000360919062000364565b5090565b6200038991905b80821115620003855760008160009055506001016200036b565b5090565b90565b611d69806200039c6000396000f3fe608060405234801561001057600080fd5b50600436106101165760003560e01c8063715018a6116100a2578063cfeff63511610071578063cfeff6351461041b578063dd5bd89814610439578063e0d021a6146104e0578063e20e1990146105af578063f2fde38b146105dd57610116565b8063715018a61461036d5780638da5cb5b146103775780638f32d59b146103c157806394985ddd146103e357610116565b806337db05b0116100e957806337db05b0146102a55780633df4ed9d146102d357806345737b1e1461032b5780634ee8270c146103595780635b88349d1461036357610116565b806306fdde031461011b57806308522fe41461019e578063170b734d146101cc5780631cf68f1b14610287575b600080fd5b610123610621565b6040518080602001828103825283818151815260200191508051906020019080838360005b83811015610163578082015181840152602081019050610148565b50505050905090810190601f1680156101905780820380516001836020036101000a031916815260200191505b509250505060405180910390f35b6101ca600480360360208110156101b457600080fd5b81019080803590602001909291905050506106bf565b005b610285600480360360208110156101e257600080fd5b81019080803590602001906401000000008111156101ff57600080fd5b82018360208201111561021157600080fd5b8035906020019184600183028401116401000000008311171561023357600080fd5b91908080601f016020809104026020016040519081016040528093929190818152602001838380828437600081840152601f19601f820116905080830192505050505050509192919290505050610743565b005b61028f6107f6565b6040518082815260200191505060405180910390f35b6102d1600480360360208110156102bb57600080fd5b81019080803590602001909291905050506107fc565b005b610315600480360360208110156102e957600080fd5b81019080803573ffffffffffffffffffffffffffffffffffffffff169060200190929190505050610880565b6040518082815260200191505060405180910390f35b6103576004803603602081101561034157600080fd5b81019080803590602001909291905050506108c9565b005b61036161094d565b005b61036b610b8e565b005b610375610cee565b005b61037f610e27565b604051808273ffffffffffffffffffffffffffffffffffffffff1673ffffffffffffffffffffffffffffffffffffffff16815260200191505060405180910390f35b6103c9610e50565b604051808215151515815260200191505060405180910390f35b610419600480360360408110156103f957600080fd5b810190808035906020019092919080359060200190929190505050610eae565b005b610423610f7f565b6040518082815260200191505060405180910390f35b6104656004803603602081101561044f57600080fd5b8101908080359060200190929190505050610f8c565b6040518080602001828103825283818151815260200191508051906020019080838360005b838110156104a557808201518184015260208101905061048a565b50505050905090810190601f1680156104d25780820380516001836020036101000a031916815260200191505b509250505060405180910390f35b610599600480360360208110156104f657600080fd5b810190808035906020019064010000000081111561051357600080fd5b82018360208201111561052557600080fd5b8035906020019184600183028401116401000000008311171561054757600080fd5b91908080601f016020809104026020016040519081016040528093929190818152602001838380828437600081840152601f19601f820116905080830192505050505050509192919290505050611041565b6040518082815260200191505060405180910390f35b6105db600480360360208110156105c557600080fd5b810190808035906020019092919050505061141d565b005b61061f600480360360208110156105f357600080fd5b81019080803573ffffffffffffffffffffffffffffffffffffffff1690602001909291905050506114a1565b005b60058054600181600116156101000203166002900480601f0160208091040260200160405190810160405280929190818152602001828054600181600116156101000203166002900480156106b75780601f1061068c576101008083540402835291602001916106b7565b820191906000526020600020905b81548152906001019060200180831161069a57829003601f168201915b505050505081565b6106c7610e50565b610739576040517f08c379a00000000000000000000000000000000000000000000000000000000081526004018080602001828103825260208152602001807f4f776e61626c653a2063616c6c6572206973206e6f7420746865206f776e657281525060200191505060405180910390fd5b8060098190555050565b61074b610e50565b6107bd576040517f08c379a00000000000000000000000000000000000000000000000000000000081526004018080602001828103825260208152602001807f4f776e61626c653a2063616c6c6572206973206e6f7420746865206f776e657281525060200191505060405180910390fd5b80600d6000600660008154600101919050819055815260200190815260200160002090805190602001906107f2929190611c38565b5050565b60065481565b610804610e50565b610876576040517f08c379a00000000000000000000000000000000000000000000000000000000081526004018080602001828103825260208152602001807f4f776e61626c653a2063616c6c6572206973206e6f7420746865206f776e657281525060200191505060405180910390fd5b80600b8190555050565b6000600e60008373ffffffffffffffffffffffffffffffffffffffff1673ffffffffffffffffffffffffffffffffffffffff168152602001908152602001600020549050919050565b6108d1610e50565b610943576040517f08c379a00000000000000000000000000000000000000000000000000000000081526004018080602001828103825260208152602001807f4f776e61626c653a2063616c6c6572206973206e6f7420746865206f776e657281525060200191505060405180910390fd5b80600c8190555050565b610955610e50565b6109c7576040517f08c379a00000000000000000000000000000000000000000000000000000000081526004018080602001828103825260208152602001807f4f776e61626c653a2063616c6c6572206973206e6f7420746865206f776e657281525060200191505060405180910390fd5b600260009054906101000a900473ffffffffffffffffffffffffffffffffffffffff1673ffffffffffffffffffffffffffffffffffffffff1663a9059cbb610a0d610e27565b600260009054906101000a900473ffffffffffffffffffffffffffffffffffffffff1673ffffffffffffffffffffffffffffffffffffffff166370a08231306040518263ffffffff1660e01b8152600401808273ffffffffffffffffffffffffffffffffffffffff1673ffffffffffffffffffffffffffffffffffffffff16815260200191505060206040518083038186803b158015610aac57600080fd5b505afa158015610ac0573d6000803e3d6000fd5b505050506040513d6020811015610ad657600080fd5b81019080805190602001909291905050506040518363ffffffff1660e01b8152600401808373ffffffffffffffffffffffffffffffffffffffff1673ffffffffffffffffffffffffffffffffffffffff16815260200182815260200192505050602060405180830381600087803b158015610b5057600080fd5b505af1158015610b64573d6000803e3d6000fd5b505050506040513d6020811015610b7a57600080fd5b810190808051906020019092919050505050565b6009544211610c05576040517f08c379a000000000000000000000000000000000000000000000000000000000815260040180806020018281038252600b8152602001807f6e6f74206f6e2074696d6500000000000000000000000000000000000000000081525060200191505060405180910390fd5b600860009054906101000a900473ffffffffffffffffffffffffffffffffffffffff1673ffffffffffffffffffffffffffffffffffffffff1663a9059cbb33600a546040518363ffffffff1660e01b8152600401808373ffffffffffffffffffffffffffffffffffffffff1673ffffffffffffffffffffffffffffffffffffffff16815260200182815260200192505050602060405180830381600087803b158015610cb057600080fd5b505af1158015610cc4573d6000803e3d6000fd5b505050506040513d6020811015610cda57600080fd5b810190808051906020019092919050505050565b610cf6610e50565b610d68576040517f08c379a00000000000000000000000000000000000000000000000000000000081526004018080602001828103825260208152602001807f4f776e61626c653a2063616c6c6572206973206e6f7420746865206f776e657281525060200191505060405180910390fd5b600073ffffffffffffffffffffffffffffffffffffffff166000809054906101000a900473ffffffffffffffffffffffffffffffffffffffff1673ffffffffffffffffffffffffffffffffffffffff167f8be0079c531659141344cd1fd0a4f28419497f9722a3daafe3b4186f6b6457e060405160405180910390a360008060006101000a81548173ffffffffffffffffffffffffffffffffffffffff021916908373ffffffffffffffffffffffffffffffffffffffff160217905550565b60008060009054906101000a900473ffffffffffffffffffffffffffffffffffffffff16905090565b60008060009054906101000a900473ffffffffffffffffffffffffffffffffffffffff1673ffffffffffffffffffffffffffffffffffffffff16610e92611527565b73ffffffffffffffffffffffffffffffffffffffff1614905090565b600360009054906101000a900473ffffffffffffffffffffffffffffffffffffffff1673ffffffffffffffffffffffffffffffffffffffff163373ffffffffffffffffffffffffffffffffffffffff1614610f71576040517f08c379a000000000000000000000000000000000000000000000000000000000815260040180806020018281038252601f8152602001807f4f6e6c7920565246436f6f7264696e61746f722063616e2066756c66696c6c0081525060200191505060405180910390fd5b610f7b828261152f565b5050565b6000600f80549050905090565b6060600d60008381526020019081526020016000208054600181600116156101000203166002900480601f0160208091040260200160405190810160405280929190818152602001828054600181600116156101000203166002900480156110355780601f1061100a57610100808354040283529160200191611035565b820191906000526020600020905b81548152906001019060200180831161101857829003601f168201915b50505050509050919050565b6000600c5442106110ba576040517f08c379a00000000000000000000000000000000000000000000000000000000081526004018080602001828103825260198152602001807f61697264726f7020616c72656164792066696e6973686564200000000000000081525060200191505060405180910390fd5b600b54600f805490501115611137576040517f08c379a00000000000000000000000000000000000000000000000000000000081526004018080602001828103825260198152602001807f6d6178696d756d2033303030207061727469636970616e74730000000000000081525060200191505060405180910390fd5b600061114233610880565b146111b5576040517f08c379a00000000000000000000000000000000000000000000000000000000081526004018080602001828103825260168152602001807f616c7265616479206a6f696e65642061697264726f700000000000000000000081525060200191505060405180910390fd5b601254600260009054906101000a900473ffffffffffffffffffffffffffffffffffffffff1673ffffffffffffffffffffffffffffffffffffffff166370a08231306040518263ffffffff1660e01b8152600401808273ffffffffffffffffffffffffffffffffffffffff1673ffffffffffffffffffffffffffffffffffffffff16815260200191505060206040518083038186803b15801561125757600080fd5b505afa15801561126b573d6000803e3d6000fd5b505050506040513d602081101561128157600080fd5b8101908080519060200190929190505050116112e8576040517f08c379a0000000000000000000000000000000000000000000000000000000008152600401808060200182810382526030815260200180611d046030913960400191505060405180910390fd5b60008243406040516020018080602001838152602001828103825284818151815260200191508051906020019080838360005b8381101561133657808201518184015260208101905061131b565b50505050905090810190601f1680156113635780820380516001836020036101000a031916815260200191505b5093505050506040516020818303038152906040528051906020012060001c90506000611395601154601254846117a7565b9050336010600083815260200190815260200160002060006101000a81548173ffffffffffffffffffffffffffffffffffffffff021916908373ffffffffffffffffffffffffffffffffffffffff160217905550807f35baf734c49f7a08c41a5548c5f8694ed6fb77ce930475bc2b71094f7f9b3bce60405160405180910390a25050919050565b611425610e50565b611497576040517f08c379a00000000000000000000000000000000000000000000000000000000081526004018080602001828103825260208152602001807f4f776e61626c653a2063616c6c6572206973206e6f7420746865206f776e657281525060200191505060405180910390fd5b80600a8190555050565b6114a9610e50565b61151b576040517f08c379a00000000000000000000000000000000000000000000000000000000081526004018080602001828103825260208152602001807f4f776e61626c653a2063616c6c6572206973206e6f7420746865206f776e657281525060200191505060405180910390fd5b611524816119b9565b50565b600033905090565b60006010600084815260200190815260200160002060009054906101000a900473ffffffffffffffffffffffffffffffffffffffff1690506000600654838161157457fe5b0690506000600d600083815260200190815260200160002090506000600760009054906101000a900473ffffffffffffffffffffffffffffffffffffffff1673ffffffffffffffffffffffffffffffffffffffff166326fb76c285846040518363ffffffff1660e01b8152600401808373ffffffffffffffffffffffffffffffffffffffff1673ffffffffffffffffffffffffffffffffffffffff1681526020018060200182810382528381815460018160011615610100020316600290048152602001915080546001816001161561010002031660029004801561169a5780601f1061166f5761010080835404028352916020019161169a565b820191906000526020600020905b81548152906001019060200180831161167d57829003601f168201915b50509350505050602060405180830381600087803b1580156116bb57600080fd5b505af11580156116cf573d6000803e3d6000fd5b505050506040513d60208110156116e557600080fd5b8101908080519060200190929190505050905080600e60008673ffffffffffffffffffffffffffffffffffffffff1673ffffffffffffffffffffffffffffffffffffffff16815260200190815260200160002081905550600f849080600181540180825580915050600190039060005260206000200160009091909190916101000a81548173ffffffffffffffffffffffffffffffffffffffff021916908373ffffffffffffffffffffffffffffffffffffffff160217905550505050505050565b6000600260009054906101000a900473ffffffffffffffffffffffffffffffffffffffff1673ffffffffffffffffffffffffffffffffffffffff16634000aea0600360009054906101000a900473ffffffffffffffffffffffffffffffffffffffff1685878660405160200180838152602001828152602001925050506040516020818303038152906040526040518463ffffffff1660e01b8152600401808473ffffffffffffffffffffffffffffffffffffffff1673ffffffffffffffffffffffffffffffffffffffff16815260200183815260200180602001828103825283818151815260200191508051906020019080838360005b838110156118ba57808201518184015260208101905061189f565b50505050905090810190601f1680156118e75780820380516001836020036101000a031916815260200191505b50945050505050602060405180830381600087803b15801561190857600080fd5b505af115801561191c573d6000803e3d6000fd5b505050506040513d602081101561193257600080fd5b8101908080519060200190929190505050506000611965858430600460008a815260200190815260200160002054611afd565b905061198e60016004600088815260200190815260200160002054611b7790919063ffffffff16565b60046000878152602001908152602001600020819055506119af8582611bff565b9150509392505050565b600073ffffffffffffffffffffffffffffffffffffffff168173ffffffffffffffffffffffffffffffffffffffff161415611a3f576040517f08c379a0000000000000000000000000000000000000000000000000000000008152600401808060200182810382526026815260200180611cde6026913960400191505060405180910390fd5b8073ffffffffffffffffffffffffffffffffffffffff166000809054906101000a900473ffffffffffffffffffffffffffffffffffffffff1673ffffffffffffffffffffffffffffffffffffffff167f8be0079c531659141344cd1fd0a4f28419497f9722a3daafe3b4186f6b6457e060405160405180910390a3806000806101000a81548173ffffffffffffffffffffffffffffffffffffffff021916908373ffffffffffffffffffffffffffffffffffffffff16021790555050565b600084848484604051602001808581526020018481526020018373ffffffffffffffffffffffffffffffffffffffff1673ffffffffffffffffffffffffffffffffffffffff1681526020018281526020019450505050506040516020818303038152906040528051906020012060001c9050949350505050565b600080828401905083811015611bf5576040517f08c379a000000000000000000000000000000000000000000000000000000000815260040180806020018281038252601b8152602001807f536166654d6174683a206164646974696f6e206f766572666c6f77000000000081525060200191505060405180910390fd5b8091505092915050565b60008282604051602001808381526020018281526020019250505060405160208183030381529060405280519060200120905092915050565b828054600181600116156101000203166002900490600052602060002090601f016020900481019282601f10611c7957805160ff1916838001178555611ca7565b82800160010185558215611ca7579182015b82811115611ca6578251825591602001919060010190611c8b565b5b509050611cb49190611cb8565b5090565b611cda91905b80821115611cd6576000816000905550600101611cbe565b5090565b9056fe4f776e61626c653a206e6577206f776e657220697320746865207a65726f20616464726573734e6f7420656e6f756768204c494e4b202d206465706f736974204c494e4b20746f20636f6e7472616374206669727374a2646970667358221220e115684a9fbbd720b862aff42ae8e4835d9e0eb0fe1eef50d1770ccf4c57cea364736f6c63430006020033",
  "source": "pragma solidity >=0.6.0;\r\n\r\nimport \"@openzeppelin/contracts/ownership/Ownable.sol\";\r\nimport \"./ReentrancyGuard.sol\";\r\nimport \"./PolkaWarItemSystem.sol\";\r\nimport \"./PolkaWar.sol\";\r\nimport \"@chainlink/contracts/src/v0.6/VRFConsumerBase.sol\";\r\n\r\ncontract PolkaWarNFTAirdrop is Ownable, ReentrancyGuard, VRFConsumerBase {\r\n    string public name = \"PolkaWar: PolkaWarNFTAirdrop\";\r\n\r\n    uint256 public itemIndexCounter;\r\n    PolkaWarItemSystem itemSystem;\r\n    PolkaWar polkaWar;\r\n\r\n    uint256 claimDate;\r\n    uint256 amountToken;\r\n    uint256 acceptCount;\r\n    uint256 endDate;\r\n\r\n    //list airdrop item\r\n\r\n    mapping(uint256 => string) internal airdropItems; //id - uri\r\n\r\n    mapping(address => uint256) internal participants; //user-tokenid\r\n    address[] internal arrParticipants; //user-tokenid\r\n\r\n    // add other things\r\n    mapping(bytes32 => address) internal requestIdToSender;\r\n\r\n    event requestedGetAirdrop(bytes32 indexed requestId);\r\n\r\n    bytes32 internal keyHash;\r\n    uint256 internal fee;\r\n\r\n    constructor(\r\n        address _VRFCoordinator,\r\n        address _LinkToken,\r\n        bytes32 _keyhash,\r\n        PolkaWarItemSystem _itemSystem,\r\n        PolkaWar _polkaWar\r\n    ) public VRFConsumerBase(_VRFCoordinator, _LinkToken) {\r\n        itemIndexCounter = 0;\r\n        keyHash = _keyhash;\r\n        fee = 0.2 * 10**18;\r\n        //LINK = LinkTokenInterface(_LinkToken);\r\n        itemSystem = _itemSystem;\r\n        polkaWar = _polkaWar;\r\n        claimDate = 1625097600; //1 july\r\n        amountToken = 25000000000000000000;\r\n        acceptCount = 3000;\r\n        endDate = 1623715200;\r\n    }\r\n\r\n    function changeEndDate(uint256 _endDate) public onlyOwner {\r\n        endDate = _endDate;\r\n    }\r\n\r\n    function changeAcceptCount(uint256 _acceptCount) public onlyOwner {\r\n        acceptCount = _acceptCount;\r\n    }\r\n\r\n    function chageClaimDate(uint256 _claimDate) public onlyOwner {\r\n        claimDate = _claimDate;\r\n    }\r\n\r\n    function chageAmountToken(uint256 _amountToken) public onlyOwner {\r\n        amountToken = _amountToken;\r\n    }\r\n\r\n    function initItems(string memory uriHash) public onlyOwner {\r\n        airdropItems[++itemIndexCounter] = uriHash;\r\n    }\r\n\r\n    function getItemURI(uint256 index) public view returns (string memory) {\r\n        return airdropItems[index];\r\n    }\r\n\r\n    function getTotalPaticipants() public view returns (uint256) {\r\n        return arrParticipants.length;\r\n    }\r\n\r\n    function isJoinAirdrop(address user) public view returns (uint256) {\r\n        return participants[user];\r\n    }\r\n\r\n    function claimAirdrop() public {\r\n        require(block.timestamp > claimDate, \"not on time\");\r\n        polkaWar.transfer(msg.sender, amountToken);\r\n    }\r\n\r\n    function getAirdrop(string memory userProvidedSeed)\r\n        public\r\n        returns (bytes32)\r\n    {\r\n        require(block.timestamp < endDate, \"airdrop already finished \");\r\n        require(\r\n            arrParticipants.length <= acceptCount,\r\n            \"maximum 3000 participants\"\r\n        );\r\n        require(isJoinAirdrop(msg.sender) == 0, \"already joined airdrop\");\r\n\r\n        require(\r\n            LINK.balanceOf(address(this)) > fee,\r\n            \"Not enough LINK - deposit LINK to contract first\"\r\n        );\r\n        uint256 seed =\r\n            uint256(\r\n                keccak256(abi.encode(userProvidedSeed, blockhash(block.number)))\r\n            );\r\n        bytes32 requestId = requestRandomness(keyHash, fee, seed);\r\n        requestIdToSender[requestId] = msg.sender;\r\n        emit requestedGetAirdrop(requestId);\r\n    }\r\n\r\n    function fulfillRandomness(bytes32 requestId, uint256 randomNumber)\r\n        internal\r\n        override\r\n    {\r\n        address user = requestIdToSender[requestId];\r\n\r\n        uint256 randomItemIndex = randomNumber % itemIndexCounter;\r\n        string storage uriItem = airdropItems[randomItemIndex];\r\n\r\n        uint256 tokenId = itemSystem.createItem(user, uriItem);\r\n        participants[user] = tokenId;\r\n        arrParticipants.push(user);\r\n    }\r\n\r\n    function withdrawLinkBalance() public onlyOwner {\r\n        LINK.transfer(owner(), LINK.balanceOf(address(this)));\r\n    }\r\n}\r\n",
  "sourcePath": "C:\\Users\\Thanh Phi\\Desktop\\PolkaBridgeSolution\\polkawar\\polkawar-contract\\contracts\\PolkaWarNFTAirdrop.sol",
  "compiler": {
    "name": "solc",
    "version": "0.6.2+commit.bacdbe57.Emscripten.clang"
  },
  "schemaVersion": "3.4.3",
  "updatedAt": "2021-11-05T07:20:21.950Z",
  "networkType": "ethereum",
  "devdoc": {
    "methods": {
      "isOwner()": {
        "details": "Returns true if the caller is the current owner."
      },
      "owner()": {
        "details": "Returns the address of the current owner."
      },
      "renounceOwnership()": {
        "details": "Leaves the contract without owner. It will not be possible to call `onlyOwner` functions anymore. Can only be called by the current owner.     * NOTE: Renouncing ownership will leave the contract without an owner, thereby removing any functionality that is only available to the owner."
      },
      "transferOwnership(address)": {
        "details": "Transfers ownership of the contract to a new account (`newOwner`). Can only be called by the current owner."
      }
    }
  },
  "userdoc": {
    "methods": {}
  }
}