{
  "contractName": "PolkaWarNFTAirdrop",
  "abi": [
    {
      "inputs": [
        {
          "internalType": "address",
          "name": "_VRFCoordinator",
          "type": "address"
        },
        {
          "internalType": "address",
          "name": "_LinkToken",
          "type": "address"
        },
        {
          "internalType": "bytes32",
          "name": "_keyhash",
          "type": "bytes32"
        },
        {
          "internalType": "contract PolkaWarItemSystem",
          "name": "_itemSystem",
          "type": "address"
        },
        {
          "internalType": "contract PolkaWar",
          "name": "_polkaWar",
          "type": "address"
        }
      ],
      "stateMutability": "nonpayable",
      "type": "constructor"
    },
    {
      "anonymous": false,
      "inputs": [
        {
          "indexed": true,
          "internalType": "address",
          "name": "previousOwner",
          "type": "address"
        },
        {
          "indexed": true,
          "internalType": "address",
          "name": "newOwner",
          "type": "address"
        }
      ],
      "name": "OwnershipTransferred",
      "type": "event"
    },
    {
      "anonymous": false,
      "inputs": [
        {
          "indexed": true,
          "internalType": "bytes32",
          "name": "requestId",
          "type": "bytes32"
        }
      ],
      "name": "requestedGetAirdrop",
      "type": "event"
    },
    {
      "inputs": [],
      "name": "isOwner",
      "outputs": [
        {
          "internalType": "bool",
          "name": "",
          "type": "bool"
        }
      ],
      "stateMutability": "view",
      "type": "function",
      "constant": true
    },
    {
      "inputs": [],
      "name": "itemIndexCounter",
      "outputs": [
        {
          "internalType": "uint256",
          "name": "",
          "type": "uint256"
        }
      ],
      "stateMutability": "view",
      "type": "function",
      "constant": true
    },
    {
      "inputs": [],
      "name": "name",
      "outputs": [
        {
          "internalType": "string",
          "name": "",
          "type": "string"
        }
      ],
      "stateMutability": "view",
      "type": "function",
      "constant": true
    },
    {
      "inputs": [],
      "name": "owner",
      "outputs": [
        {
          "internalType": "address",
          "name": "",
          "type": "address"
        }
      ],
      "stateMutability": "view",
      "type": "function",
      "constant": true
    },
    {
      "inputs": [
        {
          "internalType": "bytes32",
          "name": "requestId",
          "type": "bytes32"
        },
        {
          "internalType": "uint256",
          "name": "randomness",
          "type": "uint256"
        }
      ],
      "name": "rawFulfillRandomness",
      "outputs": [],
      "stateMutability": "nonpayable",
      "type": "function"
    },
    {
      "inputs": [],
      "name": "renounceOwnership",
      "outputs": [],
      "stateMutability": "nonpayable",
      "type": "function"
    },
    {
      "inputs": [
        {
          "internalType": "address",
          "name": "newOwner",
          "type": "address"
        }
      ],
      "name": "transferOwnership",
      "outputs": [],
      "stateMutability": "nonpayable",
      "type": "function"
    },
    {
      "inputs": [
        {
          "internalType": "uint256",
          "name": "_claimDate",
          "type": "uint256"
        }
      ],
      "name": "chageClaimDate",
      "outputs": [],
      "stateMutability": "nonpayable",
      "type": "function"
    },
    {
      "inputs": [
        {
          "internalType": "uint256",
          "name": "_amountToken",
          "type": "uint256"
        }
      ],
      "name": "chageAmountToken",
      "outputs": [],
      "stateMutability": "nonpayable",
      "type": "function"
    },
    {
      "inputs": [
        {
          "internalType": "string",
          "name": "uriHash",
          "type": "string"
        }
      ],
      "name": "initItems",
      "outputs": [],
      "stateMutability": "nonpayable",
      "type": "function"
    },
    {
      "inputs": [
        {
          "internalType": "uint256",
          "name": "index",
          "type": "uint256"
        }
      ],
      "name": "getItemURI",
      "outputs": [
        {
          "internalType": "string",
          "name": "",
          "type": "string"
        }
      ],
      "stateMutability": "view",
      "type": "function",
      "constant": true
    },
    {
      "inputs": [
        {
          "internalType": "address",
          "name": "user",
          "type": "address"
        }
      ],
      "name": "isJoinAirdrop",
      "outputs": [
        {
          "internalType": "uint256",
          "name": "",
          "type": "uint256"
        }
      ],
      "stateMutability": "view",
      "type": "function",
      "constant": true
    },
    {
      "inputs": [],
      "name": "claimAirdrop",
      "outputs": [],
      "stateMutability": "nonpayable",
      "type": "function"
    },
    {
      "inputs": [
        {
          "internalType": "string",
          "name": "userProvidedSeed",
          "type": "string"
        }
      ],
      "name": "getAirdrop",
      "outputs": [
        {
          "internalType": "bytes32",
          "name": "",
          "type": "bytes32"
        }
      ],
      "stateMutability": "nonpayable",
      "type": "function"
    }
  ],
  "bytecode": "0x60806040526040518060400160405280601c81526020017f506f6c6b615761723a20506f6c6b615761724e465441697264726f70000000008152506005908051906020019062000051929190620002c9565b503480156200005f57600080fd5b5060405162001b9338038062001b93833981810160405260a08110156200008557600080fd5b81019080805190602001909291908051906020019092919080519060200190929190805190602001909291908051906020019092919050505084846000620000d2620002c160201b60201c565b9050806000806101000a81548173ffffffffffffffffffffffffffffffffffffffff021916908373ffffffffffffffffffffffffffffffffffffffff1602179055508073ffffffffffffffffffffffffffffffffffffffff16600073ffffffffffffffffffffffffffffffffffffffff167f8be0079c531659141344cd1fd0a4f28419497f9722a3daafe3b4186f6b6457e060405160405180910390a3506001808190555081600360006101000a81548173ffffffffffffffffffffffffffffffffffffffff021916908373ffffffffffffffffffffffffffffffffffffffff16021790555080600260006101000a81548173ffffffffffffffffffffffffffffffffffffffff021916908373ffffffffffffffffffffffffffffffffffffffff1602179055505050600060068190555082600e8190555067016345785d8a0000600f8190555081600760006101000a81548173ffffffffffffffffffffffffffffffffffffffff021916908373ffffffffffffffffffffffffffffffffffffffff16021790555080600860006101000a81548173ffffffffffffffffffffffffffffffffffffffff021916908373ffffffffffffffffffffffffffffffffffffffff1602179055506360dd058060098190555068015af1d78b58c40000600a81905550505050505062000378565b600033905090565b828054600181600116156101000203166002900490600052602060002090601f016020900481019282601f106200030c57805160ff19168380011785556200033d565b828001600101855582156200033d579182015b828111156200033c5782518255916020019190600101906200031f565b5b5090506200034c919062000350565b5090565b6200037591905b808211156200037157600081600090555060010162000357565b5090565b90565b61180b80620003886000396000f3fe608060405234801561001057600080fd5b50600436106100ea5760003560e01c80638da5cb5b1161008c578063dd5bd89811610066578063dd5bd89814610389578063e0d021a614610430578063e20e1990146104ff578063f2fde38b1461052d576100ea565b80638da5cb5b146102e55780638f32d59b1461032f57806394985ddd14610351576100ea565b80631cf68f1b116100c85780631cf68f1b1461025b5780633df4ed9d146102795780635b88349d146102d1578063715018a6146102db576100ea565b806306fdde03146100ef57806308522fe414610172578063170b734d146101a0575b600080fd5b6100f7610571565b6040518080602001828103825283818151815260200191508051906020019080838360005b8381101561013757808201518184015260208101905061011c565b50505050905090810190601f1680156101645780820380516001836020036101000a031916815260200191505b509250505060405180910390f35b61019e6004803603602081101561018857600080fd5b810190808035906020019092919050505061060f565b005b610259600480360360208110156101b657600080fd5b81019080803590602001906401000000008111156101d357600080fd5b8201836020820111156101e557600080fd5b8035906020019184600183028401116401000000008311171561020757600080fd5b91908080601f016020809104026020016040519081016040528093929190818152602001838380828437600081840152601f19601f820116905080830192505050505050509192919290505050610693565b005b610263610746565b6040518082815260200191505060405180910390f35b6102bb6004803603602081101561028f57600080fd5b81019080803573ffffffffffffffffffffffffffffffffffffffff16906020019092919050505061074c565b6040518082815260200191505060405180910390f35b6102d9610795565b005b6102e36108f5565b005b6102ed610a2e565b604051808273ffffffffffffffffffffffffffffffffffffffff1673ffffffffffffffffffffffffffffffffffffffff16815260200191505060405180910390f35b610337610a57565b604051808215151515815260200191505060405180910390f35b6103876004803603604081101561036757600080fd5b810190808035906020019092919080359060200190929190505050610ab5565b005b6103b56004803603602081101561039f57600080fd5b8101908080359060200190929190505050610b86565b6040518080602001828103825283818151815260200191508051906020019080838360005b838110156103f55780820151818401526020810190506103da565b50505050905090810190601f1680156104225780820380516001836020036101000a031916815260200191505b509250505060405180910390f35b6104e96004803603602081101561044657600080fd5b810190808035906020019064010000000081111561046357600080fd5b82018360208201111561047557600080fd5b8035906020019184600183028401116401000000008311171561049757600080fd5b91908080601f016020809104026020016040519081016040528093929190818152602001838380828437600081840152601f19601f820116905080830192505050505050509192919290505050610c3b565b6040518082815260200191505060405180910390f35b61052b6004803603602081101561051557600080fd5b8101908080359060200190929190505050610f22565b005b61056f6004803603602081101561054357600080fd5b81019080803573ffffffffffffffffffffffffffffffffffffffff169060200190929190505050610fa6565b005b60058054600181600116156101000203166002900480601f0160208091040260200160405190810160405280929190818152602001828054600181600116156101000203166002900480156106075780601f106105dc57610100808354040283529160200191610607565b820191906000526020600020905b8154815290600101906020018083116105ea57829003601f168201915b505050505081565b610617610a57565b610689576040517f08c379a00000000000000000000000000000000000000000000000000000000081526004018080602001828103825260208152602001807f4f776e61626c653a2063616c6c6572206973206e6f7420746865206f776e657281525060200191505060405180910390fd5b8060098190555050565b61069b610a57565b61070d576040517f08c379a00000000000000000000000000000000000000000000000000000000081526004018080602001828103825260208152602001807f4f776e61626c653a2063616c6c6572206973206e6f7420746865206f776e657281525060200191505060405180910390fd5b80600b6000600660008154600101919050819055815260200190815260200160002090805190602001906107429291906116da565b5050565b60065481565b6000600c60008373ffffffffffffffffffffffffffffffffffffffff1673ffffffffffffffffffffffffffffffffffffffff168152602001908152602001600020549050919050565b600954421161080c576040517f08c379a000000000000000000000000000000000000000000000000000000000815260040180806020018281038252600b8152602001807f6e6f74206f6e2074696d6500000000000000000000000000000000000000000081525060200191505060405180910390fd5b600860009054906101000a900473ffffffffffffffffffffffffffffffffffffffff1673ffffffffffffffffffffffffffffffffffffffff1663a9059cbb33600a546040518363ffffffff1660e01b8152600401808373ffffffffffffffffffffffffffffffffffffffff1673ffffffffffffffffffffffffffffffffffffffff16815260200182815260200192505050602060405180830381600087803b1580156108b757600080fd5b505af11580156108cb573d6000803e3d6000fd5b505050506040513d60208110156108e157600080fd5b810190808051906020019092919050505050565b6108fd610a57565b61096f576040517f08c379a00000000000000000000000000000000000000000000000000000000081526004018080602001828103825260208152602001807f4f776e61626c653a2063616c6c6572206973206e6f7420746865206f776e657281525060200191505060405180910390fd5b600073ffffffffffffffffffffffffffffffffffffffff166000809054906101000a900473ffffffffffffffffffffffffffffffffffffffff1673ffffffffffffffffffffffffffffffffffffffff167f8be0079c531659141344cd1fd0a4f28419497f9722a3daafe3b4186f6b6457e060405160405180910390a360008060006101000a81548173ffffffffffffffffffffffffffffffffffffffff021916908373ffffffffffffffffffffffffffffffffffffffff160217905550565b60008060009054906101000a900473ffffffffffffffffffffffffffffffffffffffff16905090565b60008060009054906101000a900473ffffffffffffffffffffffffffffffffffffffff1673ffffffffffffffffffffffffffffffffffffffff16610a9961102c565b73ffffffffffffffffffffffffffffffffffffffff1614905090565b600360009054906101000a900473ffffffffffffffffffffffffffffffffffffffff1673ffffffffffffffffffffffffffffffffffffffff163373ffffffffffffffffffffffffffffffffffffffff1614610b78576040517f08c379a000000000000000000000000000000000000000000000000000000000815260040180806020018281038252601f8152602001807f4f6e6c7920565246436f6f7264696e61746f722063616e2066756c66696c6c0081525060200191505060405180910390fd5b610b828282611034565b5050565b6060600b60008381526020019081526020016000208054600181600116156101000203166002900480601f016020809104026020016040519081016040528092919081815260200182805460018160011615610100020316600290048015610c2f5780601f10610c0457610100808354040283529160200191610c2f565b820191906000526020600020905b815481529060010190602001808311610c1257829003601f168201915b50505050509050919050565b600080610c473361074c565b14610cba576040517f08c379a00000000000000000000000000000000000000000000000000000000081526004018080602001828103825260168152602001807f616c7265616479206a6f696e65642061697264726f700000000000000000000081525060200191505060405180910390fd5b600f54600260009054906101000a900473ffffffffffffffffffffffffffffffffffffffff1673ffffffffffffffffffffffffffffffffffffffff166370a08231306040518263ffffffff1660e01b8152600401808273ffffffffffffffffffffffffffffffffffffffff1673ffffffffffffffffffffffffffffffffffffffff16815260200191505060206040518083038186803b158015610d5c57600080fd5b505afa158015610d70573d6000803e3d6000fd5b505050506040513d6020811015610d8657600080fd5b810190808051906020019092919050505011610ded576040517f08c379a00000000000000000000000000000000000000000000000000000000081526004018080602001828103825260308152602001806117a66030913960400191505060405180910390fd5b60008243406040516020018080602001838152602001828103825284818151815260200191508051906020019080838360005b83811015610e3b578082015181840152602081019050610e20565b50505050905090810190601f168015610e685780820380516001836020036101000a031916815260200191505b5093505050506040516020818303038152906040528051906020012060001c90506000610e9a600e54600f5484611249565b905033600d600083815260200190815260200160002060006101000a81548173ffffffffffffffffffffffffffffffffffffffff021916908373ffffffffffffffffffffffffffffffffffffffff160217905550807f35baf734c49f7a08c41a5548c5f8694ed6fb77ce930475bc2b71094f7f9b3bce60405160405180910390a25050919050565b610f2a610a57565b610f9c576040517f08c379a00000000000000000000000000000000000000000000000000000000081526004018080602001828103825260208152602001807f4f776e61626c653a2063616c6c6572206973206e6f7420746865206f776e657281525060200191505060405180910390fd5b80600a8190555050565b610fae610a57565b611020576040517f08c379a00000000000000000000000000000000000000000000000000000000081526004018080602001828103825260208152602001807f4f776e61626c653a2063616c6c6572206973206e6f7420746865206f776e657281525060200191505060405180910390fd5b6110298161145b565b50565b600033905090565b6000600d600084815260200190815260200160002060009054906101000a900473ffffffffffffffffffffffffffffffffffffffff1690506000600654838161107957fe5b0690506000600b600083815260200190815260200160002090506000600760009054906101000a900473ffffffffffffffffffffffffffffffffffffffff1673ffffffffffffffffffffffffffffffffffffffff166326fb76c285846040518363ffffffff1660e01b8152600401808373ffffffffffffffffffffffffffffffffffffffff1673ffffffffffffffffffffffffffffffffffffffff1681526020018060200182810382528381815460018160011615610100020316600290048152602001915080546001816001161561010002031660029004801561119f5780601f106111745761010080835404028352916020019161119f565b820191906000526020600020905b81548152906001019060200180831161118257829003601f168201915b50509350505050602060405180830381600087803b1580156111c057600080fd5b505af11580156111d4573d6000803e3d6000fd5b505050506040513d60208110156111ea57600080fd5b8101908080519060200190929190505050905080600c60008673ffffffffffffffffffffffffffffffffffffffff1673ffffffffffffffffffffffffffffffffffffffff16815260200190815260200160002081905550505050505050565b6000600260009054906101000a900473ffffffffffffffffffffffffffffffffffffffff1673ffffffffffffffffffffffffffffffffffffffff16634000aea0600360009054906101000a900473ffffffffffffffffffffffffffffffffffffffff1685878660405160200180838152602001828152602001925050506040516020818303038152906040526040518463ffffffff1660e01b8152600401808473ffffffffffffffffffffffffffffffffffffffff1673ffffffffffffffffffffffffffffffffffffffff16815260200183815260200180602001828103825283818151815260200191508051906020019080838360005b8381101561135c578082015181840152602081019050611341565b50505050905090810190601f1680156113895780820380516001836020036101000a031916815260200191505b50945050505050602060405180830381600087803b1580156113aa57600080fd5b505af11580156113be573d6000803e3d6000fd5b505050506040513d60208110156113d457600080fd5b8101908080519060200190929190505050506000611407858430600460008a81526020019081526020016000205461159f565b90506114306001600460008881526020019081526020016000205461161990919063ffffffff16565b600460008781526020019081526020016000208190555061145185826116a1565b9150509392505050565b600073ffffffffffffffffffffffffffffffffffffffff168173ffffffffffffffffffffffffffffffffffffffff1614156114e1576040517f08c379a00000000000000000000000000000000000000000000000000000000081526004018080602001828103825260268152602001806117806026913960400191505060405180910390fd5b8073ffffffffffffffffffffffffffffffffffffffff166000809054906101000a900473ffffffffffffffffffffffffffffffffffffffff1673ffffffffffffffffffffffffffffffffffffffff167f8be0079c531659141344cd1fd0a4f28419497f9722a3daafe3b4186f6b6457e060405160405180910390a3806000806101000a81548173ffffffffffffffffffffffffffffffffffffffff021916908373ffffffffffffffffffffffffffffffffffffffff16021790555050565b600084848484604051602001808581526020018481526020018373ffffffffffffffffffffffffffffffffffffffff1673ffffffffffffffffffffffffffffffffffffffff1681526020018281526020019450505050506040516020818303038152906040528051906020012060001c9050949350505050565b600080828401905083811015611697576040517f08c379a000000000000000000000000000000000000000000000000000000000815260040180806020018281038252601b8152602001807f536166654d6174683a206164646974696f6e206f766572666c6f77000000000081525060200191505060405180910390fd5b8091505092915050565b60008282604051602001808381526020018281526020019250505060405160208183030381529060405280519060200120905092915050565b828054600181600116156101000203166002900490600052602060002090601f016020900481019282601f1061171b57805160ff1916838001178555611749565b82800160010185558215611749579182015b8281111561174857825182559160200191906001019061172d565b5b509050611756919061175a565b5090565b61177c91905b80821115611778576000816000905550600101611760565b5090565b9056fe4f776e61626c653a206e6577206f776e657220697320746865207a65726f20616464726573734e6f7420656e6f756768204c494e4b202d206465706f736974204c494e4b20746f20636f6e7472616374206669727374a2646970667358221220c500dde892e8a311de52cf9424561383371e873489e1f0696166fb9826f20c8364736f6c63430006020033",
  "source": "pragma solidity >=0.6.0;\r\n\r\nimport \"@openzeppelin/contracts/ownership/Ownable.sol\";\r\nimport \"./ReentrancyGuard.sol\";\r\nimport \"./PolkaWarItemSystem.sol\";\r\nimport \"./PolkaWar.sol\";\r\nimport \"@chainlink/contracts/src/v0.6/VRFConsumerBase.sol\";\r\n\r\ncontract PolkaWarNFTAirdrop is Ownable, ReentrancyGuard, VRFConsumerBase {\r\n    string public name = \"PolkaWar: PolkaWarNFTAirdrop\";\r\n\r\n    uint256 public itemIndexCounter;\r\n    PolkaWarItemSystem itemSystem;\r\n    PolkaWar polkaWar;\r\n\r\n    uint256 claimDate;\r\n    uint256 amountToken;\r\n\r\n    //list airdrop item\r\n\r\n    mapping(uint256 => string) internal airdropItems; //id - uri\r\n\r\n    mapping(address => uint256) internal participants; //user-tokenid\r\n\r\n    // add other things\r\n    mapping(bytes32 => address) internal requestIdToSender;\r\n\r\n    event requestedGetAirdrop(bytes32 indexed requestId);\r\n\r\n    bytes32 internal keyHash;\r\n    uint256 internal fee;\r\n\r\n    constructor(\r\n        address _VRFCoordinator,\r\n        address _LinkToken,\r\n        bytes32 _keyhash,\r\n        PolkaWarItemSystem _itemSystem,\r\n        PolkaWar _polkaWar\r\n    ) public VRFConsumerBase(_VRFCoordinator, _LinkToken) {\r\n        itemIndexCounter = 0;\r\n        keyHash = _keyhash;\r\n        fee = 0.1 * 10**18;\r\n        //LINK = LinkTokenInterface(_LinkToken);\r\n        itemSystem = _itemSystem;\r\n        polkaWar = _polkaWar;\r\n        claimDate = 1625097600; //1 july\r\n        amountToken = 25000000000000000000;\r\n    }\r\n\r\n    function chageClaimDate(uint256 _claimDate) public onlyOwner {\r\n        claimDate = _claimDate;\r\n    }\r\n\r\n    function chageAmountToken(uint256 _amountToken) public onlyOwner {\r\n        amountToken = _amountToken;\r\n    }\r\n\r\n    function initItems(string memory uriHash) public onlyOwner {\r\n        airdropItems[++itemIndexCounter] = uriHash;\r\n    }\r\n\r\n    function getItemURI(uint256 index) public view returns (string memory) {\r\n        return airdropItems[index];\r\n    }\r\n\r\n    function isJoinAirdrop(address user) public view returns (uint256) {\r\n        return participants[user];\r\n    }\r\n\r\n    function claimAirdrop() public {\r\n        require(block.timestamp > claimDate, \"not on time\");\r\n        polkaWar.transfer(msg.sender, amountToken);\r\n    }\r\n\r\n    function getAirdrop(string memory userProvidedSeed)\r\n        public\r\n        returns (bytes32)\r\n    {\r\n        require(isJoinAirdrop(msg.sender) == 0, \"already joined airdrop\");\r\n        require(\r\n            LINK.balanceOf(address(this)) > fee,\r\n            \"Not enough LINK - deposit LINK to contract first\"\r\n        );\r\n        uint256 seed =\r\n            uint256(\r\n                keccak256(abi.encode(userProvidedSeed, blockhash(block.number)))\r\n            );\r\n        bytes32 requestId = requestRandomness(keyHash, fee, seed);\r\n        requestIdToSender[requestId] = msg.sender;\r\n        emit requestedGetAirdrop(requestId);\r\n    }\r\n\r\n    function fulfillRandomness(bytes32 requestId, uint256 randomNumber)\r\n        internal\r\n        override\r\n    {\r\n        address user = requestIdToSender[requestId];\r\n\r\n        uint256 randomItemIndex = randomNumber % itemIndexCounter;\r\n        string storage uriItem = airdropItems[randomItemIndex];\r\n\r\n        uint256 tokenId = itemSystem.createItem(user, uriItem);\r\n        participants[user] = tokenId;\r\n    }\r\n}\r\n",
  "sourcePath": "C:/Users/Thanh Phi/Desktop/PolkaBridgeSolution/polkawar/polkawar-contract/contracts/PolkaWarNFTAirdrop.sol",
  "compiler": {
    "name": "solc",
    "version": "0.6.2+commit.bacdbe57.Emscripten.clang"
  },
  "schemaVersion": "3.4.1",
  "updatedAt": "2021-05-21T06:13:42.861Z",
  "networkType": "ethereum",
  "devdoc": {
    "methods": {
      "isOwner()": {
        "details": "Returns true if the caller is the current owner."
      },
      "owner()": {
        "details": "Returns the address of the current owner."
      },
      "renounceOwnership()": {
        "details": "Leaves the contract without owner. It will not be possible to call `onlyOwner` functions anymore. Can only be called by the current owner.     * NOTE: Renouncing ownership will leave the contract without an owner, thereby removing any functionality that is only available to the owner."
      },
      "transferOwnership(address)": {
        "details": "Transfers ownership of the contract to a new account (`newOwner`). Can only be called by the current owner."
      }
    }
  },
  "userdoc": {
    "methods": {}
  }
}