{
  "contractName": "TokenRelease",
  "abi": [
    {
      "inputs": [
        {
          "internalType": "contract PolkaWar",
          "name": "polkaWar",
          "type": "address"
        },
        {
          "internalType": "address",
          "name": "team",
          "type": "address"
        },
        {
          "internalType": "address",
          "name": "marketing",
          "type": "address"
        },
        {
          "internalType": "address",
          "name": "eco",
          "type": "address"
        },
        {
          "internalType": "address",
          "name": "privateFund",
          "type": "address"
        }
      ],
      "stateMutability": "nonpayable",
      "type": "constructor"
    },
    {
      "anonymous": false,
      "inputs": [
        {
          "indexed": false,
          "internalType": "address",
          "name": "beneficiary",
          "type": "address"
        },
        {
          "indexed": false,
          "internalType": "uint256",
          "name": "amount",
          "type": "uint256"
        }
      ],
      "name": "TokensReleased",
      "type": "event"
    },
    {
      "inputs": [],
      "name": "name",
      "outputs": [
        {
          "internalType": "string",
          "name": "",
          "type": "string"
        }
      ],
      "stateMutability": "view",
      "type": "function"
    },
    {
      "inputs": [],
      "name": "depositETHtoContract",
      "outputs": [],
      "stateMutability": "payable",
      "type": "function"
    },
    {
      "inputs": [
        {
          "internalType": "string",
          "name": "name",
          "type": "string"
        },
        {
          "internalType": "address",
          "name": "beneficiary",
          "type": "address"
        },
        {
          "internalType": "uint256",
          "name": "cliff",
          "type": "uint256"
        },
        {
          "internalType": "uint256",
          "name": "start",
          "type": "uint256"
        },
        {
          "internalType": "uint256",
          "name": "amountReleaseInOne",
          "type": "uint256"
        },
        {
          "internalType": "uint256",
          "name": "maxRelease",
          "type": "uint256"
        }
      ],
      "name": "addLockingFund",
      "outputs": [],
      "stateMutability": "nonpayable",
      "type": "function"
    },
    {
      "inputs": [
        {
          "internalType": "address",
          "name": "acc",
          "type": "address"
        }
      ],
      "name": "beneficiary",
      "outputs": [
        {
          "internalType": "address",
          "name": "",
          "type": "address"
        }
      ],
      "stateMutability": "view",
      "type": "function"
    },
    {
      "inputs": [
        {
          "internalType": "address",
          "name": "acc",
          "type": "address"
        }
      ],
      "name": "cliff",
      "outputs": [
        {
          "internalType": "uint256",
          "name": "",
          "type": "uint256"
        }
      ],
      "stateMutability": "view",
      "type": "function"
    },
    {
      "inputs": [
        {
          "internalType": "address",
          "name": "acc",
          "type": "address"
        }
      ],
      "name": "start",
      "outputs": [
        {
          "internalType": "uint256",
          "name": "",
          "type": "uint256"
        }
      ],
      "stateMutability": "view",
      "type": "function"
    },
    {
      "inputs": [
        {
          "internalType": "address",
          "name": "acc",
          "type": "address"
        }
      ],
      "name": "amountReleaseInOne",
      "outputs": [
        {
          "internalType": "uint256",
          "name": "",
          "type": "uint256"
        }
      ],
      "stateMutability": "view",
      "type": "function"
    },
    {
      "inputs": [
        {
          "internalType": "address",
          "name": "acc",
          "type": "address"
        }
      ],
      "name": "getNumberCycle",
      "outputs": [
        {
          "internalType": "uint256",
          "name": "",
          "type": "uint256"
        }
      ],
      "stateMutability": "view",
      "type": "function"
    },
    {
      "inputs": [],
      "name": "getRemainBalance",
      "outputs": [
        {
          "internalType": "uint256",
          "name": "",
          "type": "uint256"
        }
      ],
      "stateMutability": "view",
      "type": "function"
    },
    {
      "inputs": [
        {
          "internalType": "address",
          "name": "acc",
          "type": "address"
        }
      ],
      "name": "getRemainUnlockAmount",
      "outputs": [
        {
          "internalType": "uint256",
          "name": "",
          "type": "uint256"
        }
      ],
      "stateMutability": "view",
      "type": "function"
    },
    {
      "inputs": [
        {
          "internalType": "address",
          "name": "_wallet",
          "type": "address"
        }
      ],
      "name": "isValidBeneficiary",
      "outputs": [
        {
          "internalType": "bool",
          "name": "",
          "type": "bool"
        }
      ],
      "stateMutability": "view",
      "type": "function"
    },
    {
      "inputs": [
        {
          "internalType": "address",
          "name": "acc",
          "type": "address"
        }
      ],
      "name": "release",
      "outputs": [],
      "stateMutability": "nonpayable",
      "type": "function"
    },
    {
      "inputs": [],
      "name": "withdrawEtherFund",
      "outputs": [],
      "stateMutability": "nonpayable",
      "type": "function"
    }
  ],
  "bytecode": "0x60806040526040518060400160405280601781526020017f506f6c6b615761723a20546f6b656e2056657374696e67000000000000000000815250600290805190602001906200005192919062000bd3565b503480156200005f57600080fd5b506040516200261d3803806200261d833981810160405260a08110156200008557600080fd5b810190808051906020019092919080519060200190929190805190602001909291908051906020019092919080519060200190929190505050846000806101000a81548173ffffffffffffffffffffffffffffffffffffffff021916908373ffffffffffffffffffffffffffffffffffffffff1602179055506040518060400160405280600981526020017f5465616d2046756e640000000000000000000000000000000000000000000000815250600360008673ffffffffffffffffffffffffffffffffffffffff1673ffffffffffffffffffffffffffffffffffffffff16815260200190815260200160002060000190805190602001906200018b92919062000bd3565b5083600360008673ffffffffffffffffffffffffffffffffffffffff1673ffffffffffffffffffffffffffffffffffffffff16815260200190815260200160002060010160006101000a81548173ffffffffffffffffffffffffffffffffffffffff021916908373ffffffffffffffffffffffffffffffffffffffff16021790555062f0c29a600360008673ffffffffffffffffffffffffffffffffffffffff1673ffffffffffffffffffffffffffffffffffffffff168152602001908152602001600020600201819055506360dd0580600360008673ffffffffffffffffffffffffffffffffffffffff1673ffffffffffffffffffffffffffffffffffffffff168152602001908152602001600020600301819055506a0422ca8b0a00a425000000600360008673ffffffffffffffffffffffffffffffffffffffff1673ffffffffffffffffffffffffffffffffffffffff168152602001908152602001600020600401819055506a108b2a2c28029094000000600360008673ffffffffffffffffffffffffffffffffffffffff1673ffffffffffffffffffffffffffffffffffffffff168152602001908152602001600020600501819055506001600360008673ffffffffffffffffffffffffffffffffffffffff1673ffffffffffffffffffffffffffffffffffffffff16815260200190815260200160002060060160006101000a81548160ff0219169083151502179055506040518060400160405280600e81526020017f4d61726b6574696e672046756e64000000000000000000000000000000000000815250600360008573ffffffffffffffffffffffffffffffffffffffff1673ffffffffffffffffffffffffffffffffffffffff16815260200190815260200160002060000190805190602001906200042e92919062000bd3565b5082600360008573ffffffffffffffffffffffffffffffffffffffff1673ffffffffffffffffffffffffffffffffffffffff16815260200190815260200160002060010160006101000a81548173ffffffffffffffffffffffffffffffffffffffff021916908373ffffffffffffffffffffffffffffffffffffffff1602179055506228206f600360008573ffffffffffffffffffffffffffffffffffffffff1673ffffffffffffffffffffffffffffffffffffffff1681526020019081526020016000206002018190555063617f2e00600360008573ffffffffffffffffffffffffffffffffffffffff1673ffffffffffffffffffffffffffffffffffffffff1681526020019081526020016000206003018190555069d3c21bcecceda1000000600360008573ffffffffffffffffffffffffffffffffffffffff1673ffffffffffffffffffffffffffffffffffffffff168152602001908152602001600020600401819055506a108b2a2c28029094000000600360008573ffffffffffffffffffffffffffffffffffffffff1673ffffffffffffffffffffffffffffffffffffffff168152602001908152602001600020600501819055506001600360008573ffffffffffffffffffffffffffffffffffffffff1673ffffffffffffffffffffffffffffffffffffffff16815260200190815260200160002060060160006101000a81548160ff0219169083151502179055506040518060400160405280600e81526020017f45636f73797374656d2046756e64000000000000000000000000000000000000815250600360008473ffffffffffffffffffffffffffffffffffffffff1673ffffffffffffffffffffffffffffffffffffffff1681526020019081526020016000206000019080519060200190620006d092919062000bd3565b5081600360008473ffffffffffffffffffffffffffffffffffffffff1673ffffffffffffffffffffffffffffffffffffffff16815260200190815260200160002060010160006101000a81548173ffffffffffffffffffffffffffffffffffffffff021916908373ffffffffffffffffffffffffffffffffffffffff1602179055506228206f600360008473ffffffffffffffffffffffffffffffffffffffff1673ffffffffffffffffffffffffffffffffffffffff1681526020019081526020016000206002018190555063617f2e00600360008473ffffffffffffffffffffffffffffffffffffffff1673ffffffffffffffffffffffffffffffffffffffff1681526020019081526020016000206003018190555069d3c21bcecceda1000000600360008473ffffffffffffffffffffffffffffffffffffffff1673ffffffffffffffffffffffffffffffffffffffff168152602001908152602001600020600401819055506a1cf389cd46047d03000000600360008473ffffffffffffffffffffffffffffffffffffffff1673ffffffffffffffffffffffffffffffffffffffff168152602001908152602001600020600501819055506001600360008473ffffffffffffffffffffffffffffffffffffffff1673ffffffffffffffffffffffffffffffffffffffff16815260200190815260200160002060060160006101000a81548160ff0219169083151502179055506040518060400160405280600c81526020017f507269766174652046756e640000000000000000000000000000000000000000815250600360008373ffffffffffffffffffffffffffffffffffffffff1673ffffffffffffffffffffffffffffffffffffffff16815260200190815260200160002060000190805190602001906200097292919062000bd3565b5080600360008373ffffffffffffffffffffffffffffffffffffffff1673ffffffffffffffffffffffffffffffffffffffff16815260200190815260200160002060010160006101000a81548173ffffffffffffffffffffffffffffffffffffffff021916908373ffffffffffffffffffffffffffffffffffffffff1602179055506228206f600360008373ffffffffffffffffffffffffffffffffffffffff1673ffffffffffffffffffffffffffffffffffffffff168152602001908152602001600020600201819055506361cf9980600360008373ffffffffffffffffffffffffffffffffffffffff1673ffffffffffffffffffffffffffffffffffffffff1681526020019081526020016000206003018190555069d3c21bcecceda1000000600360008373ffffffffffffffffffffffffffffffffffffffff1673ffffffffffffffffffffffffffffffffffffffff168152602001908152602001600020600401819055506a108b2a2c28029094000000600360008373ffffffffffffffffffffffffffffffffffffffff1673ffffffffffffffffffffffffffffffffffffffff168152602001908152602001600020600501819055506001600360008373ffffffffffffffffffffffffffffffffffffffff1673ffffffffffffffffffffffffffffffffffffffff16815260200190815260200160002060060160006101000a81548160ff02191690831515021790555033600160006101000a81548173ffffffffffffffffffffffffffffffffffffffff021916908373ffffffffffffffffffffffffffffffffffffffff160217905550505050505062000c82565b828054600181600116156101000203166002900490600052602060002090601f016020900481019282601f1062000c1657805160ff191683800117855562000c47565b8280016001018555821562000c47579182015b8281111562000c4657825182559160200191906001019062000c29565b5b50905062000c56919062000c5a565b5090565b62000c7f91905b8082111562000c7b57600081600090555060010162000c61565b5090565b90565b61198b8062000c926000396000f3fe6080604052600436106100c25760003560e01c806393bc484c1161007f578063ca95a20011610059578063ca95a200146104be578063cdce101b14610523578063dbd2b1bc14610588578063dd0b281e14610592576100c2565b806393bc484c14610417578063a901418d1461042e578063c6caeece14610493576100c2565b8063054cacaf146100c757806306fdde031461013057806308bc072f146101c057806319165587146102255780631ebfd17c146102765780638100856814610386575b600080fd5b3480156100d357600080fd5b50610116600480360360208110156100ea57600080fd5b81019080803573ffffffffffffffffffffffffffffffffffffffff1690602001909291905050506105f7565b604051808215151515815260200191505060405180910390f35b34801561013c57600080fd5b50610145610650565b6040518080602001828103825283818151815260200191508051906020019080838360005b8381101561018557808201518184015260208101905061016a565b50505050905090810190601f1680156101b25780820380516001836020036101000a031916815260200191505b509250505060405180910390f35b3480156101cc57600080fd5b5061020f600480360360208110156101e357600080fd5b81019080803573ffffffffffffffffffffffffffffffffffffffff1690602001909291905050506106ee565b6040518082815260200191505060405180910390f35b34801561023157600080fd5b506102746004803603602081101561024857600080fd5b81019080803573ffffffffffffffffffffffffffffffffffffffff16906020019092919050505061073a565b005b34801561028257600080fd5b50610384600480360360c081101561029957600080fd5b81019080803590602001906401000000008111156102b657600080fd5b8201836020820111156102c857600080fd5b803590602001918460018302840111640100000000831117156102ea57600080fd5b91908080601f016020809104026020016040519081016040528093929190818152602001838380828437600081840152601f19601f820116905080830192505050505050509192919290803573ffffffffffffffffffffffffffffffffffffffff16906020019092919080359060200190929190803590602001909291908035906020019092919080359060200190929190505050610ba3565b005b34801561039257600080fd5b506103d5600480360360208110156103a957600080fd5b81019080803573ffffffffffffffffffffffffffffffffffffffff169060200190929190505050610ebd565b604051808273ffffffffffffffffffffffffffffffffffffffff1673ffffffffffffffffffffffffffffffffffffffff16815260200191505060405180910390f35b34801561042357600080fd5b5061042c610f29565b005b34801561043a57600080fd5b5061047d6004803603602081101561045157600080fd5b81019080803573ffffffffffffffffffffffffffffffffffffffff1690602001909291905050506110d3565b6040518082815260200191505060405180910390f35b34801561049f57600080fd5b506104a8611185565b6040518082815260200191505060405180910390f35b3480156104ca57600080fd5b5061050d600480360360208110156104e157600080fd5b81019080803573ffffffffffffffffffffffffffffffffffffffff169060200190929190505050611265565b6040518082815260200191505060405180910390f35b34801561052f57600080fd5b506105726004803603602081101561054657600080fd5b81019080803573ffffffffffffffffffffffffffffffffffffffff1690602001909291905050506112b1565b6040518082815260200191505060405180910390f35b6105906112fd565b005b34801561059e57600080fd5b506105e1600480360360208110156105b557600080fd5b81019080803573ffffffffffffffffffffffffffffffffffffffff1690602001909291905050506112ff565b6040518082815260200191505060405180910390f35b6000600360008373ffffffffffffffffffffffffffffffffffffffff1673ffffffffffffffffffffffffffffffffffffffff16815260200190815260200160002060060160009054906101000a900460ff169050919050565b60028054600181600116156101000203166002900480601f0160208091040260200160405190810160405280929190818152602001828054600181600116156101000203166002900480156106e65780601f106106bb576101008083540402835291602001916106e6565b820191906000526020600020905b8154815290600101906020018083116106c957829003601f168201915b505050505081565b6000600360008373ffffffffffffffffffffffffffffffffffffffff1673ffffffffffffffffffffffffffffffffffffffff168152602001908152602001600020600501549050919050565b600073ffffffffffffffffffffffffffffffffffffffff168173ffffffffffffffffffffffffffffffffffffffff1614156107c0576040517f08c379a00000000000000000000000000000000000000000000000000000000081526004018080602001828103825260218152602001806119356021913960400191505060405180910390fd5b6107c9816105f7565b61081e576040517f08c379a00000000000000000000000000000000000000000000000000000000081526004018080602001828103825260258152602001806119106025913960400191505060405180910390fd5b6000600360008373ffffffffffffffffffffffffffffffffffffffff1673ffffffffffffffffffffffffffffffffffffffff16815260200190815260200160002060050154116108b9576040517f08c379a00000000000000000000000000000000000000000000000000000000081526004018080602001828103825260268152602001806118ea6026913960400191505060405180910390fd5b60006108c48261134b565b90506000811161093c576040517f08c379a000000000000000000000000000000000000000000000000000000000815260040180806020018281038252601f8152602001807f546f6b656e52656c656173653a206e6f20746f6b656e7320617265206475650081525060200191505060405180910390fd5b6000809054906101000a900473ffffffffffffffffffffffffffffffffffffffff1673ffffffffffffffffffffffffffffffffffffffff1663a9059cbb600360008573ffffffffffffffffffffffffffffffffffffffff1673ffffffffffffffffffffffffffffffffffffffff16815260200190815260200160002060010160009054906101000a900473ffffffffffffffffffffffffffffffffffffffff16836040518363ffffffff1660e01b8152600401808373ffffffffffffffffffffffffffffffffffffffff1673ffffffffffffffffffffffffffffffffffffffff16815260200182815260200192505050602060405180830381600087803b158015610a4657600080fd5b505af1158015610a5a573d6000803e3d6000fd5b505050506040513d6020811015610a7057600080fd5b81019080805190602001909291905050505080600360008473ffffffffffffffffffffffffffffffffffffffff1673ffffffffffffffffffffffffffffffffffffffff168152602001908152602001600020600501600082825403925050819055507fc7798891864187665ac6dd119286e44ec13f014527aeeb2b8eb3fd413df93179600360008473ffffffffffffffffffffffffffffffffffffffff1673ffffffffffffffffffffffffffffffffffffffff16815260200190815260200160002060010160009054906101000a900473ffffffffffffffffffffffffffffffffffffffff1682604051808373ffffffffffffffffffffffffffffffffffffffff1673ffffffffffffffffffffffffffffffffffffffff1681526020018281526020019250505060405180910390a15050565b600160009054906101000a900473ffffffffffffffffffffffffffffffffffffffff1673ffffffffffffffffffffffffffffffffffffffff163373ffffffffffffffffffffffffffffffffffffffff1614610c66576040517f08c379a000000000000000000000000000000000000000000000000000000000815260040180806020018281038252601d8152602001807f6f6e6c79206f776e65722063616e206164644c6f636b696e6746756e6400000081525060200191505060405180910390fd5b85600360008773ffffffffffffffffffffffffffffffffffffffff1673ffffffffffffffffffffffffffffffffffffffff1681526020019081526020016000206000019080519060200190610cbc929190611844565b5084600360008773ffffffffffffffffffffffffffffffffffffffff1673ffffffffffffffffffffffffffffffffffffffff16815260200190815260200160002060010160006101000a81548173ffffffffffffffffffffffffffffffffffffffff021916908373ffffffffffffffffffffffffffffffffffffffff16021790555083600360008773ffffffffffffffffffffffffffffffffffffffff1673ffffffffffffffffffffffffffffffffffffffff1681526020019081526020016000206002018190555082600360008773ffffffffffffffffffffffffffffffffffffffff1673ffffffffffffffffffffffffffffffffffffffff1681526020019081526020016000206003018190555081600360008773ffffffffffffffffffffffffffffffffffffffff1673ffffffffffffffffffffffffffffffffffffffff1681526020019081526020016000206004018190555080600360008773ffffffffffffffffffffffffffffffffffffffff1673ffffffffffffffffffffffffffffffffffffffff168152602001908152602001600020600501819055506001600360008773ffffffffffffffffffffffffffffffffffffffff1673ffffffffffffffffffffffffffffffffffffffff16815260200190815260200160002060060160006101000a81548160ff021916908315150217905550505050505050565b6000600360008373ffffffffffffffffffffffffffffffffffffffff1673ffffffffffffffffffffffffffffffffffffffff16815260200190815260200160002060010160009054906101000a900473ffffffffffffffffffffffffffffffffffffffff169050919050565b600160009054906101000a900473ffffffffffffffffffffffffffffffffffffffff1673ffffffffffffffffffffffffffffffffffffffff163373ffffffffffffffffffffffffffffffffffffffff1614610fec576040517f08c379a00000000000000000000000000000000000000000000000000000000081526004018080602001828103825260178152602001807f6f6e6c79206f776e65722063616e20776974686472617700000000000000000081525060200191505060405180910390fd5b600047905060008111611067576040517f08c379a000000000000000000000000000000000000000000000000000000000815260040180806020018281038252600f8152602001807f6e6f7420656e6f7567682066756e64000000000000000000000000000000000081525060200191505060405180910390fd5b600160009054906101000a900473ffffffffffffffffffffffffffffffffffffffff1673ffffffffffffffffffffffffffffffffffffffff166108fc829081150290604051600060405180830381858888f193505050501580156110cf573d6000803e3d6000fd5b5050565b600061117e600360008473ffffffffffffffffffffffffffffffffffffffff1673ffffffffffffffffffffffffffffffffffffffff16815260200190815260200160002060020154611170600360008673ffffffffffffffffffffffffffffffffffffffff1673ffffffffffffffffffffffffffffffffffffffff16815260200190815260200160002060030154426115a290919063ffffffff16565b6115ec90919063ffffffff16565b9050919050565b60008060009054906101000a900473ffffffffffffffffffffffffffffffffffffffff1673ffffffffffffffffffffffffffffffffffffffff166370a08231306040518263ffffffff1660e01b8152600401808273ffffffffffffffffffffffffffffffffffffffff1673ffffffffffffffffffffffffffffffffffffffff16815260200191505060206040518083038186803b15801561122557600080fd5b505afa158015611239573d6000803e3d6000fd5b505050506040513d602081101561124f57600080fd5b8101908080519060200190929190505050905090565b6000600360008373ffffffffffffffffffffffffffffffffffffffff1673ffffffffffffffffffffffffffffffffffffffff168152602001908152602001600020600401549050919050565b6000600360008373ffffffffffffffffffffffffffffffffffffffff1673ffffffffffffffffffffffffffffffffffffffff168152602001908152602001600020600201549050919050565b565b6000600360008373ffffffffffffffffffffffffffffffffffffffff1673ffffffffffffffffffffffffffffffffffffffff168152602001908152602001600020600301549050919050565b6000806000809054906101000a900473ffffffffffffffffffffffffffffffffffffffff1673ffffffffffffffffffffffffffffffffffffffff166370a08231306040518263ffffffff1660e01b8152600401808273ffffffffffffffffffffffffffffffffffffffff1673ffffffffffffffffffffffffffffffffffffffff16815260200191505060206040518083038186803b1580156113ec57600080fd5b505afa158015611400573d6000803e3d6000fd5b505050506040513d602081101561141657600080fd5b810190808051906020019092919050505090506000811161143b57600091505061159d565b6000809050426114d8600360008773ffffffffffffffffffffffffffffffffffffffff1673ffffffffffffffffffffffffffffffffffffffff16815260200190815260200160002060020154600360008873ffffffffffffffffffffffffffffffffffffffff1673ffffffffffffffffffffffffffffffffffffffff1681526020019081526020016000206003015461163690919063ffffffff16565b11156114e75760009050611597565b60006114f2856110d3565b9050600081111561154957600360008673ffffffffffffffffffffffffffffffffffffffff1673ffffffffffffffffffffffffffffffffffffffff168152602001908152602001600020600401548102915061154e565b600091505b42600360008773ffffffffffffffffffffffffffffffffffffffff1673ffffffffffffffffffffffffffffffffffffffff16815260200190815260200160002060030181905550505b80925050505b919050565b60006115e483836040518060400160405280601e81526020017f536166654d6174683a207375627472616374696f6e206f766572666c6f7700008152506116be565b905092915050565b600061162e83836040518060400160405280601a81526020017f536166654d6174683a206469766973696f6e206279207a65726f00000000000081525061177e565b905092915050565b6000808284019050838110156116b4576040517f08c379a000000000000000000000000000000000000000000000000000000000815260040180806020018281038252601b8152602001807f536166654d6174683a206164646974696f6e206f766572666c6f77000000000081525060200191505060405180910390fd5b8091505092915050565b600083831115829061176b576040517f08c379a00000000000000000000000000000000000000000000000000000000081526004018080602001828103825283818151815260200191508051906020019080838360005b83811015611730578082015181840152602081019050611715565b50505050905090810190601f16801561175d5780820380516001836020036101000a031916815260200191505b509250505060405180910390fd5b5060008385039050809150509392505050565b6000808311829061182a576040517f08c379a00000000000000000000000000000000000000000000000000000000081526004018080602001828103825283818151815260200191508051906020019080838360005b838110156117ef5780820151818401526020810190506117d4565b50505050905090810190601f16801561181c5780820380516001836020036101000a031916815260200191505b509250505060405180910390fd5b50600083858161183657fe5b049050809150509392505050565b828054600181600116156101000203166002900490600052602060002090601f016020900481019282601f1061188557805160ff19168380011785556118b3565b828001600101855582156118b3579182015b828111156118b2578251825591602001919060010190611897565b5b5090506118c091906118c4565b5090565b6118e691905b808211156118e25760008160009055506001016118ca565b5090565b9056fe546f6b656e52656c656173653a206e6f206d6f726520746f6b656e20746f2072656c65617365546f6b656e52656c656173653a20696e76616c69642072656c656173652061646472657373546f6b656e52656c656173653a20616464726573732030206e6f7420616c6c6f77a2646970667358221220143a52d32ea3f0aba8c50a796bf352da6db454dc3e14003eee109da5ff6e585864736f6c63430006020033",
  "source": "pragma solidity >=0.6.0;\r\n\r\nimport \"@openzeppelin/contracts/math/SafeMath.sol\";\r\nimport \"./PolkaWar.sol\";\r\n\r\ncontract TokenRelease {\r\n    using SafeMath for uint256;\r\n    PolkaWar private _polkawar;\r\n    event TokensReleased(address beneficiary, uint256 amount);\r\n    address payable private owner;\r\n    // beneficiary of tokens after they are released\r\n    string public name = \"PolkaWar: Token Vesting\";\r\n\r\n    struct Vesting {\r\n        string Name;\r\n        address Beneficiary;\r\n        uint256 Cliff;\r\n        uint256 Start;\r\n        uint256 AmountReleaseInOne;\r\n        uint256 MaxRelease;\r\n        bool IsExist;\r\n    }\r\n    mapping(address => Vesting) private _vestingList;\r\n\r\n    constructor(\r\n        PolkaWar polkaWar,\r\n        address team,\r\n        address marketing,\r\n        address eco,\r\n        address privateFund\r\n    ) public {\r\n        _polkawar = polkaWar;\r\n        _vestingList[team].Name = \"Team Fund\";\r\n        _vestingList[team].Beneficiary = team;\r\n        _vestingList[team].Cliff = 15778458;//6 month\r\n        _vestingList[team].Start = 1625097600; //1/7/2021\r\n        _vestingList[team].AmountReleaseInOne = 5000000*1e18;\r\n        _vestingList[team].MaxRelease = 20000000*1e18;\r\n        _vestingList[team].IsExist = true;\r\n\r\n        _vestingList[marketing].Name = \"Marketing Fund\";\r\n        _vestingList[marketing].Beneficiary = marketing;\r\n        _vestingList[marketing].Cliff = 2629743;//1 month\r\n        _vestingList[marketing].Start = 1635724800; //1/11/2021\r\n        _vestingList[marketing]\r\n            .AmountReleaseInOne = 1000000*1e18;\r\n        _vestingList[marketing].MaxRelease = 20000000*1e18;\r\n        _vestingList[marketing].IsExist = true;\r\n\r\n        _vestingList[eco].Name = \"Ecosystem Fund\";\r\n        _vestingList[eco].Beneficiary = eco;\r\n        _vestingList[eco].Cliff =  2629743;//1 month\r\n        _vestingList[eco].Start = 1635724800; //1/11/2021\r\n        _vestingList[eco].AmountReleaseInOne = 1000000*1e18;\r\n        _vestingList[eco].MaxRelease =  35000000*1e18;\r\n        _vestingList[eco].IsExist = true;\r\n\r\n        _vestingList[privateFund].Name = \"Private Fund\";\r\n        _vestingList[privateFund].Beneficiary = privateFund;\r\n        _vestingList[privateFund].Cliff =  2629743;//1 month\r\n        _vestingList[privateFund].Start = 1640995200; //1/1/2022\r\n        _vestingList[privateFund].AmountReleaseInOne = 1000000*1e18;\r\n        _vestingList[privateFund].MaxRelease =  20000000*1e18;\r\n        _vestingList[privateFund].IsExist = true;\r\n\r\n        owner = msg.sender;\r\n    }\r\n\r\n    function depositETHtoContract() public payable {}\r\n\r\n    function addLockingFund(\r\n        string memory name,\r\n        address beneficiary,\r\n        uint256 cliff,\r\n        uint256 start,\r\n        uint256 amountReleaseInOne,\r\n        uint256 maxRelease\r\n    ) public {\r\n        require(msg.sender == owner, \"only owner can addLockingFund\");\r\n        _vestingList[beneficiary].Name = name;\r\n        _vestingList[beneficiary].Beneficiary = beneficiary;\r\n        _vestingList[beneficiary].Cliff = cliff;\r\n        _vestingList[beneficiary].Start = start;\r\n        _vestingList[beneficiary].AmountReleaseInOne = amountReleaseInOne;\r\n        _vestingList[beneficiary].MaxRelease = maxRelease;\r\n        _vestingList[beneficiary].IsExist = true;\r\n    }\r\n\r\n    function beneficiary(address acc) public view returns (address) {\r\n        return _vestingList[acc].Beneficiary;\r\n    }\r\n\r\n    function cliff(address acc) public view returns (uint256) {\r\n        return _vestingList[acc].Cliff;\r\n    }\r\n\r\n    function start(address acc) public view returns (uint256) {\r\n        return _vestingList[acc].Start;\r\n    }\r\n\r\n    function amountReleaseInOne(address acc) public view returns (uint256) {\r\n        return _vestingList[acc].AmountReleaseInOne;\r\n    }\r\n\r\n    function getNumberCycle(address acc) public view returns (uint256) {\r\n        return\r\n            (block.timestamp.sub(_vestingList[acc].Start)).div(\r\n                _vestingList[acc].Cliff\r\n            );\r\n    }\r\n\r\n    function getRemainBalance() public view returns (uint256) {\r\n        return _polkawar.balanceOf(address(this));\r\n    }\r\n\r\n    function getRemainUnlockAmount(address acc) public view returns (uint256) {\r\n        return _vestingList[acc].MaxRelease;\r\n    }\r\n\r\n    function isValidBeneficiary(address _wallet) public view returns (bool) {\r\n        return _vestingList[_wallet].IsExist;\r\n    }\r\n\r\n    function release(address acc) public {\r\n        require(acc != address(0), \"TokenRelease: address 0 not allow\");\r\n        require(\r\n            isValidBeneficiary(acc),\r\n            \"TokenRelease: invalid release address\"\r\n        );\r\n\r\n        require(\r\n            _vestingList[acc].MaxRelease > 0,\r\n            \"TokenRelease: no more token to release\"\r\n        );\r\n\r\n        uint256 unreleased = _releasableAmount(acc);\r\n\r\n        require(unreleased > 0, \"TokenRelease: no tokens are due\");\r\n\r\n        _polkawar.transfer(_vestingList[acc].Beneficiary, unreleased);\r\n        _vestingList[acc].MaxRelease -= unreleased;\r\n\r\n        emit TokensReleased(_vestingList[acc].Beneficiary, unreleased);\r\n    }\r\n\r\n    function _releasableAmount(address acc) private returns (uint256) {\r\n        uint256 currentBalance = _polkawar.balanceOf(address(this));\r\n        if (currentBalance <= 0) return 0;\r\n        uint256 amountRelease = 0;\r\n        //require(_start.add(_cliff) < block.timestamp, \"not that time\");\r\n        if (\r\n            _vestingList[acc].Start.add(_vestingList[acc].Cliff) >\r\n            block.timestamp\r\n        ) {\r\n            //not on time\r\n\r\n            amountRelease = 0;\r\n        } else {\r\n            uint256 numberCycle = getNumberCycle(acc);\r\n            if (numberCycle > 0) {\r\n                amountRelease =\r\n                    numberCycle *\r\n                    _vestingList[acc].AmountReleaseInOne;\r\n            } else {\r\n                amountRelease = 0;\r\n            }\r\n\r\n            _vestingList[acc].Start = block.timestamp; //update start\r\n        }\r\n        return amountRelease;\r\n    }\r\n\r\n    function withdrawEtherFund() public {\r\n        require(msg.sender == owner, \"only owner can withdraw\");\r\n        uint256 balance = address(this).balance;\r\n        require(balance > 0, \"not enough fund\");\r\n        owner.transfer(balance);\r\n    }\r\n}\r\n",
  "sourcePath": "C:\\Users\\Thanh Phi\\Desktop\\PolkaBridgeSolution\\polkawar\\polkawar-contract\\contracts\\TokenRelease.sol",
  "compiler": {
    "name": "solc",
    "version": "0.6.2+commit.bacdbe57.Emscripten.clang"
  },
  "schemaVersion": "3.4.3",
  "updatedAt": "2021-11-05T07:20:22.034Z",
  "networkType": "ethereum",
  "devdoc": {
    "methods": {}
  },
  "userdoc": {
    "methods": {}
  }
}